{"contracts/Splitwise.sol":{"Splitwise":{"abi":[{"anonymous":false,"inputs":[{"indexed":false,"internalType":"uint256","name":"expenseId","type":"uint256"}],"name":"ExpenseCreated","type":"event"},{"anonymous":false,"inputs":[{"indexed":false,"internalType":"uint256","name":"expenseId","type":"uint256"}],"name":"ExpenseSettled","type":"event"},{"inputs":[{"internalType":"address","name":"","type":"address"}],"name":"balances","outputs":[{"internalType":"int256","name":"","type":"int256"}],"stateMutability":"view","type":"function"},{"inputs":[{"internalType":"address[]","name":"members","type":"address[]"},{"internalType":"uint256[]","name":"amounts","type":"uint256[]"},{"internalType":"string","name":"description","type":"string"},{"internalType":"uint256","name":"interestRate","type":"uint256"}],"name":"createExpense","outputs":[],"stateMutability":"nonpayable","type":"function"},{"inputs":[{"internalType":"uint256","name":"expenseId","type":"uint256"}],"name":"deleteExpense","outputs":[],"stateMutability":"nonpayable","type":"function"},{"inputs":[{"internalType":"uint256","name":"expenseId","type":"uint256"},{"internalType":"string","name":"newDescription","type":"string"}],"name":"editExpense","outputs":[],"stateMutability":"nonpayable","type":"function"},{"inputs":[{"internalType":"uint256","name":"","type":"uint256"}],"name":"expenses","outputs":[{"internalType":"uint256","name":"id","type":"uint256"},{"internalType":"string","name":"description","type":"string"},{"internalType":"address","name":"owner","type":"address"},{"internalType":"bool","name":"isSettled","type":"bool"},{"internalType":"uint256","name":"interestRate","type":"uint256"},{"internalType":"uint256","name":"creationTimestamp","type":"uint256"}],"stateMutability":"view","type":"function"},{"inputs":[{"internalType":"address","name":"user","type":"address"}],"name":"getBalance","outputs":[{"internalType":"int256","name":"","type":"int256"}],"stateMutability":"view","type":"function"},{"inputs":[{"internalType":"address","name":"owner","type":"address"}],"name":"getExpensesByOwner","outputs":[{"components":[{"internalType":"uint256","name":"id","type":"uint256"},{"internalType":"string","name":"description","type":"string"},{"internalType":"address","name":"owner","type":"address"},{"internalType":"address[]","name":"involvedMembers","type":"address[]"},{"internalType":"uint256[]","name":"amountsOwed","type":"uint256[]"},{"internalType":"bool","name":"isSettled","type":"bool"},{"internalType":"bool[]","name":"hasPaid","type":"bool[]"},{"internalType":"uint256","name":"interestRate","type":"uint256"},{"internalType":"uint256","name":"creationTimestamp","type":"uint256"}],"internalType":"struct Splitwise.Expense[]","name":"","type":"tuple[]"}],"stateMutability":"view","type":"function"},{"inputs":[],"name":"getExpensesOfCaller","outputs":[{"components":[{"internalType":"uint256","name":"id","type":"uint256"},{"internalType":"string","name":"description","type":"string"},{"internalType":"address","name":"owner","type":"address"},{"internalType":"address[]","name":"involvedMembers","type":"address[]"},{"internalType":"uint256[]","name":"amountsOwed","type":"uint256[]"},{"internalType":"bool","name":"isSettled","type":"bool"},{"internalType":"bool[]","name":"hasPaid","type":"bool[]"},{"internalType":"uint256","name":"interestRate","type":"uint256"},{"internalType":"uint256","name":"creationTimestamp","type":"uint256"}],"internalType":"struct Splitwise.Expense[]","name":"","type":"tuple[]"}],"stateMutability":"view","type":"function"},{"inputs":[{"internalType":"uint256[]","name":"expenseIds","type":"uint256[]"},{"internalType":"address","name":"user","type":"address"}],"name":"markUserAsPaid","outputs":[],"stateMutability":"nonpayable","type":"function"},{"inputs":[{"internalType":"uint256","name":"expenseId","type":"uint256"}],"name":"settleExpense","outputs":[],"stateMutability":"nonpayable","type":"function"}],"evm":{"bytecode":{"linkReferences":{},"object":"6080604052348015600f57600080fd5b50612cf48061001f6000396000f3fe608060405234801561001057600080fd5b506004361061009e5760003560e01c8063af4afe0a11610066578063af4afe0a14610157578063c0a7540b1461018c578063cc2dfb03146101a8578063d7821b93146101c4578063f8b2cb4f146101e25761009e565b80630697ca06146100a35780630a46ae49146100d357806327e235e3146100ef5780635d98878c1461011f5780637512dbaa1461013b575b600080fd5b6100bd60048036038101906100b89190611aee565b610212565b6040516100ca9190611f97565b60405180910390f35b6100ed60048036038101906100e89190611fe5565b610693565b005b61010960048036038101906101049190611aee565b610795565b604051610116919061202b565b60405180910390f35b6101396004803603810190610134919061218e565b6107ad565b005b6101556004803603810190610150919061229f565b610ca4565b005b610171600480360381019061016c9190611fe5565b610d22565b60405161018396959493929190612372565b60405180910390f35b6101a660048036038101906101a19190611fe5565b610e23565b005b6101c260048036038101906101bd919061249d565b610f54565b005b6101cc61124b565b6040516101d99190611f97565b60405180910390f35b6101fc60048036038101906101f79190611aee565b61178c565b604051610209919061202b565b60405180910390f35b60606000805b6001805490508110156102b9578373ffffffffffffffffffffffffffffffffffffffff16600182815481106102505761024f612558565b5b906000526020600020906009020160020160009054906101000a900473ffffffffffffffffffffffffffffffffffffffff1673ffffffffffffffffffffffffffffffffffffffff16036102ac5781806102a8906125b6565b9250505b8080600101915050610218565b5060008167ffffffffffffffff8111156102d6576102d561204b565b5b60405190808252806020026020018201604052801561030f57816020015b6102fc6117d4565b8152602001906001900390816102f45790505b5090506000805b600180549050811015610687578573ffffffffffffffffffffffffffffffffffffffff166001828154811061034e5761034d612558565b5b906000526020600020906009020160020160009054906101000a900473ffffffffffffffffffffffffffffffffffffffff1673ffffffffffffffffffffffffffffffffffffffff160361067a57600181815481106103af576103ae612558565b5b906000526020600020906009020160405180610120016040529081600082015481526020016001820180546103e39061262d565b80601f016020809104026020016040519081016040528092919081815260200182805461040f9061262d565b801561045c5780601f106104315761010080835404028352916020019161045c565b820191906000526020600020905b81548152906001019060200180831161043f57829003601f168201915b505050505081526020016002820160009054906101000a900473ffffffffffffffffffffffffffffffffffffffff1673ffffffffffffffffffffffffffffffffffffffff1673ffffffffffffffffffffffffffffffffffffffff1681526020016003820180548060200260200160405190810160405280929190818152602001828054801561054057602002820191906000526020600020905b8160009054906101000a900473ffffffffffffffffffffffffffffffffffffffff1673ffffffffffffffffffffffffffffffffffffffff16815260200190600101908083116104f6575b505050505081526020016004820180548060200260200160405190810160405280929190818152602001828054801561059857602002820191906000526020600020905b815481526020019060010190808311610584575b505050505081526020016005820160009054906101000a900460ff161515151581526020016006820180548060200260200160405190810160405280929190818152602001828054801561063057602002820191906000526020600020906000905b82829054906101000a900460ff161515815260200190600101906020826000010492830192600103820291508084116105fa5790505b50505050508152602001600782015481526020016008820154815250508383815181106106605761065f612558565b5b60200260200101819052508180610676906125b6565b9250505b8080600101915050610316565b50819350505050919050565b60018054905081106106da576040517f08c379a00000000000000000000000000000000000000000000000000000000081526004016106d1906126aa565b60405180910390fd5b600181815481106106ee576106ed612558565b5b90600052602060002090600902016000808201600090556001820160006107159190611838565b6002820160006101000a81549073ffffffffffffffffffffffffffffffffffffffff021916905560038201600061074c9190611878565b60048201600061075c9190611899565b6005820160006101000a81549060ff021916905560068201600061078091906118ba565b60078201600090556008820160009055505050565b60006020528060005260406000206000915090505481565b60008251116107f1576040517f08c379a00000000000000000000000000000000000000000000000000000000081526004016107e890612716565b60405180910390fd5b600073ffffffffffffffffffffffffffffffffffffffff168173ffffffffffffffffffffffffffffffffffffffff1603610860576040517f08c379a000000000000000000000000000000000000000000000000000000000815260040161085790612782565b60405180910390fd5b6000805b8351811015610c9b57600084828151811061088257610881612558565b5b6020026020010151905060018054905081106108d3576040517f08c379a00000000000000000000000000000000000000000000000000000000081526004016108ca906126aa565b60405180910390fd5b60008060005b600184815481106108ed576108ec612558565b5b9060005260206000209060090201600301805490508110156109b6578673ffffffffffffffffffffffffffffffffffffffff166001858154811061093457610933612558565b5b9060005260206000209060090201600301828154811061095757610956612558565b5b9060005260206000200160009054906101000a900473ffffffffffffffffffffffffffffffffffffffff1673ffffffffffffffffffffffffffffffffffffffff16036109a957809150600192506109b6565b80806001019150506108d9565b50816109f7576040517f08c379a00000000000000000000000000000000000000000000000000000000081526004016109ee90612814565b60405180910390fd5b60018381548110610a0b57610a0a612558565b5b90600052602060002090600902016006018181548110610a2e57610a2d612558565b5b90600052602060002090602091828204019190069054906101000a900460ff1615610a8e576040517f08c379a0000000000000000000000000000000000000000000000000000000008152600401610a85906128a6565b60405180910390fd5b60018381548110610aa257610aa1612558565b5b90600052602060002090600902016004018181548110610ac557610ac4612558565b5b90600052602060002001546000808873ffffffffffffffffffffffffffffffffffffffff1673ffffffffffffffffffffffffffffffffffffffff1681526020019081526020016000206000828254610b1d91906128c6565b925050819055506001808481548110610b3957610b38612558565b5b90600052602060002090600902016006018281548110610b5c57610b5b612558565b5b90600052602060002090602091828204019190066101000a81548160ff02191690831515021790555060006001905060005b60018581548110610ba257610ba1612558565b5b906000526020600020906009020160060180549050811015610c2f5760018581548110610bd257610bd1612558565b5b90600052602060002090600902016006018181548110610bf557610bf4612558565b5b90600052602060002090602091828204019190069054906101000a900460ff16610c225760009150610c2f565b8080600101915050610b8e565b50808015610c6d575060018481548110610c4c57610c4b612558565b5b906000526020600020906009020160050160009054906101000a900460ff16155b15610c7c57610c7b84610e23565b5b8580610c87906125b6565b965050505050508080600101915050610864565b50825150505050565b6001805490508210610ceb576040517f08c379a0000000000000000000000000000000000000000000000000000000008152600401610ce2906126aa565b60405180910390fd5b8060018381548110610d0057610cff612558565b5b90600052602060002090600902016001019081610d1d9190612ab5565b505050565b60018181548110610d3257600080fd5b9060005260206000209060090201600091509050806000015490806001018054610d5b9061262d565b80601f0160208091040260200160405190810160405280929190818152602001828054610d879061262d565b8015610dd45780601f10610da957610100808354040283529160200191610dd4565b820191906000526020600020905b815481529060010190602001808311610db757829003601f168201915b5050505050908060020160009054906101000a900473ffffffffffffffffffffffffffffffffffffffff16908060050160009054906101000a900460ff16908060070154908060080154905086565b6001805490508110610e6a576040517f08c379a0000000000000000000000000000000000000000000000000000000008152600401610e61906126aa565b60405180910390fd5b60018181548110610e7e57610e7d612558565b5b906000526020600020906009020160050160009054906101000a900460ff1615610edd576040517f08c379a0000000000000000000000000000000000000000000000000000000008152600401610ed490612bd3565b60405180910390fd5b6001808281548110610ef257610ef1612558565b5b906000526020600020906009020160050160006101000a81548160ff0219169083151502179055507f0f645877fe838126f91b4e7f0c2002e96576b70d9d3483c64ad47a4c586fbf2b81604051610f499190612bf3565b60405180910390a150565b8251845114610f98576040517f08c379a0000000000000000000000000000000000000000000000000000000008152600401610f8f90612c5a565b60405180910390fd5b60004290506000600180549050905060016040518061012001604052808381526020018681526020013373ffffffffffffffffffffffffffffffffffffffff168152602001888152602001878152602001600015158152602001885167ffffffffffffffff81111561100d5761100c61204b565b5b60405190808252806020026020018201604052801561103b5781602001602082028036833780820191505090505b5081526020018581526020018481525090806001815401808255809150506001900390600052602060002090600902016000909190919091506000820151816000015560208201518160010190816110939190612ab5565b5060408201518160020160006101000a81548173ffffffffffffffffffffffffffffffffffffffff021916908373ffffffffffffffffffffffffffffffffffffffff16021790555060608201518160030190805190602001906110f79291906118e2565b50608082015181600401908051906020019061111492919061196c565b5060a08201518160050160006101000a81548160ff02191690831515021790555060c08201518160060190805190602001906111519291906119b9565b5060e08201518160070155610100820151816008015550507f8a4fcfa8215b159e8137e3e3ab607d6b2a27ddcbac44eca414476e096d74f4d2816040516111989190612bf3565b60405180910390a160005b8651811015611242578581815181106111bf576111be612558565b5b60200260200101516000808984815181106111dd576111dc612558565b5b602002602001015173ffffffffffffffffffffffffffffffffffffffff1673ffffffffffffffffffffffffffffffffffffffff168152602001908152602001600020600082825461122e9190612c7a565b9250508190555080806001019150506111a3565b50505050505050565b60606000805b6001805490508110156113535760005b6001828154811061127557611274612558565b5b906000526020600020906009020160030180549050811015611345573373ffffffffffffffffffffffffffffffffffffffff16600183815481106112bc576112bb612558565b5b906000526020600020906009020160030182815481106112df576112de612558565b5b9060005260206000200160009054906101000a900473ffffffffffffffffffffffffffffffffffffffff1673ffffffffffffffffffffffffffffffffffffffff1603611338578280611330906125b6565b935050611345565b8080600101915050611261565b508080600101915050611251565b5060008167ffffffffffffffff8111156113705761136f61204b565b5b6040519080825280602002602001820160405280156113a957816020015b6113966117d4565b81526020019060019003908161138e5790505b5090506000805b6001805490508110156117825760005b600182815481106113d4576113d3612558565b5b906000526020600020906009020160030180549050811015611774573373ffffffffffffffffffffffffffffffffffffffff166001838154811061141b5761141a612558565b5b9060005260206000209060090201600301828154811061143e5761143d612558565b5b9060005260206000200160009054906101000a900473ffffffffffffffffffffffffffffffffffffffff1673ffffffffffffffffffffffffffffffffffffffff1603611767576001828154811061149857611497612558565b5b906000526020600020906009020160405180610120016040529081600082015481526020016001820180546114cc9061262d565b80601f01602080910402602001604051908101604052809291908181526020018280546114f89061262d565b80156115455780601f1061151a57610100808354040283529160200191611545565b820191906000526020600020905b81548152906001019060200180831161152857829003601f168201915b505050505081526020016002820160009054906101000a900473ffffffffffffffffffffffffffffffffffffffff1673ffffffffffffffffffffffffffffffffffffffff1673ffffffffffffffffffffffffffffffffffffffff1681526020016003820180548060200260200160405190810160405280929190818152602001828054801561162957602002820191906000526020600020905b8160009054906101000a900473ffffffffffffffffffffffffffffffffffffffff1673ffffffffffffffffffffffffffffffffffffffff16815260200190600101908083116115df575b505050505081526020016004820180548060200260200160405190810160405280929190818152602001828054801561168157602002820191906000526020600020905b81548152602001906001019080831161166d575b505050505081526020016005820160009054906101000a900460ff161515151581526020016006820180548060200260200160405190810160405280929190818152602001828054801561171957602002820191906000526020600020906000905b82829054906101000a900460ff161515815260200190600101906020826000010492830192600103820291508084116116e35790505b505050505081526020016007820154815260200160088201548152505084848151811061174957611748612558565b5b6020026020010181905250828061175f906125b6565b935050611774565b80806001019150506113c0565b5080806001019150506113b0565b5081935050505090565b60008060008373ffffffffffffffffffffffffffffffffffffffff1673ffffffffffffffffffffffffffffffffffffffff168152602001908152602001600020549050919050565b6040518061012001604052806000815260200160608152602001600073ffffffffffffffffffffffffffffffffffffffff16815260200160608152602001606081526020016000151581526020016060815260200160008152602001600081525090565b5080546118449061262d565b6000825580601f106118565750611875565b601f0160209004906000526020600020908101906118749190611a5f565b5b50565b50805460008255906000526020600020908101906118969190611a5f565b50565b50805460008255906000526020600020908101906118b79190611a5f565b50565b50805460008255601f0160209004906000526020600020908101906118df9190611a5f565b50565b82805482825590600052602060002090810192821561195b579160200282015b8281111561195a5782518260006101000a81548173ffffffffffffffffffffffffffffffffffffffff021916908373ffffffffffffffffffffffffffffffffffffffff16021790555091602001919060010190611902565b5b5090506119689190611a5f565b5090565b8280548282559060005260206000209081019282156119a8579160200282015b828111156119a757825182559160200191906001019061198c565b5b5090506119b59190611a5f565b5090565b82805482825590600052602060002090601f01602090048101928215611a4e5791602002820160005b83821115611a1f57835183826101000a81548160ff02191690831515021790555092602001926001016020816000010492830192600103026119e2565b8015611a4c5782816101000a81549060ff0219169055600101602081600001049283019260010302611a1f565b505b509050611a5b9190611a5f565b5090565b5b80821115611a78576000816000905550600101611a60565b5090565b6000604051905090565b600080fd5b600080fd5b600073ffffffffffffffffffffffffffffffffffffffff82169050919050565b6000611abb82611a90565b9050919050565b611acb81611ab0565b8114611ad657600080fd5b50565b600081359050611ae881611ac2565b92915050565b600060208284031215611b0457611b03611a86565b5b6000611b1284828501611ad9565b91505092915050565b600081519050919050565b600082825260208201905092915050565b6000819050602082019050919050565b6000819050919050565b611b5a81611b47565b82525050565b600081519050919050565b600082825260208201905092915050565b60005b83811015611b9a578082015181840152602081019050611b7f565b60008484015250505050565b6000601f19601f8301169050919050565b6000611bc282611b60565b611bcc8185611b6b565b9350611bdc818560208601611b7c565b611be581611ba6565b840191505092915050565b611bf981611ab0565b82525050565b600081519050919050565b600082825260208201905092915050565b6000819050602082019050919050565b6000611c378383611bf0565b60208301905092915050565b6000602082019050919050565b6000611c5b82611bff565b611c658185611c0a565b9350611c7083611c1b565b8060005b83811015611ca1578151611c888882611c2b565b9750611c9383611c43565b925050600181019050611c74565b5085935050505092915050565b600081519050919050565b600082825260208201905092915050565b6000819050602082019050919050565b6000611ce68383611b51565b60208301905092915050565b6000602082019050919050565b6000611d0a82611cae565b611d148185611cb9565b9350611d1f83611cca565b8060005b83811015611d50578151611d378882611cda565b9750611d4283611cf2565b925050600181019050611d23565b5085935050505092915050565b60008115159050919050565b611d7281611d5d565b82525050565b600081519050919050565b600082825260208201905092915050565b6000819050602082019050919050565b6000611db08383611d69565b60208301905092915050565b6000602082019050919050565b6000611dd482611d78565b611dde8185611d83565b9350611de983611d94565b8060005b83811015611e1a578151611e018882611da4565b9750611e0c83611dbc565b925050600181019050611ded565b5085935050505092915050565b600061012083016000830151611e406000860182611b51565b5060208301518482036020860152611e588282611bb7565b9150506040830151611e6d6040860182611bf0565b5060608301518482036060860152611e858282611c50565b91505060808301518482036080860152611e9f8282611cff565b91505060a0830151611eb460a0860182611d69565b5060c083015184820360c0860152611ecc8282611dc9565b91505060e0830151611ee160e0860182611b51565b50610100830151611ef6610100860182611b51565b508091505092915050565b6000611f0d8383611e27565b905092915050565b6000602082019050919050565b6000611f2d82611b1b565b611f378185611b26565b935083602082028501611f4985611b37565b8060005b85811015611f855784840389528151611f668582611f01565b9450611f7183611f15565b925060208a01995050600181019050611f4d565b50829750879550505050505092915050565b60006020820190508181036000830152611fb18184611f22565b905092915050565b611fc281611b47565b8114611fcd57600080fd5b50565b600081359050611fdf81611fb9565b92915050565b600060208284031215611ffb57611ffa611a86565b5b600061200984828501611fd0565b91505092915050565b6000819050919050565b61202581612012565b82525050565b6000602082019050612040600083018461201c565b92915050565b600080fd5b7f4e487b7100000000000000000000000000000000000000000000000000000000600052604160045260246000fd5b61208382611ba6565b810181811067ffffffffffffffff821117156120a2576120a161204b565b5b80604052505050565b60006120b5611a7c565b90506120c1828261207a565b919050565b600067ffffffffffffffff8211156120e1576120e061204b565b5b602082029050602081019050919050565b600080fd5b600061210a612105846120c6565b6120ab565b9050808382526020820190506020840283018581111561212d5761212c6120f2565b5b835b8181101561215657806121428882611fd0565b84526020840193505060208101905061212f565b5050509392505050565b600082601f83011261217557612174612046565b5b81356121858482602086016120f7565b91505092915050565b600080604083850312156121a5576121a4611a86565b5b600083013567ffffffffffffffff8111156121c3576121c2611a8b565b5b6121cf85828601612160565b92505060206121e085828601611ad9565b9150509250929050565b600080fd5b600067ffffffffffffffff82111561220a5761220961204b565b5b61221382611ba6565b9050602081019050919050565b82818337600083830152505050565b600061224261223d846121ef565b6120ab565b90508281526020810184848401111561225e5761225d6121ea565b5b612269848285612220565b509392505050565b600082601f83011261228657612285612046565b5b813561229684826020860161222f565b91505092915050565b600080604083850312156122b6576122b5611a86565b5b60006122c485828601611fd0565b925050602083013567ffffffffffffffff8111156122e5576122e4611a8b565b5b6122f185828601612271565b9150509250929050565b61230481611b47565b82525050565b600082825260208201905092915050565b600061232682611b60565b612330818561230a565b9350612340818560208601611b7c565b61234981611ba6565b840191505092915050565b61235d81611ab0565b82525050565b61236c81611d5d565b82525050565b600060c08201905061238760008301896122fb565b8181036020830152612399818861231b565b90506123a86040830187612354565b6123b56060830186612363565b6123c260808301856122fb565b6123cf60a08301846122fb565b979650505050505050565b600067ffffffffffffffff8211156123f5576123f461204b565b5b602082029050602081019050919050565b6000612419612414846123da565b6120ab565b9050808382526020820190506020840283018581111561243c5761243b6120f2565b5b835b8181101561246557806124518882611ad9565b84526020840193505060208101905061243e565b5050509392505050565b600082601f83011261248457612483612046565b5b8135612494848260208601612406565b91505092915050565b600080600080608085870312156124b7576124b6611a86565b5b600085013567ffffffffffffffff8111156124d5576124d4611a8b565b5b6124e18782880161246f565b945050602085013567ffffffffffffffff81111561250257612501611a8b565b5b61250e87828801612160565b935050604085013567ffffffffffffffff81111561252f5761252e611a8b565b5b61253b87828801612271565b925050606061254c87828801611fd0565b91505092959194509250565b7f4e487b7100000000000000000000000000000000000000000000000000000000600052603260045260246000fd5b7f4e487b7100000000000000000000000000000000000000000000000000000000600052601160045260246000fd5b60006125c182611b47565b91507fffffffffffffffffffffffffffffffffffffffffffffffffffffffffffffffff82036125f3576125f2612587565b5b600182019050919050565b7f4e487b7100000000000000000000000000000000000000000000000000000000600052602260045260246000fd5b6000600282049050600182168061264557607f821691505b602082108103612658576126576125fe565b5b50919050565b7f457870656e736520646f6573206e6f7420657869737400000000000000000000600082015250565b600061269460168361230a565b915061269f8261265e565b602082019050919050565b600060208201905081810360008301526126c381612687565b9050919050565b7f4e6f20657870656e7365732070726f7669646564000000000000000000000000600082015250565b600061270060148361230a565b915061270b826126ca565b602082019050919050565b6000602082019050818103600083015261272f816126f3565b9050919050565b7f496e76616c696420757365722061646472657373000000000000000000000000600082015250565b600061276c60148361230a565b915061277782612736565b602082019050919050565b6000602082019050818103600083015261279b8161275f565b9050919050565b7f55736572206973206e6f7420696e766f6c76656420696e20746869732065787060008201527f656e736500000000000000000000000000000000000000000000000000000000602082015250565b60006127fe60248361230a565b9150612809826127a2565b604082019050919050565b6000602082019050818103600083015261282d816127f1565b9050919050565b7f557365722068617320616c7265616479206265656e206d61726b65642061732060008201527f7061696400000000000000000000000000000000000000000000000000000000602082015250565b600061289060248361230a565b915061289b82612834565b604082019050919050565b600060208201905081810360008301526128bf81612883565b9050919050565b60006128d182612012565b91506128dc83612012565b925082820390508181126000841216828213600085121516171561290357612902612587565b5b92915050565b60008190508160005260206000209050919050565b60006020601f8301049050919050565b600082821b905092915050565b60006008830261296b7fffffffffffffffffffffffffffffffffffffffffffffffffffffffffffffffff8261292e565b612975868361292e565b95508019841693508086168417925050509392505050565b6000819050919050565b60006129b26129ad6129a884611b47565b61298d565b611b47565b9050919050565b6000819050919050565b6129cc83612997565b6129e06129d8826129b9565b84845461293b565b825550505050565b600090565b6129f56129e8565b612a008184846129c3565b505050565b5b81811015612a2457612a196000826129ed565b600181019050612a06565b5050565b601f821115612a6957612a3a81612909565b612a438461291e565b81016020851015612a52578190505b612a66612a5e8561291e565b830182612a05565b50505b505050565b600082821c905092915050565b6000612a8c60001984600802612a6e565b1980831691505092915050565b6000612aa58383612a7b565b9150826002028217905092915050565b612abe82611b60565b67ffffffffffffffff811115612ad757612ad661204b565b5b612ae1825461262d565b612aec828285612a28565b600060209050601f831160018114612b1f5760008415612b0d578287015190505b612b178582612a99565b865550612b7f565b601f198416612b2d86612909565b60005b82811015612b5557848901518255600182019150602085019450602081019050612b30565b86831015612b725784890151612b6e601f891682612a7b565b8355505b6001600288020188555050505b505050505050565b7f457870656e736520616c726561647920736574746c6564000000000000000000600082015250565b6000612bbd60178361230a565b9150612bc882612b87565b602082019050919050565b60006020820190508181036000830152612bec81612bb0565b9050919050565b6000602082019050612c0860008301846122fb565b92915050565b7f4d69736d61746368656420617272617973000000000000000000000000000000600082015250565b6000612c4460118361230a565b9150612c4f82612c0e565b602082019050919050565b60006020820190508181036000830152612c7381612c37565b9050919050565b6000612c8582612012565b9150612c9083612012565b925082820190508281121560008312168382126000841215161715612cb857612cb7612587565b5b9291505056fea2646970667358221220e1fe2d4d03963e84be64ffdae3a11bd97ffda4d6ce86e0f26e08b7348d6c452c64736f6c634300081b0033","opcodes":"PUSH1 0x80 PUSH1 0x40 MSTORE CALLVALUE DUP1 ISZERO PUSH1 0xF JUMPI PUSH1 0x0 DUP1 REVERT JUMPDEST POP PUSH2 0x2CF4 DUP1 PUSH2 0x1F PUSH1 0x0 CODECOPY PUSH1 0x0 RETURN INVALID PUSH1 0x80 PUSH1 0x40 MSTORE CALLVALUE DUP1 ISZERO PUSH2 0x10 JUMPI PUSH1 0x0 DUP1 REVERT JUMPDEST POP PUSH1 0x4 CALLDATASIZE LT PUSH2 0x9E JUMPI PUSH1 0x0 CALLDATALOAD PUSH1 0xE0 SHR DUP1 PUSH4 0xAF4AFE0A GT PUSH2 0x66 JUMPI DUP1 PUSH4 0xAF4AFE0A EQ PUSH2 0x157 JUMPI DUP1 PUSH4 0xC0A7540B EQ PUSH2 0x18C JUMPI DUP1 PUSH4 0xCC2DFB03 EQ PUSH2 0x1A8 JUMPI DUP1 PUSH4 0xD7821B93 EQ PUSH2 0x1C4 JUMPI DUP1 PUSH4 0xF8B2CB4F EQ PUSH2 0x1E2 JUMPI PUSH2 0x9E JUMP JUMPDEST DUP1 PUSH4 0x697CA06 EQ PUSH2 0xA3 JUMPI DUP1 PUSH4 0xA46AE49 EQ PUSH2 0xD3 JUMPI DUP1 PUSH4 0x27E235E3 EQ PUSH2 0xEF JUMPI DUP1 PUSH4 0x5D98878C EQ PUSH2 0x11F JUMPI DUP1 PUSH4 0x7512DBAA EQ PUSH2 0x13B JUMPI JUMPDEST PUSH1 0x0 DUP1 REVERT JUMPDEST PUSH2 0xBD PUSH1 0x4 DUP1 CALLDATASIZE SUB DUP2 ADD SWAP1 PUSH2 0xB8 SWAP2 SWAP1 PUSH2 0x1AEE JUMP JUMPDEST PUSH2 0x212 JUMP JUMPDEST PUSH1 0x40 MLOAD PUSH2 0xCA SWAP2 SWAP1 PUSH2 0x1F97 JUMP JUMPDEST PUSH1 0x40 MLOAD DUP1 SWAP2 SUB SWAP1 RETURN JUMPDEST PUSH2 0xED PUSH1 0x4 DUP1 CALLDATASIZE SUB DUP2 ADD SWAP1 PUSH2 0xE8 SWAP2 SWAP1 PUSH2 0x1FE5 JUMP JUMPDEST PUSH2 0x693 JUMP JUMPDEST STOP JUMPDEST PUSH2 0x109 PUSH1 0x4 DUP1 CALLDATASIZE SUB DUP2 ADD SWAP1 PUSH2 0x104 SWAP2 SWAP1 PUSH2 0x1AEE JUMP JUMPDEST PUSH2 0x795 JUMP JUMPDEST PUSH1 0x40 MLOAD PUSH2 0x116 SWAP2 SWAP1 PUSH2 0x202B JUMP JUMPDEST PUSH1 0x40 MLOAD DUP1 SWAP2 SUB SWAP1 RETURN JUMPDEST PUSH2 0x139 PUSH1 0x4 DUP1 CALLDATASIZE SUB DUP2 ADD SWAP1 PUSH2 0x134 SWAP2 SWAP1 PUSH2 0x218E JUMP JUMPDEST PUSH2 0x7AD JUMP JUMPDEST STOP JUMPDEST PUSH2 0x155 PUSH1 0x4 DUP1 CALLDATASIZE SUB DUP2 ADD SWAP1 PUSH2 0x150 SWAP2 SWAP1 PUSH2 0x229F JUMP JUMPDEST PUSH2 0xCA4 JUMP JUMPDEST STOP JUMPDEST PUSH2 0x171 PUSH1 0x4 DUP1 CALLDATASIZE SUB DUP2 ADD SWAP1 PUSH2 0x16C SWAP2 SWAP1 PUSH2 0x1FE5 JUMP JUMPDEST PUSH2 0xD22 JUMP JUMPDEST PUSH1 0x40 MLOAD PUSH2 0x183 SWAP7 SWAP6 SWAP5 SWAP4 SWAP3 SWAP2 SWAP1 PUSH2 0x2372 JUMP JUMPDEST PUSH1 0x40 MLOAD DUP1 SWAP2 SUB SWAP1 RETURN JUMPDEST PUSH2 0x1A6 PUSH1 0x4 DUP1 CALLDATASIZE SUB DUP2 ADD SWAP1 PUSH2 0x1A1 SWAP2 SWAP1 PUSH2 0x1FE5 JUMP JUMPDEST PUSH2 0xE23 JUMP JUMPDEST STOP JUMPDEST PUSH2 0x1C2 PUSH1 0x4 DUP1 CALLDATASIZE SUB DUP2 ADD SWAP1 PUSH2 0x1BD SWAP2 SWAP1 PUSH2 0x249D JUMP JUMPDEST PUSH2 0xF54 JUMP JUMPDEST STOP JUMPDEST PUSH2 0x1CC PUSH2 0x124B JUMP JUMPDEST PUSH1 0x40 MLOAD PUSH2 0x1D9 SWAP2 SWAP1 PUSH2 0x1F97 JUMP JUMPDEST PUSH1 0x40 MLOAD DUP1 SWAP2 SUB SWAP1 RETURN JUMPDEST PUSH2 0x1FC PUSH1 0x4 DUP1 CALLDATASIZE SUB DUP2 ADD SWAP1 PUSH2 0x1F7 SWAP2 SWAP1 PUSH2 0x1AEE JUMP JUMPDEST PUSH2 0x178C JUMP JUMPDEST PUSH1 0x40 MLOAD PUSH2 0x209 SWAP2 SWAP1 PUSH2 0x202B JUMP JUMPDEST PUSH1 0x40 MLOAD DUP1 SWAP2 SUB SWAP1 RETURN JUMPDEST PUSH1 0x60 PUSH1 0x0 DUP1 JUMPDEST PUSH1 0x1 DUP1 SLOAD SWAP1 POP DUP2 LT ISZERO PUSH2 0x2B9 JUMPI DUP4 PUSH20 0xFFFFFFFFFFFFFFFFFFFFFFFFFFFFFFFFFFFFFFFF AND PUSH1 0x1 DUP3 DUP2 SLOAD DUP2 LT PUSH2 0x250 JUMPI PUSH2 0x24F PUSH2 0x2558 JUMP JUMPDEST JUMPDEST SWAP1 PUSH1 0x0 MSTORE PUSH1 0x20 PUSH1 0x0 KECCAK256 SWAP1 PUSH1 0x9 MUL ADD PUSH1 0x2 ADD PUSH1 0x0 SWAP1 SLOAD SWAP1 PUSH2 0x100 EXP SWAP1 DIV PUSH20 0xFFFFFFFFFFFFFFFFFFFFFFFFFFFFFFFFFFFFFFFF AND PUSH20 0xFFFFFFFFFFFFFFFFFFFFFFFFFFFFFFFFFFFFFFFF AND SUB PUSH2 0x2AC JUMPI DUP2 DUP1 PUSH2 0x2A8 SWAP1 PUSH2 0x25B6 JUMP JUMPDEST SWAP3 POP POP JUMPDEST DUP1 DUP1 PUSH1 0x1 ADD SWAP2 POP POP PUSH2 0x218 JUMP JUMPDEST POP PUSH1 0x0 DUP2 PUSH8 0xFFFFFFFFFFFFFFFF DUP2 GT ISZERO PUSH2 0x2D6 JUMPI PUSH2 0x2D5 PUSH2 0x204B JUMP JUMPDEST JUMPDEST PUSH1 0x40 MLOAD SWAP1 DUP1 DUP3 MSTORE DUP1 PUSH1 0x20 MUL PUSH1 0x20 ADD DUP3 ADD PUSH1 0x40 MSTORE DUP1 ISZERO PUSH2 0x30F JUMPI DUP2 PUSH1 0x20 ADD JUMPDEST PUSH2 0x2FC PUSH2 0x17D4 JUMP JUMPDEST DUP2 MSTORE PUSH1 0x20 ADD SWAP1 PUSH1 0x1 SWAP1 SUB SWAP1 DUP2 PUSH2 0x2F4 JUMPI SWAP1 POP JUMPDEST POP SWAP1 POP PUSH1 0x0 DUP1 JUMPDEST PUSH1 0x1 DUP1 SLOAD SWAP1 POP DUP2 LT ISZERO PUSH2 0x687 JUMPI DUP6 PUSH20 0xFFFFFFFFFFFFFFFFFFFFFFFFFFFFFFFFFFFFFFFF AND PUSH1 0x1 DUP3 DUP2 SLOAD DUP2 LT PUSH2 0x34E JUMPI PUSH2 0x34D PUSH2 0x2558 JUMP JUMPDEST JUMPDEST SWAP1 PUSH1 0x0 MSTORE PUSH1 0x20 PUSH1 0x0 KECCAK256 SWAP1 PUSH1 0x9 MUL ADD PUSH1 0x2 ADD PUSH1 0x0 SWAP1 SLOAD SWAP1 PUSH2 0x100 EXP SWAP1 DIV PUSH20 0xFFFFFFFFFFFFFFFFFFFFFFFFFFFFFFFFFFFFFFFF AND PUSH20 0xFFFFFFFFFFFFFFFFFFFFFFFFFFFFFFFFFFFFFFFF AND SUB PUSH2 0x67A JUMPI PUSH1 0x1 DUP2 DUP2 SLOAD DUP2 LT PUSH2 0x3AF JUMPI PUSH2 0x3AE PUSH2 0x2558 JUMP JUMPDEST JUMPDEST SWAP1 PUSH1 0x0 MSTORE PUSH1 0x20 PUSH1 0x0 KECCAK256 SWAP1 PUSH1 0x9 MUL ADD PUSH1 0x40 MLOAD DUP1 PUSH2 0x120 ADD PUSH1 0x40 MSTORE SWAP1 DUP2 PUSH1 0x0 DUP3 ADD SLOAD DUP2 MSTORE PUSH1 0x20 ADD PUSH1 0x1 DUP3 ADD DUP1 SLOAD PUSH2 0x3E3 SWAP1 PUSH2 0x262D JUMP JUMPDEST DUP1 PUSH1 0x1F ADD PUSH1 0x20 DUP1 SWAP2 DIV MUL PUSH1 0x20 ADD PUSH1 0x40 MLOAD SWAP1 DUP2 ADD PUSH1 0x40 MSTORE DUP1 SWAP3 SWAP2 SWAP1 DUP2 DUP2 MSTORE PUSH1 0x20 ADD DUP3 DUP1 SLOAD PUSH2 0x40F SWAP1 PUSH2 0x262D JUMP JUMPDEST DUP1 ISZERO PUSH2 0x45C JUMPI DUP1 PUSH1 0x1F LT PUSH2 0x431 JUMPI PUSH2 0x100 DUP1 DUP4 SLOAD DIV MUL DUP4 MSTORE SWAP2 PUSH1 0x20 ADD SWAP2 PUSH2 0x45C JUMP JUMPDEST DUP3 ADD SWAP2 SWAP1 PUSH1 0x0 MSTORE PUSH1 0x20 PUSH1 0x0 KECCAK256 SWAP1 JUMPDEST DUP2 SLOAD DUP2 MSTORE SWAP1 PUSH1 0x1 ADD SWAP1 PUSH1 0x20 ADD DUP1 DUP4 GT PUSH2 0x43F JUMPI DUP3 SWAP1 SUB PUSH1 0x1F AND DUP3 ADD SWAP2 JUMPDEST POP POP POP POP POP DUP2 MSTORE PUSH1 0x20 ADD PUSH1 0x2 DUP3 ADD PUSH1 0x0 SWAP1 SLOAD SWAP1 PUSH2 0x100 EXP SWAP1 DIV PUSH20 0xFFFFFFFFFFFFFFFFFFFFFFFFFFFFFFFFFFFFFFFF AND PUSH20 0xFFFFFFFFFFFFFFFFFFFFFFFFFFFFFFFFFFFFFFFF AND PUSH20 0xFFFFFFFFFFFFFFFFFFFFFFFFFFFFFFFFFFFFFFFF AND DUP2 MSTORE PUSH1 0x20 ADD PUSH1 0x3 DUP3 ADD DUP1 SLOAD DUP1 PUSH1 0x20 MUL PUSH1 0x20 ADD PUSH1 0x40 MLOAD SWAP1 DUP2 ADD PUSH1 0x40 MSTORE DUP1 SWAP3 SWAP2 SWAP1 DUP2 DUP2 MSTORE PUSH1 0x20 ADD DUP3 DUP1 SLOAD DUP1 ISZERO PUSH2 0x540 JUMPI PUSH1 0x20 MUL DUP3 ADD SWAP2 SWAP1 PUSH1 0x0 MSTORE PUSH1 0x20 PUSH1 0x0 KECCAK256 SWAP1 JUMPDEST DUP2 PUSH1 0x0 SWAP1 SLOAD SWAP1 PUSH2 0x100 EXP SWAP1 DIV PUSH20 0xFFFFFFFFFFFFFFFFFFFFFFFFFFFFFFFFFFFFFFFF AND PUSH20 0xFFFFFFFFFFFFFFFFFFFFFFFFFFFFFFFFFFFFFFFF AND DUP2 MSTORE PUSH1 0x20 ADD SWAP1 PUSH1 0x1 ADD SWAP1 DUP1 DUP4 GT PUSH2 0x4F6 JUMPI JUMPDEST POP POP POP POP POP DUP2 MSTORE PUSH1 0x20 ADD PUSH1 0x4 DUP3 ADD DUP1 SLOAD DUP1 PUSH1 0x20 MUL PUSH1 0x20 ADD PUSH1 0x40 MLOAD SWAP1 DUP2 ADD PUSH1 0x40 MSTORE DUP1 SWAP3 SWAP2 SWAP1 DUP2 DUP2 MSTORE PUSH1 0x20 ADD DUP3 DUP1 SLOAD DUP1 ISZERO PUSH2 0x598 JUMPI PUSH1 0x20 MUL DUP3 ADD SWAP2 SWAP1 PUSH1 0x0 MSTORE PUSH1 0x20 PUSH1 0x0 KECCAK256 SWAP1 JUMPDEST DUP2 SLOAD DUP2 MSTORE PUSH1 0x20 ADD SWAP1 PUSH1 0x1 ADD SWAP1 DUP1 DUP4 GT PUSH2 0x584 JUMPI JUMPDEST POP POP POP POP POP DUP2 MSTORE PUSH1 0x20 ADD PUSH1 0x5 DUP3 ADD PUSH1 0x0 SWAP1 SLOAD SWAP1 PUSH2 0x100 EXP SWAP1 DIV PUSH1 0xFF AND ISZERO ISZERO ISZERO ISZERO DUP2 MSTORE PUSH1 0x20 ADD PUSH1 0x6 DUP3 ADD DUP1 SLOAD DUP1 PUSH1 0x20 MUL PUSH1 0x20 ADD PUSH1 0x40 MLOAD SWAP1 DUP2 ADD PUSH1 0x40 MSTORE DUP1 SWAP3 SWAP2 SWAP1 DUP2 DUP2 MSTORE PUSH1 0x20 ADD DUP3 DUP1 SLOAD DUP1 ISZERO PUSH2 0x630 JUMPI PUSH1 0x20 MUL DUP3 ADD SWAP2 SWAP1 PUSH1 0x0 MSTORE PUSH1 0x20 PUSH1 0x0 KECCAK256 SWAP1 PUSH1 0x0 SWAP1 JUMPDEST DUP3 DUP3 SWAP1 SLOAD SWAP1 PUSH2 0x100 EXP SWAP1 DIV PUSH1 0xFF AND ISZERO ISZERO DUP2 MSTORE PUSH1 0x20 ADD SWAP1 PUSH1 0x1 ADD SWAP1 PUSH1 0x20 DUP3 PUSH1 0x0 ADD DIV SWAP3 DUP4 ADD SWAP3 PUSH1 0x1 SUB DUP3 MUL SWAP2 POP DUP1 DUP5 GT PUSH2 0x5FA JUMPI SWAP1 POP JUMPDEST POP POP POP POP POP DUP2 MSTORE PUSH1 0x20 ADD PUSH1 0x7 DUP3 ADD SLOAD DUP2 MSTORE PUSH1 0x20 ADD PUSH1 0x8 DUP3 ADD SLOAD DUP2 MSTORE POP POP DUP4 DUP4 DUP2 MLOAD DUP2 LT PUSH2 0x660 JUMPI PUSH2 0x65F PUSH2 0x2558 JUMP JUMPDEST JUMPDEST PUSH1 0x20 MUL PUSH1 0x20 ADD ADD DUP2 SWAP1 MSTORE POP DUP2 DUP1 PUSH2 0x676 SWAP1 PUSH2 0x25B6 JUMP JUMPDEST SWAP3 POP POP JUMPDEST DUP1 DUP1 PUSH1 0x1 ADD SWAP2 POP POP PUSH2 0x316 JUMP JUMPDEST POP DUP2 SWAP4 POP POP POP POP SWAP2 SWAP1 POP JUMP JUMPDEST PUSH1 0x1 DUP1 SLOAD SWAP1 POP DUP2 LT PUSH2 0x6DA JUMPI PUSH1 0x40 MLOAD PUSH32 0x8C379A000000000000000000000000000000000000000000000000000000000 DUP2 MSTORE PUSH1 0x4 ADD PUSH2 0x6D1 SWAP1 PUSH2 0x26AA JUMP JUMPDEST PUSH1 0x40 MLOAD DUP1 SWAP2 SUB SWAP1 REVERT JUMPDEST PUSH1 0x1 DUP2 DUP2 SLOAD DUP2 LT PUSH2 0x6EE JUMPI PUSH2 0x6ED PUSH2 0x2558 JUMP JUMPDEST JUMPDEST SWAP1 PUSH1 0x0 MSTORE PUSH1 0x20 PUSH1 0x0 KECCAK256 SWAP1 PUSH1 0x9 MUL ADD PUSH1 0x0 DUP1 DUP3 ADD PUSH1 0x0 SWAP1 SSTORE PUSH1 0x1 DUP3 ADD PUSH1 0x0 PUSH2 0x715 SWAP2 SWAP1 PUSH2 0x1838 JUMP JUMPDEST PUSH1 0x2 DUP3 ADD PUSH1 0x0 PUSH2 0x100 EXP DUP2 SLOAD SWAP1 PUSH20 0xFFFFFFFFFFFFFFFFFFFFFFFFFFFFFFFFFFFFFFFF MUL NOT AND SWAP1 SSTORE PUSH1 0x3 DUP3 ADD PUSH1 0x0 PUSH2 0x74C SWAP2 SWAP1 PUSH2 0x1878 JUMP JUMPDEST PUSH1 0x4 DUP3 ADD PUSH1 0x0 PUSH2 0x75C SWAP2 SWAP1 PUSH2 0x1899 JUMP JUMPDEST PUSH1 0x5 DUP3 ADD PUSH1 0x0 PUSH2 0x100 EXP DUP2 SLOAD SWAP1 PUSH1 0xFF MUL NOT AND SWAP1 SSTORE PUSH1 0x6 DUP3 ADD PUSH1 0x0 PUSH2 0x780 SWAP2 SWAP1 PUSH2 0x18BA JUMP JUMPDEST PUSH1 0x7 DUP3 ADD PUSH1 0x0 SWAP1 SSTORE PUSH1 0x8 DUP3 ADD PUSH1 0x0 SWAP1 SSTORE POP POP POP JUMP JUMPDEST PUSH1 0x0 PUSH1 0x20 MSTORE DUP1 PUSH1 0x0 MSTORE PUSH1 0x40 PUSH1 0x0 KECCAK256 PUSH1 0x0 SWAP2 POP SWAP1 POP SLOAD DUP2 JUMP JUMPDEST PUSH1 0x0 DUP3 MLOAD GT PUSH2 0x7F1 JUMPI PUSH1 0x40 MLOAD PUSH32 0x8C379A000000000000000000000000000000000000000000000000000000000 DUP2 MSTORE PUSH1 0x4 ADD PUSH2 0x7E8 SWAP1 PUSH2 0x2716 JUMP JUMPDEST PUSH1 0x40 MLOAD DUP1 SWAP2 SUB SWAP1 REVERT JUMPDEST PUSH1 0x0 PUSH20 0xFFFFFFFFFFFFFFFFFFFFFFFFFFFFFFFFFFFFFFFF AND DUP2 PUSH20 0xFFFFFFFFFFFFFFFFFFFFFFFFFFFFFFFFFFFFFFFF AND SUB PUSH2 0x860 JUMPI PUSH1 0x40 MLOAD PUSH32 0x8C379A000000000000000000000000000000000000000000000000000000000 DUP2 MSTORE PUSH1 0x4 ADD PUSH2 0x857 SWAP1 PUSH2 0x2782 JUMP JUMPDEST PUSH1 0x40 MLOAD DUP1 SWAP2 SUB SWAP1 REVERT JUMPDEST PUSH1 0x0 DUP1 JUMPDEST DUP4 MLOAD DUP2 LT ISZERO PUSH2 0xC9B JUMPI PUSH1 0x0 DUP5 DUP3 DUP2 MLOAD DUP2 LT PUSH2 0x882 JUMPI PUSH2 0x881 PUSH2 0x2558 JUMP JUMPDEST JUMPDEST PUSH1 0x20 MUL PUSH1 0x20 ADD ADD MLOAD SWAP1 POP PUSH1 0x1 DUP1 SLOAD SWAP1 POP DUP2 LT PUSH2 0x8D3 JUMPI PUSH1 0x40 MLOAD PUSH32 0x8C379A000000000000000000000000000000000000000000000000000000000 DUP2 MSTORE PUSH1 0x4 ADD PUSH2 0x8CA SWAP1 PUSH2 0x26AA JUMP JUMPDEST PUSH1 0x40 MLOAD DUP1 SWAP2 SUB SWAP1 REVERT JUMPDEST PUSH1 0x0 DUP1 PUSH1 0x0 JUMPDEST PUSH1 0x1 DUP5 DUP2 SLOAD DUP2 LT PUSH2 0x8ED JUMPI PUSH2 0x8EC PUSH2 0x2558 JUMP JUMPDEST JUMPDEST SWAP1 PUSH1 0x0 MSTORE PUSH1 0x20 PUSH1 0x0 KECCAK256 SWAP1 PUSH1 0x9 MUL ADD PUSH1 0x3 ADD DUP1 SLOAD SWAP1 POP DUP2 LT ISZERO PUSH2 0x9B6 JUMPI DUP7 PUSH20 0xFFFFFFFFFFFFFFFFFFFFFFFFFFFFFFFFFFFFFFFF AND PUSH1 0x1 DUP6 DUP2 SLOAD DUP2 LT PUSH2 0x934 JUMPI PUSH2 0x933 PUSH2 0x2558 JUMP JUMPDEST JUMPDEST SWAP1 PUSH1 0x0 MSTORE PUSH1 0x20 PUSH1 0x0 KECCAK256 SWAP1 PUSH1 0x9 MUL ADD PUSH1 0x3 ADD DUP3 DUP2 SLOAD DUP2 LT PUSH2 0x957 JUMPI PUSH2 0x956 PUSH2 0x2558 JUMP JUMPDEST JUMPDEST SWAP1 PUSH1 0x0 MSTORE PUSH1 0x20 PUSH1 0x0 KECCAK256 ADD PUSH1 0x0 SWAP1 SLOAD SWAP1 PUSH2 0x100 EXP SWAP1 DIV PUSH20 0xFFFFFFFFFFFFFFFFFFFFFFFFFFFFFFFFFFFFFFFF AND PUSH20 0xFFFFFFFFFFFFFFFFFFFFFFFFFFFFFFFFFFFFFFFF AND SUB PUSH2 0x9A9 JUMPI DUP1 SWAP2 POP PUSH1 0x1 SWAP3 POP PUSH2 0x9B6 JUMP JUMPDEST DUP1 DUP1 PUSH1 0x1 ADD SWAP2 POP POP PUSH2 0x8D9 JUMP JUMPDEST POP DUP2 PUSH2 0x9F7 JUMPI PUSH1 0x40 MLOAD PUSH32 0x8C379A000000000000000000000000000000000000000000000000000000000 DUP2 MSTORE PUSH1 0x4 ADD PUSH2 0x9EE SWAP1 PUSH2 0x2814 JUMP JUMPDEST PUSH1 0x40 MLOAD DUP1 SWAP2 SUB SWAP1 REVERT JUMPDEST PUSH1 0x1 DUP4 DUP2 SLOAD DUP2 LT PUSH2 0xA0B JUMPI PUSH2 0xA0A PUSH2 0x2558 JUMP JUMPDEST JUMPDEST SWAP1 PUSH1 0x0 MSTORE PUSH1 0x20 PUSH1 0x0 KECCAK256 SWAP1 PUSH1 0x9 MUL ADD PUSH1 0x6 ADD DUP2 DUP2 SLOAD DUP2 LT PUSH2 0xA2E JUMPI PUSH2 0xA2D PUSH2 0x2558 JUMP JUMPDEST JUMPDEST SWAP1 PUSH1 0x0 MSTORE PUSH1 0x20 PUSH1 0x0 KECCAK256 SWAP1 PUSH1 0x20 SWAP2 DUP3 DUP3 DIV ADD SWAP2 SWAP1 MOD SWAP1 SLOAD SWAP1 PUSH2 0x100 EXP SWAP1 DIV PUSH1 0xFF AND ISZERO PUSH2 0xA8E JUMPI PUSH1 0x40 MLOAD PUSH32 0x8C379A000000000000000000000000000000000000000000000000000000000 DUP2 MSTORE PUSH1 0x4 ADD PUSH2 0xA85 SWAP1 PUSH2 0x28A6 JUMP JUMPDEST PUSH1 0x40 MLOAD DUP1 SWAP2 SUB SWAP1 REVERT JUMPDEST PUSH1 0x1 DUP4 DUP2 SLOAD DUP2 LT PUSH2 0xAA2 JUMPI PUSH2 0xAA1 PUSH2 0x2558 JUMP JUMPDEST JUMPDEST SWAP1 PUSH1 0x0 MSTORE PUSH1 0x20 PUSH1 0x0 KECCAK256 SWAP1 PUSH1 0x9 MUL ADD PUSH1 0x4 ADD DUP2 DUP2 SLOAD DUP2 LT PUSH2 0xAC5 JUMPI PUSH2 0xAC4 PUSH2 0x2558 JUMP JUMPDEST JUMPDEST SWAP1 PUSH1 0x0 MSTORE PUSH1 0x20 PUSH1 0x0 KECCAK256 ADD SLOAD PUSH1 0x0 DUP1 DUP9 PUSH20 0xFFFFFFFFFFFFFFFFFFFFFFFFFFFFFFFFFFFFFFFF AND PUSH20 0xFFFFFFFFFFFFFFFFFFFFFFFFFFFFFFFFFFFFFFFF AND DUP2 MSTORE PUSH1 0x20 ADD SWAP1 DUP2 MSTORE PUSH1 0x20 ADD PUSH1 0x0 KECCAK256 PUSH1 0x0 DUP3 DUP3 SLOAD PUSH2 0xB1D SWAP2 SWAP1 PUSH2 0x28C6 JUMP JUMPDEST SWAP3 POP POP DUP2 SWAP1 SSTORE POP PUSH1 0x1 DUP1 DUP5 DUP2 SLOAD DUP2 LT PUSH2 0xB39 JUMPI PUSH2 0xB38 PUSH2 0x2558 JUMP JUMPDEST JUMPDEST SWAP1 PUSH1 0x0 MSTORE PUSH1 0x20 PUSH1 0x0 KECCAK256 SWAP1 PUSH1 0x9 MUL ADD PUSH1 0x6 ADD DUP3 DUP2 SLOAD DUP2 LT PUSH2 0xB5C JUMPI PUSH2 0xB5B PUSH2 0x2558 JUMP JUMPDEST JUMPDEST SWAP1 PUSH1 0x0 MSTORE PUSH1 0x20 PUSH1 0x0 KECCAK256 SWAP1 PUSH1 0x20 SWAP2 DUP3 DUP3 DIV ADD SWAP2 SWAP1 MOD PUSH2 0x100 EXP DUP2 SLOAD DUP2 PUSH1 0xFF MUL NOT AND SWAP1 DUP4 ISZERO ISZERO MUL OR SWAP1 SSTORE POP PUSH1 0x0 PUSH1 0x1 SWAP1 POP PUSH1 0x0 JUMPDEST PUSH1 0x1 DUP6 DUP2 SLOAD DUP2 LT PUSH2 0xBA2 JUMPI PUSH2 0xBA1 PUSH2 0x2558 JUMP JUMPDEST JUMPDEST SWAP1 PUSH1 0x0 MSTORE PUSH1 0x20 PUSH1 0x0 KECCAK256 SWAP1 PUSH1 0x9 MUL ADD PUSH1 0x6 ADD DUP1 SLOAD SWAP1 POP DUP2 LT ISZERO PUSH2 0xC2F JUMPI PUSH1 0x1 DUP6 DUP2 SLOAD DUP2 LT PUSH2 0xBD2 JUMPI PUSH2 0xBD1 PUSH2 0x2558 JUMP JUMPDEST JUMPDEST SWAP1 PUSH1 0x0 MSTORE PUSH1 0x20 PUSH1 0x0 KECCAK256 SWAP1 PUSH1 0x9 MUL ADD PUSH1 0x6 ADD DUP2 DUP2 SLOAD DUP2 LT PUSH2 0xBF5 JUMPI PUSH2 0xBF4 PUSH2 0x2558 JUMP JUMPDEST JUMPDEST SWAP1 PUSH1 0x0 MSTORE PUSH1 0x20 PUSH1 0x0 KECCAK256 SWAP1 PUSH1 0x20 SWAP2 DUP3 DUP3 DIV ADD SWAP2 SWAP1 MOD SWAP1 SLOAD SWAP1 PUSH2 0x100 EXP SWAP1 DIV PUSH1 0xFF AND PUSH2 0xC22 JUMPI PUSH1 0x0 SWAP2 POP PUSH2 0xC2F JUMP JUMPDEST DUP1 DUP1 PUSH1 0x1 ADD SWAP2 POP POP PUSH2 0xB8E JUMP JUMPDEST POP DUP1 DUP1 ISZERO PUSH2 0xC6D JUMPI POP PUSH1 0x1 DUP5 DUP2 SLOAD DUP2 LT PUSH2 0xC4C JUMPI PUSH2 0xC4B PUSH2 0x2558 JUMP JUMPDEST JUMPDEST SWAP1 PUSH1 0x0 MSTORE PUSH1 0x20 PUSH1 0x0 KECCAK256 SWAP1 PUSH1 0x9 MUL ADD PUSH1 0x5 ADD PUSH1 0x0 SWAP1 SLOAD SWAP1 PUSH2 0x100 EXP SWAP1 DIV PUSH1 0xFF AND ISZERO JUMPDEST ISZERO PUSH2 0xC7C JUMPI PUSH2 0xC7B DUP5 PUSH2 0xE23 JUMP JUMPDEST JUMPDEST DUP6 DUP1 PUSH2 0xC87 SWAP1 PUSH2 0x25B6 JUMP JUMPDEST SWAP7 POP POP POP POP POP POP DUP1 DUP1 PUSH1 0x1 ADD SWAP2 POP POP PUSH2 0x864 JUMP JUMPDEST POP DUP3 MLOAD POP POP POP POP JUMP JUMPDEST PUSH1 0x1 DUP1 SLOAD SWAP1 POP DUP3 LT PUSH2 0xCEB JUMPI PUSH1 0x40 MLOAD PUSH32 0x8C379A000000000000000000000000000000000000000000000000000000000 DUP2 MSTORE PUSH1 0x4 ADD PUSH2 0xCE2 SWAP1 PUSH2 0x26AA JUMP JUMPDEST PUSH1 0x40 MLOAD DUP1 SWAP2 SUB SWAP1 REVERT JUMPDEST DUP1 PUSH1 0x1 DUP4 DUP2 SLOAD DUP2 LT PUSH2 0xD00 JUMPI PUSH2 0xCFF PUSH2 0x2558 JUMP JUMPDEST JUMPDEST SWAP1 PUSH1 0x0 MSTORE PUSH1 0x20 PUSH1 0x0 KECCAK256 SWAP1 PUSH1 0x9 MUL ADD PUSH1 0x1 ADD SWAP1 DUP2 PUSH2 0xD1D SWAP2 SWAP1 PUSH2 0x2AB5 JUMP JUMPDEST POP POP POP JUMP JUMPDEST PUSH1 0x1 DUP2 DUP2 SLOAD DUP2 LT PUSH2 0xD32 JUMPI PUSH1 0x0 DUP1 REVERT JUMPDEST SWAP1 PUSH1 0x0 MSTORE PUSH1 0x20 PUSH1 0x0 KECCAK256 SWAP1 PUSH1 0x9 MUL ADD PUSH1 0x0 SWAP2 POP SWAP1 POP DUP1 PUSH1 0x0 ADD SLOAD SWAP1 DUP1 PUSH1 0x1 ADD DUP1 SLOAD PUSH2 0xD5B SWAP1 PUSH2 0x262D JUMP JUMPDEST DUP1 PUSH1 0x1F ADD PUSH1 0x20 DUP1 SWAP2 DIV MUL PUSH1 0x20 ADD PUSH1 0x40 MLOAD SWAP1 DUP2 ADD PUSH1 0x40 MSTORE DUP1 SWAP3 SWAP2 SWAP1 DUP2 DUP2 MSTORE PUSH1 0x20 ADD DUP3 DUP1 SLOAD PUSH2 0xD87 SWAP1 PUSH2 0x262D JUMP JUMPDEST DUP1 ISZERO PUSH2 0xDD4 JUMPI DUP1 PUSH1 0x1F LT PUSH2 0xDA9 JUMPI PUSH2 0x100 DUP1 DUP4 SLOAD DIV MUL DUP4 MSTORE SWAP2 PUSH1 0x20 ADD SWAP2 PUSH2 0xDD4 JUMP JUMPDEST DUP3 ADD SWAP2 SWAP1 PUSH1 0x0 MSTORE PUSH1 0x20 PUSH1 0x0 KECCAK256 SWAP1 JUMPDEST DUP2 SLOAD DUP2 MSTORE SWAP1 PUSH1 0x1 ADD SWAP1 PUSH1 0x20 ADD DUP1 DUP4 GT PUSH2 0xDB7 JUMPI DUP3 SWAP1 SUB PUSH1 0x1F AND DUP3 ADD SWAP2 JUMPDEST POP POP POP POP POP SWAP1 DUP1 PUSH1 0x2 ADD PUSH1 0x0 SWAP1 SLOAD SWAP1 PUSH2 0x100 EXP SWAP1 DIV PUSH20 0xFFFFFFFFFFFFFFFFFFFFFFFFFFFFFFFFFFFFFFFF AND SWAP1 DUP1 PUSH1 0x5 ADD PUSH1 0x0 SWAP1 SLOAD SWAP1 PUSH2 0x100 EXP SWAP1 DIV PUSH1 0xFF AND SWAP1 DUP1 PUSH1 0x7 ADD SLOAD SWAP1 DUP1 PUSH1 0x8 ADD SLOAD SWAP1 POP DUP7 JUMP JUMPDEST PUSH1 0x1 DUP1 SLOAD SWAP1 POP DUP2 LT PUSH2 0xE6A JUMPI PUSH1 0x40 MLOAD PUSH32 0x8C379A000000000000000000000000000000000000000000000000000000000 DUP2 MSTORE PUSH1 0x4 ADD PUSH2 0xE61 SWAP1 PUSH2 0x26AA JUMP JUMPDEST PUSH1 0x40 MLOAD DUP1 SWAP2 SUB SWAP1 REVERT JUMPDEST PUSH1 0x1 DUP2 DUP2 SLOAD DUP2 LT PUSH2 0xE7E JUMPI PUSH2 0xE7D PUSH2 0x2558 JUMP JUMPDEST JUMPDEST SWAP1 PUSH1 0x0 MSTORE PUSH1 0x20 PUSH1 0x0 KECCAK256 SWAP1 PUSH1 0x9 MUL ADD PUSH1 0x5 ADD PUSH1 0x0 SWAP1 SLOAD SWAP1 PUSH2 0x100 EXP SWAP1 DIV PUSH1 0xFF AND ISZERO PUSH2 0xEDD JUMPI PUSH1 0x40 MLOAD PUSH32 0x8C379A000000000000000000000000000000000000000000000000000000000 DUP2 MSTORE PUSH1 0x4 ADD PUSH2 0xED4 SWAP1 PUSH2 0x2BD3 JUMP JUMPDEST PUSH1 0x40 MLOAD DUP1 SWAP2 SUB SWAP1 REVERT JUMPDEST PUSH1 0x1 DUP1 DUP3 DUP2 SLOAD DUP2 LT PUSH2 0xEF2 JUMPI PUSH2 0xEF1 PUSH2 0x2558 JUMP JUMPDEST JUMPDEST SWAP1 PUSH1 0x0 MSTORE PUSH1 0x20 PUSH1 0x0 KECCAK256 SWAP1 PUSH1 0x9 MUL ADD PUSH1 0x5 ADD PUSH1 0x0 PUSH2 0x100 EXP DUP2 SLOAD DUP2 PUSH1 0xFF MUL NOT AND SWAP1 DUP4 ISZERO ISZERO MUL OR SWAP1 SSTORE POP PUSH32 0xF645877FE838126F91B4E7F0C2002E96576B70D9D3483C64AD47A4C586FBF2B DUP2 PUSH1 0x40 MLOAD PUSH2 0xF49 SWAP2 SWAP1 PUSH2 0x2BF3 JUMP JUMPDEST PUSH1 0x40 MLOAD DUP1 SWAP2 SUB SWAP1 LOG1 POP JUMP JUMPDEST DUP3 MLOAD DUP5 MLOAD EQ PUSH2 0xF98 JUMPI PUSH1 0x40 MLOAD PUSH32 0x8C379A000000000000000000000000000000000000000000000000000000000 DUP2 MSTORE PUSH1 0x4 ADD PUSH2 0xF8F SWAP1 PUSH2 0x2C5A JUMP JUMPDEST PUSH1 0x40 MLOAD DUP1 SWAP2 SUB SWAP1 REVERT JUMPDEST PUSH1 0x0 TIMESTAMP SWAP1 POP PUSH1 0x0 PUSH1 0x1 DUP1 SLOAD SWAP1 POP SWAP1 POP PUSH1 0x1 PUSH1 0x40 MLOAD DUP1 PUSH2 0x120 ADD PUSH1 0x40 MSTORE DUP1 DUP4 DUP2 MSTORE PUSH1 0x20 ADD DUP7 DUP2 MSTORE PUSH1 0x20 ADD CALLER PUSH20 0xFFFFFFFFFFFFFFFFFFFFFFFFFFFFFFFFFFFFFFFF AND DUP2 MSTORE PUSH1 0x20 ADD DUP9 DUP2 MSTORE PUSH1 0x20 ADD DUP8 DUP2 MSTORE PUSH1 0x20 ADD PUSH1 0x0 ISZERO ISZERO DUP2 MSTORE PUSH1 0x20 ADD DUP9 MLOAD PUSH8 0xFFFFFFFFFFFFFFFF DUP2 GT ISZERO PUSH2 0x100D JUMPI PUSH2 0x100C PUSH2 0x204B JUMP JUMPDEST JUMPDEST PUSH1 0x40 MLOAD SWAP1 DUP1 DUP3 MSTORE DUP1 PUSH1 0x20 MUL PUSH1 0x20 ADD DUP3 ADD PUSH1 0x40 MSTORE DUP1 ISZERO PUSH2 0x103B JUMPI DUP2 PUSH1 0x20 ADD PUSH1 0x20 DUP3 MUL DUP1 CALLDATASIZE DUP4 CALLDATACOPY DUP1 DUP3 ADD SWAP2 POP POP SWAP1 POP JUMPDEST POP DUP2 MSTORE PUSH1 0x20 ADD DUP6 DUP2 MSTORE PUSH1 0x20 ADD DUP5 DUP2 MSTORE POP SWAP1 DUP1 PUSH1 0x1 DUP2 SLOAD ADD DUP1 DUP3 SSTORE DUP1 SWAP2 POP POP PUSH1 0x1 SWAP1 SUB SWAP1 PUSH1 0x0 MSTORE PUSH1 0x20 PUSH1 0x0 KECCAK256 SWAP1 PUSH1 0x9 MUL ADD PUSH1 0x0 SWAP1 SWAP2 SWAP1 SWAP2 SWAP1 SWAP2 POP PUSH1 0x0 DUP3 ADD MLOAD DUP2 PUSH1 0x0 ADD SSTORE PUSH1 0x20 DUP3 ADD MLOAD DUP2 PUSH1 0x1 ADD SWAP1 DUP2 PUSH2 0x1093 SWAP2 SWAP1 PUSH2 0x2AB5 JUMP JUMPDEST POP PUSH1 0x40 DUP3 ADD MLOAD DUP2 PUSH1 0x2 ADD PUSH1 0x0 PUSH2 0x100 EXP DUP2 SLOAD DUP2 PUSH20 0xFFFFFFFFFFFFFFFFFFFFFFFFFFFFFFFFFFFFFFFF MUL NOT AND SWAP1 DUP4 PUSH20 0xFFFFFFFFFFFFFFFFFFFFFFFFFFFFFFFFFFFFFFFF AND MUL OR SWAP1 SSTORE POP PUSH1 0x60 DUP3 ADD MLOAD DUP2 PUSH1 0x3 ADD SWAP1 DUP1 MLOAD SWAP1 PUSH1 0x20 ADD SWAP1 PUSH2 0x10F7 SWAP3 SWAP2 SWAP1 PUSH2 0x18E2 JUMP JUMPDEST POP PUSH1 0x80 DUP3 ADD MLOAD DUP2 PUSH1 0x4 ADD SWAP1 DUP1 MLOAD SWAP1 PUSH1 0x20 ADD SWAP1 PUSH2 0x1114 SWAP3 SWAP2 SWAP1 PUSH2 0x196C JUMP JUMPDEST POP PUSH1 0xA0 DUP3 ADD MLOAD DUP2 PUSH1 0x5 ADD PUSH1 0x0 PUSH2 0x100 EXP DUP2 SLOAD DUP2 PUSH1 0xFF MUL NOT AND SWAP1 DUP4 ISZERO ISZERO MUL OR SWAP1 SSTORE POP PUSH1 0xC0 DUP3 ADD MLOAD DUP2 PUSH1 0x6 ADD SWAP1 DUP1 MLOAD SWAP1 PUSH1 0x20 ADD SWAP1 PUSH2 0x1151 SWAP3 SWAP2 SWAP1 PUSH2 0x19B9 JUMP JUMPDEST POP PUSH1 0xE0 DUP3 ADD MLOAD DUP2 PUSH1 0x7 ADD SSTORE PUSH2 0x100 DUP3 ADD MLOAD DUP2 PUSH1 0x8 ADD SSTORE POP POP PUSH32 0x8A4FCFA8215B159E8137E3E3AB607D6B2A27DDCBAC44ECA414476E096D74F4D2 DUP2 PUSH1 0x40 MLOAD PUSH2 0x1198 SWAP2 SWAP1 PUSH2 0x2BF3 JUMP JUMPDEST PUSH1 0x40 MLOAD DUP1 SWAP2 SUB SWAP1 LOG1 PUSH1 0x0 JUMPDEST DUP7 MLOAD DUP2 LT ISZERO PUSH2 0x1242 JUMPI DUP6 DUP2 DUP2 MLOAD DUP2 LT PUSH2 0x11BF JUMPI PUSH2 0x11BE PUSH2 0x2558 JUMP JUMPDEST JUMPDEST PUSH1 0x20 MUL PUSH1 0x20 ADD ADD MLOAD PUSH1 0x0 DUP1 DUP10 DUP5 DUP2 MLOAD DUP2 LT PUSH2 0x11DD JUMPI PUSH2 0x11DC PUSH2 0x2558 JUMP JUMPDEST JUMPDEST PUSH1 0x20 MUL PUSH1 0x20 ADD ADD MLOAD PUSH20 0xFFFFFFFFFFFFFFFFFFFFFFFFFFFFFFFFFFFFFFFF AND PUSH20 0xFFFFFFFFFFFFFFFFFFFFFFFFFFFFFFFFFFFFFFFF AND DUP2 MSTORE PUSH1 0x20 ADD SWAP1 DUP2 MSTORE PUSH1 0x20 ADD PUSH1 0x0 KECCAK256 PUSH1 0x0 DUP3 DUP3 SLOAD PUSH2 0x122E SWAP2 SWAP1 PUSH2 0x2C7A JUMP JUMPDEST SWAP3 POP POP DUP2 SWAP1 SSTORE POP DUP1 DUP1 PUSH1 0x1 ADD SWAP2 POP POP PUSH2 0x11A3 JUMP JUMPDEST POP POP POP POP POP POP POP JUMP JUMPDEST PUSH1 0x60 PUSH1 0x0 DUP1 JUMPDEST PUSH1 0x1 DUP1 SLOAD SWAP1 POP DUP2 LT ISZERO PUSH2 0x1353 JUMPI PUSH1 0x0 JUMPDEST PUSH1 0x1 DUP3 DUP2 SLOAD DUP2 LT PUSH2 0x1275 JUMPI PUSH2 0x1274 PUSH2 0x2558 JUMP JUMPDEST JUMPDEST SWAP1 PUSH1 0x0 MSTORE PUSH1 0x20 PUSH1 0x0 KECCAK256 SWAP1 PUSH1 0x9 MUL ADD PUSH1 0x3 ADD DUP1 SLOAD SWAP1 POP DUP2 LT ISZERO PUSH2 0x1345 JUMPI CALLER PUSH20 0xFFFFFFFFFFFFFFFFFFFFFFFFFFFFFFFFFFFFFFFF AND PUSH1 0x1 DUP4 DUP2 SLOAD DUP2 LT PUSH2 0x12BC JUMPI PUSH2 0x12BB PUSH2 0x2558 JUMP JUMPDEST JUMPDEST SWAP1 PUSH1 0x0 MSTORE PUSH1 0x20 PUSH1 0x0 KECCAK256 SWAP1 PUSH1 0x9 MUL ADD PUSH1 0x3 ADD DUP3 DUP2 SLOAD DUP2 LT PUSH2 0x12DF JUMPI PUSH2 0x12DE PUSH2 0x2558 JUMP JUMPDEST JUMPDEST SWAP1 PUSH1 0x0 MSTORE PUSH1 0x20 PUSH1 0x0 KECCAK256 ADD PUSH1 0x0 SWAP1 SLOAD SWAP1 PUSH2 0x100 EXP SWAP1 DIV PUSH20 0xFFFFFFFFFFFFFFFFFFFFFFFFFFFFFFFFFFFFFFFF AND PUSH20 0xFFFFFFFFFFFFFFFFFFFFFFFFFFFFFFFFFFFFFFFF AND SUB PUSH2 0x1338 JUMPI DUP3 DUP1 PUSH2 0x1330 SWAP1 PUSH2 0x25B6 JUMP JUMPDEST SWAP4 POP POP PUSH2 0x1345 JUMP JUMPDEST DUP1 DUP1 PUSH1 0x1 ADD SWAP2 POP POP PUSH2 0x1261 JUMP JUMPDEST POP DUP1 DUP1 PUSH1 0x1 ADD SWAP2 POP POP PUSH2 0x1251 JUMP JUMPDEST POP PUSH1 0x0 DUP2 PUSH8 0xFFFFFFFFFFFFFFFF DUP2 GT ISZERO PUSH2 0x1370 JUMPI PUSH2 0x136F PUSH2 0x204B JUMP JUMPDEST JUMPDEST PUSH1 0x40 MLOAD SWAP1 DUP1 DUP3 MSTORE DUP1 PUSH1 0x20 MUL PUSH1 0x20 ADD DUP3 ADD PUSH1 0x40 MSTORE DUP1 ISZERO PUSH2 0x13A9 JUMPI DUP2 PUSH1 0x20 ADD JUMPDEST PUSH2 0x1396 PUSH2 0x17D4 JUMP JUMPDEST DUP2 MSTORE PUSH1 0x20 ADD SWAP1 PUSH1 0x1 SWAP1 SUB SWAP1 DUP2 PUSH2 0x138E JUMPI SWAP1 POP JUMPDEST POP SWAP1 POP PUSH1 0x0 DUP1 JUMPDEST PUSH1 0x1 DUP1 SLOAD SWAP1 POP DUP2 LT ISZERO PUSH2 0x1782 JUMPI PUSH1 0x0 JUMPDEST PUSH1 0x1 DUP3 DUP2 SLOAD DUP2 LT PUSH2 0x13D4 JUMPI PUSH2 0x13D3 PUSH2 0x2558 JUMP JUMPDEST JUMPDEST SWAP1 PUSH1 0x0 MSTORE PUSH1 0x20 PUSH1 0x0 KECCAK256 SWAP1 PUSH1 0x9 MUL ADD PUSH1 0x3 ADD DUP1 SLOAD SWAP1 POP DUP2 LT ISZERO PUSH2 0x1774 JUMPI CALLER PUSH20 0xFFFFFFFFFFFFFFFFFFFFFFFFFFFFFFFFFFFFFFFF AND PUSH1 0x1 DUP4 DUP2 SLOAD DUP2 LT PUSH2 0x141B JUMPI PUSH2 0x141A PUSH2 0x2558 JUMP JUMPDEST JUMPDEST SWAP1 PUSH1 0x0 MSTORE PUSH1 0x20 PUSH1 0x0 KECCAK256 SWAP1 PUSH1 0x9 MUL ADD PUSH1 0x3 ADD DUP3 DUP2 SLOAD DUP2 LT PUSH2 0x143E JUMPI PUSH2 0x143D PUSH2 0x2558 JUMP JUMPDEST JUMPDEST SWAP1 PUSH1 0x0 MSTORE PUSH1 0x20 PUSH1 0x0 KECCAK256 ADD PUSH1 0x0 SWAP1 SLOAD SWAP1 PUSH2 0x100 EXP SWAP1 DIV PUSH20 0xFFFFFFFFFFFFFFFFFFFFFFFFFFFFFFFFFFFFFFFF AND PUSH20 0xFFFFFFFFFFFFFFFFFFFFFFFFFFFFFFFFFFFFFFFF AND SUB PUSH2 0x1767 JUMPI PUSH1 0x1 DUP3 DUP2 SLOAD DUP2 LT PUSH2 0x1498 JUMPI PUSH2 0x1497 PUSH2 0x2558 JUMP JUMPDEST JUMPDEST SWAP1 PUSH1 0x0 MSTORE PUSH1 0x20 PUSH1 0x0 KECCAK256 SWAP1 PUSH1 0x9 MUL ADD PUSH1 0x40 MLOAD DUP1 PUSH2 0x120 ADD PUSH1 0x40 MSTORE SWAP1 DUP2 PUSH1 0x0 DUP3 ADD SLOAD DUP2 MSTORE PUSH1 0x20 ADD PUSH1 0x1 DUP3 ADD DUP1 SLOAD PUSH2 0x14CC SWAP1 PUSH2 0x262D JUMP JUMPDEST DUP1 PUSH1 0x1F ADD PUSH1 0x20 DUP1 SWAP2 DIV MUL PUSH1 0x20 ADD PUSH1 0x40 MLOAD SWAP1 DUP2 ADD PUSH1 0x40 MSTORE DUP1 SWAP3 SWAP2 SWAP1 DUP2 DUP2 MSTORE PUSH1 0x20 ADD DUP3 DUP1 SLOAD PUSH2 0x14F8 SWAP1 PUSH2 0x262D JUMP JUMPDEST DUP1 ISZERO PUSH2 0x1545 JUMPI DUP1 PUSH1 0x1F LT PUSH2 0x151A JUMPI PUSH2 0x100 DUP1 DUP4 SLOAD DIV MUL DUP4 MSTORE SWAP2 PUSH1 0x20 ADD SWAP2 PUSH2 0x1545 JUMP JUMPDEST DUP3 ADD SWAP2 SWAP1 PUSH1 0x0 MSTORE PUSH1 0x20 PUSH1 0x0 KECCAK256 SWAP1 JUMPDEST DUP2 SLOAD DUP2 MSTORE SWAP1 PUSH1 0x1 ADD SWAP1 PUSH1 0x20 ADD DUP1 DUP4 GT PUSH2 0x1528 JUMPI DUP3 SWAP1 SUB PUSH1 0x1F AND DUP3 ADD SWAP2 JUMPDEST POP POP POP POP POP DUP2 MSTORE PUSH1 0x20 ADD PUSH1 0x2 DUP3 ADD PUSH1 0x0 SWAP1 SLOAD SWAP1 PUSH2 0x100 EXP SWAP1 DIV PUSH20 0xFFFFFFFFFFFFFFFFFFFFFFFFFFFFFFFFFFFFFFFF AND PUSH20 0xFFFFFFFFFFFFFFFFFFFFFFFFFFFFFFFFFFFFFFFF AND PUSH20 0xFFFFFFFFFFFFFFFFFFFFFFFFFFFFFFFFFFFFFFFF AND DUP2 MSTORE PUSH1 0x20 ADD PUSH1 0x3 DUP3 ADD DUP1 SLOAD DUP1 PUSH1 0x20 MUL PUSH1 0x20 ADD PUSH1 0x40 MLOAD SWAP1 DUP2 ADD PUSH1 0x40 MSTORE DUP1 SWAP3 SWAP2 SWAP1 DUP2 DUP2 MSTORE PUSH1 0x20 ADD DUP3 DUP1 SLOAD DUP1 ISZERO PUSH2 0x1629 JUMPI PUSH1 0x20 MUL DUP3 ADD SWAP2 SWAP1 PUSH1 0x0 MSTORE PUSH1 0x20 PUSH1 0x0 KECCAK256 SWAP1 JUMPDEST DUP2 PUSH1 0x0 SWAP1 SLOAD SWAP1 PUSH2 0x100 EXP SWAP1 DIV PUSH20 0xFFFFFFFFFFFFFFFFFFFFFFFFFFFFFFFFFFFFFFFF AND PUSH20 0xFFFFFFFFFFFFFFFFFFFFFFFFFFFFFFFFFFFFFFFF AND DUP2 MSTORE PUSH1 0x20 ADD SWAP1 PUSH1 0x1 ADD SWAP1 DUP1 DUP4 GT PUSH2 0x15DF JUMPI JUMPDEST POP POP POP POP POP DUP2 MSTORE PUSH1 0x20 ADD PUSH1 0x4 DUP3 ADD DUP1 SLOAD DUP1 PUSH1 0x20 MUL PUSH1 0x20 ADD PUSH1 0x40 MLOAD SWAP1 DUP2 ADD PUSH1 0x40 MSTORE DUP1 SWAP3 SWAP2 SWAP1 DUP2 DUP2 MSTORE PUSH1 0x20 ADD DUP3 DUP1 SLOAD DUP1 ISZERO PUSH2 0x1681 JUMPI PUSH1 0x20 MUL DUP3 ADD SWAP2 SWAP1 PUSH1 0x0 MSTORE PUSH1 0x20 PUSH1 0x0 KECCAK256 SWAP1 JUMPDEST DUP2 SLOAD DUP2 MSTORE PUSH1 0x20 ADD SWAP1 PUSH1 0x1 ADD SWAP1 DUP1 DUP4 GT PUSH2 0x166D JUMPI JUMPDEST POP POP POP POP POP DUP2 MSTORE PUSH1 0x20 ADD PUSH1 0x5 DUP3 ADD PUSH1 0x0 SWAP1 SLOAD SWAP1 PUSH2 0x100 EXP SWAP1 DIV PUSH1 0xFF AND ISZERO ISZERO ISZERO ISZERO DUP2 MSTORE PUSH1 0x20 ADD PUSH1 0x6 DUP3 ADD DUP1 SLOAD DUP1 PUSH1 0x20 MUL PUSH1 0x20 ADD PUSH1 0x40 MLOAD SWAP1 DUP2 ADD PUSH1 0x40 MSTORE DUP1 SWAP3 SWAP2 SWAP1 DUP2 DUP2 MSTORE PUSH1 0x20 ADD DUP3 DUP1 SLOAD DUP1 ISZERO PUSH2 0x1719 JUMPI PUSH1 0x20 MUL DUP3 ADD SWAP2 SWAP1 PUSH1 0x0 MSTORE PUSH1 0x20 PUSH1 0x0 KECCAK256 SWAP1 PUSH1 0x0 SWAP1 JUMPDEST DUP3 DUP3 SWAP1 SLOAD SWAP1 PUSH2 0x100 EXP SWAP1 DIV PUSH1 0xFF AND ISZERO ISZERO DUP2 MSTORE PUSH1 0x20 ADD SWAP1 PUSH1 0x1 ADD SWAP1 PUSH1 0x20 DUP3 PUSH1 0x0 ADD DIV SWAP3 DUP4 ADD SWAP3 PUSH1 0x1 SUB DUP3 MUL SWAP2 POP DUP1 DUP5 GT PUSH2 0x16E3 JUMPI SWAP1 POP JUMPDEST POP POP POP POP POP DUP2 MSTORE PUSH1 0x20 ADD PUSH1 0x7 DUP3 ADD SLOAD DUP2 MSTORE PUSH1 0x20 ADD PUSH1 0x8 DUP3 ADD SLOAD DUP2 MSTORE POP POP DUP5 DUP5 DUP2 MLOAD DUP2 LT PUSH2 0x1749 JUMPI PUSH2 0x1748 PUSH2 0x2558 JUMP JUMPDEST JUMPDEST PUSH1 0x20 MUL PUSH1 0x20 ADD ADD DUP2 SWAP1 MSTORE POP DUP3 DUP1 PUSH2 0x175F SWAP1 PUSH2 0x25B6 JUMP JUMPDEST SWAP4 POP POP PUSH2 0x1774 JUMP JUMPDEST DUP1 DUP1 PUSH1 0x1 ADD SWAP2 POP POP PUSH2 0x13C0 JUMP JUMPDEST POP DUP1 DUP1 PUSH1 0x1 ADD SWAP2 POP POP PUSH2 0x13B0 JUMP JUMPDEST POP DUP2 SWAP4 POP POP POP POP SWAP1 JUMP JUMPDEST PUSH1 0x0 DUP1 PUSH1 0x0 DUP4 PUSH20 0xFFFFFFFFFFFFFFFFFFFFFFFFFFFFFFFFFFFFFFFF AND PUSH20 0xFFFFFFFFFFFFFFFFFFFFFFFFFFFFFFFFFFFFFFFF AND DUP2 MSTORE PUSH1 0x20 ADD SWAP1 DUP2 MSTORE PUSH1 0x20 ADD PUSH1 0x0 KECCAK256 SLOAD SWAP1 POP SWAP2 SWAP1 POP JUMP JUMPDEST PUSH1 0x40 MLOAD DUP1 PUSH2 0x120 ADD PUSH1 0x40 MSTORE DUP1 PUSH1 0x0 DUP2 MSTORE PUSH1 0x20 ADD PUSH1 0x60 DUP2 MSTORE PUSH1 0x20 ADD PUSH1 0x0 PUSH20 0xFFFFFFFFFFFFFFFFFFFFFFFFFFFFFFFFFFFFFFFF AND DUP2 MSTORE PUSH1 0x20 ADD PUSH1 0x60 DUP2 MSTORE PUSH1 0x20 ADD PUSH1 0x60 DUP2 MSTORE PUSH1 0x20 ADD PUSH1 0x0 ISZERO ISZERO DUP2 MSTORE PUSH1 0x20 ADD PUSH1 0x60 DUP2 MSTORE PUSH1 0x20 ADD PUSH1 0x0 DUP2 MSTORE PUSH1 0x20 ADD PUSH1 0x0 DUP2 MSTORE POP SWAP1 JUMP JUMPDEST POP DUP1 SLOAD PUSH2 0x1844 SWAP1 PUSH2 0x262D JUMP JUMPDEST PUSH1 0x0 DUP3 SSTORE DUP1 PUSH1 0x1F LT PUSH2 0x1856 JUMPI POP PUSH2 0x1875 JUMP JUMPDEST PUSH1 0x1F ADD PUSH1 0x20 SWAP1 DIV SWAP1 PUSH1 0x0 MSTORE PUSH1 0x20 PUSH1 0x0 KECCAK256 SWAP1 DUP2 ADD SWAP1 PUSH2 0x1874 SWAP2 SWAP1 PUSH2 0x1A5F JUMP JUMPDEST JUMPDEST POP JUMP JUMPDEST POP DUP1 SLOAD PUSH1 0x0 DUP3 SSTORE SWAP1 PUSH1 0x0 MSTORE PUSH1 0x20 PUSH1 0x0 KECCAK256 SWAP1 DUP2 ADD SWAP1 PUSH2 0x1896 SWAP2 SWAP1 PUSH2 0x1A5F JUMP JUMPDEST POP JUMP JUMPDEST POP DUP1 SLOAD PUSH1 0x0 DUP3 SSTORE SWAP1 PUSH1 0x0 MSTORE PUSH1 0x20 PUSH1 0x0 KECCAK256 SWAP1 DUP2 ADD SWAP1 PUSH2 0x18B7 SWAP2 SWAP1 PUSH2 0x1A5F JUMP JUMPDEST POP JUMP JUMPDEST POP DUP1 SLOAD PUSH1 0x0 DUP3 SSTORE PUSH1 0x1F ADD PUSH1 0x20 SWAP1 DIV SWAP1 PUSH1 0x0 MSTORE PUSH1 0x20 PUSH1 0x0 KECCAK256 SWAP1 DUP2 ADD SWAP1 PUSH2 0x18DF SWAP2 SWAP1 PUSH2 0x1A5F JUMP JUMPDEST POP JUMP JUMPDEST DUP3 DUP1 SLOAD DUP3 DUP3 SSTORE SWAP1 PUSH1 0x0 MSTORE PUSH1 0x20 PUSH1 0x0 KECCAK256 SWAP1 DUP2 ADD SWAP3 DUP3 ISZERO PUSH2 0x195B JUMPI SWAP2 PUSH1 0x20 MUL DUP3 ADD JUMPDEST DUP3 DUP2 GT ISZERO PUSH2 0x195A JUMPI DUP3 MLOAD DUP3 PUSH1 0x0 PUSH2 0x100 EXP DUP2 SLOAD DUP2 PUSH20 0xFFFFFFFFFFFFFFFFFFFFFFFFFFFFFFFFFFFFFFFF MUL NOT AND SWAP1 DUP4 PUSH20 0xFFFFFFFFFFFFFFFFFFFFFFFFFFFFFFFFFFFFFFFF AND MUL OR SWAP1 SSTORE POP SWAP2 PUSH1 0x20 ADD SWAP2 SWAP1 PUSH1 0x1 ADD SWAP1 PUSH2 0x1902 JUMP JUMPDEST JUMPDEST POP SWAP1 POP PUSH2 0x1968 SWAP2 SWAP1 PUSH2 0x1A5F JUMP JUMPDEST POP SWAP1 JUMP JUMPDEST DUP3 DUP1 SLOAD DUP3 DUP3 SSTORE SWAP1 PUSH1 0x0 MSTORE PUSH1 0x20 PUSH1 0x0 KECCAK256 SWAP1 DUP2 ADD SWAP3 DUP3 ISZERO PUSH2 0x19A8 JUMPI SWAP2 PUSH1 0x20 MUL DUP3 ADD JUMPDEST DUP3 DUP2 GT ISZERO PUSH2 0x19A7 JUMPI DUP3 MLOAD DUP3 SSTORE SWAP2 PUSH1 0x20 ADD SWAP2 SWAP1 PUSH1 0x1 ADD SWAP1 PUSH2 0x198C JUMP JUMPDEST JUMPDEST POP SWAP1 POP PUSH2 0x19B5 SWAP2 SWAP1 PUSH2 0x1A5F JUMP JUMPDEST POP SWAP1 JUMP JUMPDEST DUP3 DUP1 SLOAD DUP3 DUP3 SSTORE SWAP1 PUSH1 0x0 MSTORE PUSH1 0x20 PUSH1 0x0 KECCAK256 SWAP1 PUSH1 0x1F ADD PUSH1 0x20 SWAP1 DIV DUP2 ADD SWAP3 DUP3 ISZERO PUSH2 0x1A4E JUMPI SWAP2 PUSH1 0x20 MUL DUP3 ADD PUSH1 0x0 JUMPDEST DUP4 DUP3 GT ISZERO PUSH2 0x1A1F JUMPI DUP4 MLOAD DUP4 DUP3 PUSH2 0x100 EXP DUP2 SLOAD DUP2 PUSH1 0xFF MUL NOT AND SWAP1 DUP4 ISZERO ISZERO MUL OR SWAP1 SSTORE POP SWAP3 PUSH1 0x20 ADD SWAP3 PUSH1 0x1 ADD PUSH1 0x20 DUP2 PUSH1 0x0 ADD DIV SWAP3 DUP4 ADD SWAP3 PUSH1 0x1 SUB MUL PUSH2 0x19E2 JUMP JUMPDEST DUP1 ISZERO PUSH2 0x1A4C JUMPI DUP3 DUP2 PUSH2 0x100 EXP DUP2 SLOAD SWAP1 PUSH1 0xFF MUL NOT AND SWAP1 SSTORE PUSH1 0x1 ADD PUSH1 0x20 DUP2 PUSH1 0x0 ADD DIV SWAP3 DUP4 ADD SWAP3 PUSH1 0x1 SUB MUL PUSH2 0x1A1F JUMP JUMPDEST POP JUMPDEST POP SWAP1 POP PUSH2 0x1A5B SWAP2 SWAP1 PUSH2 0x1A5F JUMP JUMPDEST POP SWAP1 JUMP JUMPDEST JUMPDEST DUP1 DUP3 GT ISZERO PUSH2 0x1A78 JUMPI PUSH1 0x0 DUP2 PUSH1 0x0 SWAP1 SSTORE POP PUSH1 0x1 ADD PUSH2 0x1A60 JUMP JUMPDEST POP SWAP1 JUMP JUMPDEST PUSH1 0x0 PUSH1 0x40 MLOAD SWAP1 POP SWAP1 JUMP JUMPDEST PUSH1 0x0 DUP1 REVERT JUMPDEST PUSH1 0x0 DUP1 REVERT JUMPDEST PUSH1 0x0 PUSH20 0xFFFFFFFFFFFFFFFFFFFFFFFFFFFFFFFFFFFFFFFF DUP3 AND SWAP1 POP SWAP2 SWAP1 POP JUMP JUMPDEST PUSH1 0x0 PUSH2 0x1ABB DUP3 PUSH2 0x1A90 JUMP JUMPDEST SWAP1 POP SWAP2 SWAP1 POP JUMP JUMPDEST PUSH2 0x1ACB DUP2 PUSH2 0x1AB0 JUMP JUMPDEST DUP2 EQ PUSH2 0x1AD6 JUMPI PUSH1 0x0 DUP1 REVERT JUMPDEST POP JUMP JUMPDEST PUSH1 0x0 DUP2 CALLDATALOAD SWAP1 POP PUSH2 0x1AE8 DUP2 PUSH2 0x1AC2 JUMP JUMPDEST SWAP3 SWAP2 POP POP JUMP JUMPDEST PUSH1 0x0 PUSH1 0x20 DUP3 DUP5 SUB SLT ISZERO PUSH2 0x1B04 JUMPI PUSH2 0x1B03 PUSH2 0x1A86 JUMP JUMPDEST JUMPDEST PUSH1 0x0 PUSH2 0x1B12 DUP5 DUP3 DUP6 ADD PUSH2 0x1AD9 JUMP JUMPDEST SWAP2 POP POP SWAP3 SWAP2 POP POP JUMP JUMPDEST PUSH1 0x0 DUP2 MLOAD SWAP1 POP SWAP2 SWAP1 POP JUMP JUMPDEST PUSH1 0x0 DUP3 DUP3 MSTORE PUSH1 0x20 DUP3 ADD SWAP1 POP SWAP3 SWAP2 POP POP JUMP JUMPDEST PUSH1 0x0 DUP2 SWAP1 POP PUSH1 0x20 DUP3 ADD SWAP1 POP SWAP2 SWAP1 POP JUMP JUMPDEST PUSH1 0x0 DUP2 SWAP1 POP SWAP2 SWAP1 POP JUMP JUMPDEST PUSH2 0x1B5A DUP2 PUSH2 0x1B47 JUMP JUMPDEST DUP3 MSTORE POP POP JUMP JUMPDEST PUSH1 0x0 DUP2 MLOAD SWAP1 POP SWAP2 SWAP1 POP JUMP JUMPDEST PUSH1 0x0 DUP3 DUP3 MSTORE PUSH1 0x20 DUP3 ADD SWAP1 POP SWAP3 SWAP2 POP POP JUMP JUMPDEST PUSH1 0x0 JUMPDEST DUP4 DUP2 LT ISZERO PUSH2 0x1B9A JUMPI DUP1 DUP3 ADD MLOAD DUP2 DUP5 ADD MSTORE PUSH1 0x20 DUP2 ADD SWAP1 POP PUSH2 0x1B7F JUMP JUMPDEST PUSH1 0x0 DUP5 DUP5 ADD MSTORE POP POP POP POP JUMP JUMPDEST PUSH1 0x0 PUSH1 0x1F NOT PUSH1 0x1F DUP4 ADD AND SWAP1 POP SWAP2 SWAP1 POP JUMP JUMPDEST PUSH1 0x0 PUSH2 0x1BC2 DUP3 PUSH2 0x1B60 JUMP JUMPDEST PUSH2 0x1BCC DUP2 DUP6 PUSH2 0x1B6B JUMP JUMPDEST SWAP4 POP PUSH2 0x1BDC DUP2 DUP6 PUSH1 0x20 DUP7 ADD PUSH2 0x1B7C JUMP JUMPDEST PUSH2 0x1BE5 DUP2 PUSH2 0x1BA6 JUMP JUMPDEST DUP5 ADD SWAP2 POP POP SWAP3 SWAP2 POP POP JUMP JUMPDEST PUSH2 0x1BF9 DUP2 PUSH2 0x1AB0 JUMP JUMPDEST DUP3 MSTORE POP POP JUMP JUMPDEST PUSH1 0x0 DUP2 MLOAD SWAP1 POP SWAP2 SWAP1 POP JUMP JUMPDEST PUSH1 0x0 DUP3 DUP3 MSTORE PUSH1 0x20 DUP3 ADD SWAP1 POP SWAP3 SWAP2 POP POP JUMP JUMPDEST PUSH1 0x0 DUP2 SWAP1 POP PUSH1 0x20 DUP3 ADD SWAP1 POP SWAP2 SWAP1 POP JUMP JUMPDEST PUSH1 0x0 PUSH2 0x1C37 DUP4 DUP4 PUSH2 0x1BF0 JUMP JUMPDEST PUSH1 0x20 DUP4 ADD SWAP1 POP SWAP3 SWAP2 POP POP JUMP JUMPDEST PUSH1 0x0 PUSH1 0x20 DUP3 ADD SWAP1 POP SWAP2 SWAP1 POP JUMP JUMPDEST PUSH1 0x0 PUSH2 0x1C5B DUP3 PUSH2 0x1BFF JUMP JUMPDEST PUSH2 0x1C65 DUP2 DUP6 PUSH2 0x1C0A JUMP JUMPDEST SWAP4 POP PUSH2 0x1C70 DUP4 PUSH2 0x1C1B JUMP JUMPDEST DUP1 PUSH1 0x0 JUMPDEST DUP4 DUP2 LT ISZERO PUSH2 0x1CA1 JUMPI DUP2 MLOAD PUSH2 0x1C88 DUP9 DUP3 PUSH2 0x1C2B JUMP JUMPDEST SWAP8 POP PUSH2 0x1C93 DUP4 PUSH2 0x1C43 JUMP JUMPDEST SWAP3 POP POP PUSH1 0x1 DUP2 ADD SWAP1 POP PUSH2 0x1C74 JUMP JUMPDEST POP DUP6 SWAP4 POP POP POP POP SWAP3 SWAP2 POP POP JUMP JUMPDEST PUSH1 0x0 DUP2 MLOAD SWAP1 POP SWAP2 SWAP1 POP JUMP JUMPDEST PUSH1 0x0 DUP3 DUP3 MSTORE PUSH1 0x20 DUP3 ADD SWAP1 POP SWAP3 SWAP2 POP POP JUMP JUMPDEST PUSH1 0x0 DUP2 SWAP1 POP PUSH1 0x20 DUP3 ADD SWAP1 POP SWAP2 SWAP1 POP JUMP JUMPDEST PUSH1 0x0 PUSH2 0x1CE6 DUP4 DUP4 PUSH2 0x1B51 JUMP JUMPDEST PUSH1 0x20 DUP4 ADD SWAP1 POP SWAP3 SWAP2 POP POP JUMP JUMPDEST PUSH1 0x0 PUSH1 0x20 DUP3 ADD SWAP1 POP SWAP2 SWAP1 POP JUMP JUMPDEST PUSH1 0x0 PUSH2 0x1D0A DUP3 PUSH2 0x1CAE JUMP JUMPDEST PUSH2 0x1D14 DUP2 DUP6 PUSH2 0x1CB9 JUMP JUMPDEST SWAP4 POP PUSH2 0x1D1F DUP4 PUSH2 0x1CCA JUMP JUMPDEST DUP1 PUSH1 0x0 JUMPDEST DUP4 DUP2 LT ISZERO PUSH2 0x1D50 JUMPI DUP2 MLOAD PUSH2 0x1D37 DUP9 DUP3 PUSH2 0x1CDA JUMP JUMPDEST SWAP8 POP PUSH2 0x1D42 DUP4 PUSH2 0x1CF2 JUMP JUMPDEST SWAP3 POP POP PUSH1 0x1 DUP2 ADD SWAP1 POP PUSH2 0x1D23 JUMP JUMPDEST POP DUP6 SWAP4 POP POP POP POP SWAP3 SWAP2 POP POP JUMP JUMPDEST PUSH1 0x0 DUP2 ISZERO ISZERO SWAP1 POP SWAP2 SWAP1 POP JUMP JUMPDEST PUSH2 0x1D72 DUP2 PUSH2 0x1D5D JUMP JUMPDEST DUP3 MSTORE POP POP JUMP JUMPDEST PUSH1 0x0 DUP2 MLOAD SWAP1 POP SWAP2 SWAP1 POP JUMP JUMPDEST PUSH1 0x0 DUP3 DUP3 MSTORE PUSH1 0x20 DUP3 ADD SWAP1 POP SWAP3 SWAP2 POP POP JUMP JUMPDEST PUSH1 0x0 DUP2 SWAP1 POP PUSH1 0x20 DUP3 ADD SWAP1 POP SWAP2 SWAP1 POP JUMP JUMPDEST PUSH1 0x0 PUSH2 0x1DB0 DUP4 DUP4 PUSH2 0x1D69 JUMP JUMPDEST PUSH1 0x20 DUP4 ADD SWAP1 POP SWAP3 SWAP2 POP POP JUMP JUMPDEST PUSH1 0x0 PUSH1 0x20 DUP3 ADD SWAP1 POP SWAP2 SWAP1 POP JUMP JUMPDEST PUSH1 0x0 PUSH2 0x1DD4 DUP3 PUSH2 0x1D78 JUMP JUMPDEST PUSH2 0x1DDE DUP2 DUP6 PUSH2 0x1D83 JUMP JUMPDEST SWAP4 POP PUSH2 0x1DE9 DUP4 PUSH2 0x1D94 JUMP JUMPDEST DUP1 PUSH1 0x0 JUMPDEST DUP4 DUP2 LT ISZERO PUSH2 0x1E1A JUMPI DUP2 MLOAD PUSH2 0x1E01 DUP9 DUP3 PUSH2 0x1DA4 JUMP JUMPDEST SWAP8 POP PUSH2 0x1E0C DUP4 PUSH2 0x1DBC JUMP JUMPDEST SWAP3 POP POP PUSH1 0x1 DUP2 ADD SWAP1 POP PUSH2 0x1DED JUMP JUMPDEST POP DUP6 SWAP4 POP POP POP POP SWAP3 SWAP2 POP POP JUMP JUMPDEST PUSH1 0x0 PUSH2 0x120 DUP4 ADD PUSH1 0x0 DUP4 ADD MLOAD PUSH2 0x1E40 PUSH1 0x0 DUP7 ADD DUP3 PUSH2 0x1B51 JUMP JUMPDEST POP PUSH1 0x20 DUP4 ADD MLOAD DUP5 DUP3 SUB PUSH1 0x20 DUP7 ADD MSTORE PUSH2 0x1E58 DUP3 DUP3 PUSH2 0x1BB7 JUMP JUMPDEST SWAP2 POP POP PUSH1 0x40 DUP4 ADD MLOAD PUSH2 0x1E6D PUSH1 0x40 DUP7 ADD DUP3 PUSH2 0x1BF0 JUMP JUMPDEST POP PUSH1 0x60 DUP4 ADD MLOAD DUP5 DUP3 SUB PUSH1 0x60 DUP7 ADD MSTORE PUSH2 0x1E85 DUP3 DUP3 PUSH2 0x1C50 JUMP JUMPDEST SWAP2 POP POP PUSH1 0x80 DUP4 ADD MLOAD DUP5 DUP3 SUB PUSH1 0x80 DUP7 ADD MSTORE PUSH2 0x1E9F DUP3 DUP3 PUSH2 0x1CFF JUMP JUMPDEST SWAP2 POP POP PUSH1 0xA0 DUP4 ADD MLOAD PUSH2 0x1EB4 PUSH1 0xA0 DUP7 ADD DUP3 PUSH2 0x1D69 JUMP JUMPDEST POP PUSH1 0xC0 DUP4 ADD MLOAD DUP5 DUP3 SUB PUSH1 0xC0 DUP7 ADD MSTORE PUSH2 0x1ECC DUP3 DUP3 PUSH2 0x1DC9 JUMP JUMPDEST SWAP2 POP POP PUSH1 0xE0 DUP4 ADD MLOAD PUSH2 0x1EE1 PUSH1 0xE0 DUP7 ADD DUP3 PUSH2 0x1B51 JUMP JUMPDEST POP PUSH2 0x100 DUP4 ADD MLOAD PUSH2 0x1EF6 PUSH2 0x100 DUP7 ADD DUP3 PUSH2 0x1B51 JUMP JUMPDEST POP DUP1 SWAP2 POP POP SWAP3 SWAP2 POP POP JUMP JUMPDEST PUSH1 0x0 PUSH2 0x1F0D DUP4 DUP4 PUSH2 0x1E27 JUMP JUMPDEST SWAP1 POP SWAP3 SWAP2 POP POP JUMP JUMPDEST PUSH1 0x0 PUSH1 0x20 DUP3 ADD SWAP1 POP SWAP2 SWAP1 POP JUMP JUMPDEST PUSH1 0x0 PUSH2 0x1F2D DUP3 PUSH2 0x1B1B JUMP JUMPDEST PUSH2 0x1F37 DUP2 DUP6 PUSH2 0x1B26 JUMP JUMPDEST SWAP4 POP DUP4 PUSH1 0x20 DUP3 MUL DUP6 ADD PUSH2 0x1F49 DUP6 PUSH2 0x1B37 JUMP JUMPDEST DUP1 PUSH1 0x0 JUMPDEST DUP6 DUP2 LT ISZERO PUSH2 0x1F85 JUMPI DUP5 DUP5 SUB DUP10 MSTORE DUP2 MLOAD PUSH2 0x1F66 DUP6 DUP3 PUSH2 0x1F01 JUMP JUMPDEST SWAP5 POP PUSH2 0x1F71 DUP4 PUSH2 0x1F15 JUMP JUMPDEST SWAP3 POP PUSH1 0x20 DUP11 ADD SWAP10 POP POP PUSH1 0x1 DUP2 ADD SWAP1 POP PUSH2 0x1F4D JUMP JUMPDEST POP DUP3 SWAP8 POP DUP8 SWAP6 POP POP POP POP POP POP SWAP3 SWAP2 POP POP JUMP JUMPDEST PUSH1 0x0 PUSH1 0x20 DUP3 ADD SWAP1 POP DUP2 DUP2 SUB PUSH1 0x0 DUP4 ADD MSTORE PUSH2 0x1FB1 DUP2 DUP5 PUSH2 0x1F22 JUMP JUMPDEST SWAP1 POP SWAP3 SWAP2 POP POP JUMP JUMPDEST PUSH2 0x1FC2 DUP2 PUSH2 0x1B47 JUMP JUMPDEST DUP2 EQ PUSH2 0x1FCD JUMPI PUSH1 0x0 DUP1 REVERT JUMPDEST POP JUMP JUMPDEST PUSH1 0x0 DUP2 CALLDATALOAD SWAP1 POP PUSH2 0x1FDF DUP2 PUSH2 0x1FB9 JUMP JUMPDEST SWAP3 SWAP2 POP POP JUMP JUMPDEST PUSH1 0x0 PUSH1 0x20 DUP3 DUP5 SUB SLT ISZERO PUSH2 0x1FFB JUMPI PUSH2 0x1FFA PUSH2 0x1A86 JUMP JUMPDEST JUMPDEST PUSH1 0x0 PUSH2 0x2009 DUP5 DUP3 DUP6 ADD PUSH2 0x1FD0 JUMP JUMPDEST SWAP2 POP POP SWAP3 SWAP2 POP POP JUMP JUMPDEST PUSH1 0x0 DUP2 SWAP1 POP SWAP2 SWAP1 POP JUMP JUMPDEST PUSH2 0x2025 DUP2 PUSH2 0x2012 JUMP JUMPDEST DUP3 MSTORE POP POP JUMP JUMPDEST PUSH1 0x0 PUSH1 0x20 DUP3 ADD SWAP1 POP PUSH2 0x2040 PUSH1 0x0 DUP4 ADD DUP5 PUSH2 0x201C JUMP JUMPDEST SWAP3 SWAP2 POP POP JUMP JUMPDEST PUSH1 0x0 DUP1 REVERT JUMPDEST PUSH32 0x4E487B7100000000000000000000000000000000000000000000000000000000 PUSH1 0x0 MSTORE PUSH1 0x41 PUSH1 0x4 MSTORE PUSH1 0x24 PUSH1 0x0 REVERT JUMPDEST PUSH2 0x2083 DUP3 PUSH2 0x1BA6 JUMP JUMPDEST DUP2 ADD DUP2 DUP2 LT PUSH8 0xFFFFFFFFFFFFFFFF DUP3 GT OR ISZERO PUSH2 0x20A2 JUMPI PUSH2 0x20A1 PUSH2 0x204B JUMP JUMPDEST JUMPDEST DUP1 PUSH1 0x40 MSTORE POP POP POP JUMP JUMPDEST PUSH1 0x0 PUSH2 0x20B5 PUSH2 0x1A7C JUMP JUMPDEST SWAP1 POP PUSH2 0x20C1 DUP3 DUP3 PUSH2 0x207A JUMP JUMPDEST SWAP2 SWAP1 POP JUMP JUMPDEST PUSH1 0x0 PUSH8 0xFFFFFFFFFFFFFFFF DUP3 GT ISZERO PUSH2 0x20E1 JUMPI PUSH2 0x20E0 PUSH2 0x204B JUMP JUMPDEST JUMPDEST PUSH1 0x20 DUP3 MUL SWAP1 POP PUSH1 0x20 DUP2 ADD SWAP1 POP SWAP2 SWAP1 POP JUMP JUMPDEST PUSH1 0x0 DUP1 REVERT JUMPDEST PUSH1 0x0 PUSH2 0x210A PUSH2 0x2105 DUP5 PUSH2 0x20C6 JUMP JUMPDEST PUSH2 0x20AB JUMP JUMPDEST SWAP1 POP DUP1 DUP4 DUP3 MSTORE PUSH1 0x20 DUP3 ADD SWAP1 POP PUSH1 0x20 DUP5 MUL DUP4 ADD DUP6 DUP2 GT ISZERO PUSH2 0x212D JUMPI PUSH2 0x212C PUSH2 0x20F2 JUMP JUMPDEST JUMPDEST DUP4 JUMPDEST DUP2 DUP2 LT ISZERO PUSH2 0x2156 JUMPI DUP1 PUSH2 0x2142 DUP9 DUP3 PUSH2 0x1FD0 JUMP JUMPDEST DUP5 MSTORE PUSH1 0x20 DUP5 ADD SWAP4 POP POP PUSH1 0x20 DUP2 ADD SWAP1 POP PUSH2 0x212F JUMP JUMPDEST POP POP POP SWAP4 SWAP3 POP POP POP JUMP JUMPDEST PUSH1 0x0 DUP3 PUSH1 0x1F DUP4 ADD SLT PUSH2 0x2175 JUMPI PUSH2 0x2174 PUSH2 0x2046 JUMP JUMPDEST JUMPDEST DUP2 CALLDATALOAD PUSH2 0x2185 DUP5 DUP3 PUSH1 0x20 DUP7 ADD PUSH2 0x20F7 JUMP JUMPDEST SWAP2 POP POP SWAP3 SWAP2 POP POP JUMP JUMPDEST PUSH1 0x0 DUP1 PUSH1 0x40 DUP4 DUP6 SUB SLT ISZERO PUSH2 0x21A5 JUMPI PUSH2 0x21A4 PUSH2 0x1A86 JUMP JUMPDEST JUMPDEST PUSH1 0x0 DUP4 ADD CALLDATALOAD PUSH8 0xFFFFFFFFFFFFFFFF DUP2 GT ISZERO PUSH2 0x21C3 JUMPI PUSH2 0x21C2 PUSH2 0x1A8B JUMP JUMPDEST JUMPDEST PUSH2 0x21CF DUP6 DUP3 DUP7 ADD PUSH2 0x2160 JUMP JUMPDEST SWAP3 POP POP PUSH1 0x20 PUSH2 0x21E0 DUP6 DUP3 DUP7 ADD PUSH2 0x1AD9 JUMP JUMPDEST SWAP2 POP POP SWAP3 POP SWAP3 SWAP1 POP JUMP JUMPDEST PUSH1 0x0 DUP1 REVERT JUMPDEST PUSH1 0x0 PUSH8 0xFFFFFFFFFFFFFFFF DUP3 GT ISZERO PUSH2 0x220A JUMPI PUSH2 0x2209 PUSH2 0x204B JUMP JUMPDEST JUMPDEST PUSH2 0x2213 DUP3 PUSH2 0x1BA6 JUMP JUMPDEST SWAP1 POP PUSH1 0x20 DUP2 ADD SWAP1 POP SWAP2 SWAP1 POP JUMP JUMPDEST DUP3 DUP2 DUP4 CALLDATACOPY PUSH1 0x0 DUP4 DUP4 ADD MSTORE POP POP POP JUMP JUMPDEST PUSH1 0x0 PUSH2 0x2242 PUSH2 0x223D DUP5 PUSH2 0x21EF JUMP JUMPDEST PUSH2 0x20AB JUMP JUMPDEST SWAP1 POP DUP3 DUP2 MSTORE PUSH1 0x20 DUP2 ADD DUP5 DUP5 DUP5 ADD GT ISZERO PUSH2 0x225E JUMPI PUSH2 0x225D PUSH2 0x21EA JUMP JUMPDEST JUMPDEST PUSH2 0x2269 DUP5 DUP3 DUP6 PUSH2 0x2220 JUMP JUMPDEST POP SWAP4 SWAP3 POP POP POP JUMP JUMPDEST PUSH1 0x0 DUP3 PUSH1 0x1F DUP4 ADD SLT PUSH2 0x2286 JUMPI PUSH2 0x2285 PUSH2 0x2046 JUMP JUMPDEST JUMPDEST DUP2 CALLDATALOAD PUSH2 0x2296 DUP5 DUP3 PUSH1 0x20 DUP7 ADD PUSH2 0x222F JUMP JUMPDEST SWAP2 POP POP SWAP3 SWAP2 POP POP JUMP JUMPDEST PUSH1 0x0 DUP1 PUSH1 0x40 DUP4 DUP6 SUB SLT ISZERO PUSH2 0x22B6 JUMPI PUSH2 0x22B5 PUSH2 0x1A86 JUMP JUMPDEST JUMPDEST PUSH1 0x0 PUSH2 0x22C4 DUP6 DUP3 DUP7 ADD PUSH2 0x1FD0 JUMP JUMPDEST SWAP3 POP POP PUSH1 0x20 DUP4 ADD CALLDATALOAD PUSH8 0xFFFFFFFFFFFFFFFF DUP2 GT ISZERO PUSH2 0x22E5 JUMPI PUSH2 0x22E4 PUSH2 0x1A8B JUMP JUMPDEST JUMPDEST PUSH2 0x22F1 DUP6 DUP3 DUP7 ADD PUSH2 0x2271 JUMP JUMPDEST SWAP2 POP POP SWAP3 POP SWAP3 SWAP1 POP JUMP JUMPDEST PUSH2 0x2304 DUP2 PUSH2 0x1B47 JUMP JUMPDEST DUP3 MSTORE POP POP JUMP JUMPDEST PUSH1 0x0 DUP3 DUP3 MSTORE PUSH1 0x20 DUP3 ADD SWAP1 POP SWAP3 SWAP2 POP POP JUMP JUMPDEST PUSH1 0x0 PUSH2 0x2326 DUP3 PUSH2 0x1B60 JUMP JUMPDEST PUSH2 0x2330 DUP2 DUP6 PUSH2 0x230A JUMP JUMPDEST SWAP4 POP PUSH2 0x2340 DUP2 DUP6 PUSH1 0x20 DUP7 ADD PUSH2 0x1B7C JUMP JUMPDEST PUSH2 0x2349 DUP2 PUSH2 0x1BA6 JUMP JUMPDEST DUP5 ADD SWAP2 POP POP SWAP3 SWAP2 POP POP JUMP JUMPDEST PUSH2 0x235D DUP2 PUSH2 0x1AB0 JUMP JUMPDEST DUP3 MSTORE POP POP JUMP JUMPDEST PUSH2 0x236C DUP2 PUSH2 0x1D5D JUMP JUMPDEST DUP3 MSTORE POP POP JUMP JUMPDEST PUSH1 0x0 PUSH1 0xC0 DUP3 ADD SWAP1 POP PUSH2 0x2387 PUSH1 0x0 DUP4 ADD DUP10 PUSH2 0x22FB JUMP JUMPDEST DUP2 DUP2 SUB PUSH1 0x20 DUP4 ADD MSTORE PUSH2 0x2399 DUP2 DUP9 PUSH2 0x231B JUMP JUMPDEST SWAP1 POP PUSH2 0x23A8 PUSH1 0x40 DUP4 ADD DUP8 PUSH2 0x2354 JUMP JUMPDEST PUSH2 0x23B5 PUSH1 0x60 DUP4 ADD DUP7 PUSH2 0x2363 JUMP JUMPDEST PUSH2 0x23C2 PUSH1 0x80 DUP4 ADD DUP6 PUSH2 0x22FB JUMP JUMPDEST PUSH2 0x23CF PUSH1 0xA0 DUP4 ADD DUP5 PUSH2 0x22FB JUMP JUMPDEST SWAP8 SWAP7 POP POP POP POP POP POP POP JUMP JUMPDEST PUSH1 0x0 PUSH8 0xFFFFFFFFFFFFFFFF DUP3 GT ISZERO PUSH2 0x23F5 JUMPI PUSH2 0x23F4 PUSH2 0x204B JUMP JUMPDEST JUMPDEST PUSH1 0x20 DUP3 MUL SWAP1 POP PUSH1 0x20 DUP2 ADD SWAP1 POP SWAP2 SWAP1 POP JUMP JUMPDEST PUSH1 0x0 PUSH2 0x2419 PUSH2 0x2414 DUP5 PUSH2 0x23DA JUMP JUMPDEST PUSH2 0x20AB JUMP JUMPDEST SWAP1 POP DUP1 DUP4 DUP3 MSTORE PUSH1 0x20 DUP3 ADD SWAP1 POP PUSH1 0x20 DUP5 MUL DUP4 ADD DUP6 DUP2 GT ISZERO PUSH2 0x243C JUMPI PUSH2 0x243B PUSH2 0x20F2 JUMP JUMPDEST JUMPDEST DUP4 JUMPDEST DUP2 DUP2 LT ISZERO PUSH2 0x2465 JUMPI DUP1 PUSH2 0x2451 DUP9 DUP3 PUSH2 0x1AD9 JUMP JUMPDEST DUP5 MSTORE PUSH1 0x20 DUP5 ADD SWAP4 POP POP PUSH1 0x20 DUP2 ADD SWAP1 POP PUSH2 0x243E JUMP JUMPDEST POP POP POP SWAP4 SWAP3 POP POP POP JUMP JUMPDEST PUSH1 0x0 DUP3 PUSH1 0x1F DUP4 ADD SLT PUSH2 0x2484 JUMPI PUSH2 0x2483 PUSH2 0x2046 JUMP JUMPDEST JUMPDEST DUP2 CALLDATALOAD PUSH2 0x2494 DUP5 DUP3 PUSH1 0x20 DUP7 ADD PUSH2 0x2406 JUMP JUMPDEST SWAP2 POP POP SWAP3 SWAP2 POP POP JUMP JUMPDEST PUSH1 0x0 DUP1 PUSH1 0x0 DUP1 PUSH1 0x80 DUP6 DUP8 SUB SLT ISZERO PUSH2 0x24B7 JUMPI PUSH2 0x24B6 PUSH2 0x1A86 JUMP JUMPDEST JUMPDEST PUSH1 0x0 DUP6 ADD CALLDATALOAD PUSH8 0xFFFFFFFFFFFFFFFF DUP2 GT ISZERO PUSH2 0x24D5 JUMPI PUSH2 0x24D4 PUSH2 0x1A8B JUMP JUMPDEST JUMPDEST PUSH2 0x24E1 DUP8 DUP3 DUP9 ADD PUSH2 0x246F JUMP JUMPDEST SWAP5 POP POP PUSH1 0x20 DUP6 ADD CALLDATALOAD PUSH8 0xFFFFFFFFFFFFFFFF DUP2 GT ISZERO PUSH2 0x2502 JUMPI PUSH2 0x2501 PUSH2 0x1A8B JUMP JUMPDEST JUMPDEST PUSH2 0x250E DUP8 DUP3 DUP9 ADD PUSH2 0x2160 JUMP JUMPDEST SWAP4 POP POP PUSH1 0x40 DUP6 ADD CALLDATALOAD PUSH8 0xFFFFFFFFFFFFFFFF DUP2 GT ISZERO PUSH2 0x252F JUMPI PUSH2 0x252E PUSH2 0x1A8B JUMP JUMPDEST JUMPDEST PUSH2 0x253B DUP8 DUP3 DUP9 ADD PUSH2 0x2271 JUMP JUMPDEST SWAP3 POP POP PUSH1 0x60 PUSH2 0x254C DUP8 DUP3 DUP9 ADD PUSH2 0x1FD0 JUMP JUMPDEST SWAP2 POP POP SWAP3 SWAP6 SWAP2 SWAP5 POP SWAP3 POP JUMP JUMPDEST PUSH32 0x4E487B7100000000000000000000000000000000000000000000000000000000 PUSH1 0x0 MSTORE PUSH1 0x32 PUSH1 0x4 MSTORE PUSH1 0x24 PUSH1 0x0 REVERT JUMPDEST PUSH32 0x4E487B7100000000000000000000000000000000000000000000000000000000 PUSH1 0x0 MSTORE PUSH1 0x11 PUSH1 0x4 MSTORE PUSH1 0x24 PUSH1 0x0 REVERT JUMPDEST PUSH1 0x0 PUSH2 0x25C1 DUP3 PUSH2 0x1B47 JUMP JUMPDEST SWAP2 POP PUSH32 0xFFFFFFFFFFFFFFFFFFFFFFFFFFFFFFFFFFFFFFFFFFFFFFFFFFFFFFFFFFFFFFFF DUP3 SUB PUSH2 0x25F3 JUMPI PUSH2 0x25F2 PUSH2 0x2587 JUMP JUMPDEST JUMPDEST PUSH1 0x1 DUP3 ADD SWAP1 POP SWAP2 SWAP1 POP JUMP JUMPDEST PUSH32 0x4E487B7100000000000000000000000000000000000000000000000000000000 PUSH1 0x0 MSTORE PUSH1 0x22 PUSH1 0x4 MSTORE PUSH1 0x24 PUSH1 0x0 REVERT JUMPDEST PUSH1 0x0 PUSH1 0x2 DUP3 DIV SWAP1 POP PUSH1 0x1 DUP3 AND DUP1 PUSH2 0x2645 JUMPI PUSH1 0x7F DUP3 AND SWAP2 POP JUMPDEST PUSH1 0x20 DUP3 LT DUP2 SUB PUSH2 0x2658 JUMPI PUSH2 0x2657 PUSH2 0x25FE JUMP JUMPDEST JUMPDEST POP SWAP2 SWAP1 POP JUMP JUMPDEST PUSH32 0x457870656E736520646F6573206E6F7420657869737400000000000000000000 PUSH1 0x0 DUP3 ADD MSTORE POP JUMP JUMPDEST PUSH1 0x0 PUSH2 0x2694 PUSH1 0x16 DUP4 PUSH2 0x230A JUMP JUMPDEST SWAP2 POP PUSH2 0x269F DUP3 PUSH2 0x265E JUMP JUMPDEST PUSH1 0x20 DUP3 ADD SWAP1 POP SWAP2 SWAP1 POP JUMP JUMPDEST PUSH1 0x0 PUSH1 0x20 DUP3 ADD SWAP1 POP DUP2 DUP2 SUB PUSH1 0x0 DUP4 ADD MSTORE PUSH2 0x26C3 DUP2 PUSH2 0x2687 JUMP JUMPDEST SWAP1 POP SWAP2 SWAP1 POP JUMP JUMPDEST PUSH32 0x4E6F20657870656E7365732070726F7669646564000000000000000000000000 PUSH1 0x0 DUP3 ADD MSTORE POP JUMP JUMPDEST PUSH1 0x0 PUSH2 0x2700 PUSH1 0x14 DUP4 PUSH2 0x230A JUMP JUMPDEST SWAP2 POP PUSH2 0x270B DUP3 PUSH2 0x26CA JUMP JUMPDEST PUSH1 0x20 DUP3 ADD SWAP1 POP SWAP2 SWAP1 POP JUMP JUMPDEST PUSH1 0x0 PUSH1 0x20 DUP3 ADD SWAP1 POP DUP2 DUP2 SUB PUSH1 0x0 DUP4 ADD MSTORE PUSH2 0x272F DUP2 PUSH2 0x26F3 JUMP JUMPDEST SWAP1 POP SWAP2 SWAP1 POP JUMP JUMPDEST PUSH32 0x496E76616C696420757365722061646472657373000000000000000000000000 PUSH1 0x0 DUP3 ADD MSTORE POP JUMP JUMPDEST PUSH1 0x0 PUSH2 0x276C PUSH1 0x14 DUP4 PUSH2 0x230A JUMP JUMPDEST SWAP2 POP PUSH2 0x2777 DUP3 PUSH2 0x2736 JUMP JUMPDEST PUSH1 0x20 DUP3 ADD SWAP1 POP SWAP2 SWAP1 POP JUMP JUMPDEST PUSH1 0x0 PUSH1 0x20 DUP3 ADD SWAP1 POP DUP2 DUP2 SUB PUSH1 0x0 DUP4 ADD MSTORE PUSH2 0x279B DUP2 PUSH2 0x275F JUMP JUMPDEST SWAP1 POP SWAP2 SWAP1 POP JUMP JUMPDEST PUSH32 0x55736572206973206E6F7420696E766F6C76656420696E207468697320657870 PUSH1 0x0 DUP3 ADD MSTORE PUSH32 0x656E736500000000000000000000000000000000000000000000000000000000 PUSH1 0x20 DUP3 ADD MSTORE POP JUMP JUMPDEST PUSH1 0x0 PUSH2 0x27FE PUSH1 0x24 DUP4 PUSH2 0x230A JUMP JUMPDEST SWAP2 POP PUSH2 0x2809 DUP3 PUSH2 0x27A2 JUMP JUMPDEST PUSH1 0x40 DUP3 ADD SWAP1 POP SWAP2 SWAP1 POP JUMP JUMPDEST PUSH1 0x0 PUSH1 0x20 DUP3 ADD SWAP1 POP DUP2 DUP2 SUB PUSH1 0x0 DUP4 ADD MSTORE PUSH2 0x282D DUP2 PUSH2 0x27F1 JUMP JUMPDEST SWAP1 POP SWAP2 SWAP1 POP JUMP JUMPDEST PUSH32 0x557365722068617320616C7265616479206265656E206D61726B656420617320 PUSH1 0x0 DUP3 ADD MSTORE PUSH32 0x7061696400000000000000000000000000000000000000000000000000000000 PUSH1 0x20 DUP3 ADD MSTORE POP JUMP JUMPDEST PUSH1 0x0 PUSH2 0x2890 PUSH1 0x24 DUP4 PUSH2 0x230A JUMP JUMPDEST SWAP2 POP PUSH2 0x289B DUP3 PUSH2 0x2834 JUMP JUMPDEST PUSH1 0x40 DUP3 ADD SWAP1 POP SWAP2 SWAP1 POP JUMP JUMPDEST PUSH1 0x0 PUSH1 0x20 DUP3 ADD SWAP1 POP DUP2 DUP2 SUB PUSH1 0x0 DUP4 ADD MSTORE PUSH2 0x28BF DUP2 PUSH2 0x2883 JUMP JUMPDEST SWAP1 POP SWAP2 SWAP1 POP JUMP JUMPDEST PUSH1 0x0 PUSH2 0x28D1 DUP3 PUSH2 0x2012 JUMP JUMPDEST SWAP2 POP PUSH2 0x28DC DUP4 PUSH2 0x2012 JUMP JUMPDEST SWAP3 POP DUP3 DUP3 SUB SWAP1 POP DUP2 DUP2 SLT PUSH1 0x0 DUP5 SLT AND DUP3 DUP3 SGT PUSH1 0x0 DUP6 SLT ISZERO AND OR ISZERO PUSH2 0x2903 JUMPI PUSH2 0x2902 PUSH2 0x2587 JUMP JUMPDEST JUMPDEST SWAP3 SWAP2 POP POP JUMP JUMPDEST PUSH1 0x0 DUP2 SWAP1 POP DUP2 PUSH1 0x0 MSTORE PUSH1 0x20 PUSH1 0x0 KECCAK256 SWAP1 POP SWAP2 SWAP1 POP JUMP JUMPDEST PUSH1 0x0 PUSH1 0x20 PUSH1 0x1F DUP4 ADD DIV SWAP1 POP SWAP2 SWAP1 POP JUMP JUMPDEST PUSH1 0x0 DUP3 DUP3 SHL SWAP1 POP SWAP3 SWAP2 POP POP JUMP JUMPDEST PUSH1 0x0 PUSH1 0x8 DUP4 MUL PUSH2 0x296B PUSH32 0xFFFFFFFFFFFFFFFFFFFFFFFFFFFFFFFFFFFFFFFFFFFFFFFFFFFFFFFFFFFFFFFF DUP3 PUSH2 0x292E JUMP JUMPDEST PUSH2 0x2975 DUP7 DUP4 PUSH2 0x292E JUMP JUMPDEST SWAP6 POP DUP1 NOT DUP5 AND SWAP4 POP DUP1 DUP7 AND DUP5 OR SWAP3 POP POP POP SWAP4 SWAP3 POP POP POP JUMP JUMPDEST PUSH1 0x0 DUP2 SWAP1 POP SWAP2 SWAP1 POP JUMP JUMPDEST PUSH1 0x0 PUSH2 0x29B2 PUSH2 0x29AD PUSH2 0x29A8 DUP5 PUSH2 0x1B47 JUMP JUMPDEST PUSH2 0x298D JUMP JUMPDEST PUSH2 0x1B47 JUMP JUMPDEST SWAP1 POP SWAP2 SWAP1 POP JUMP JUMPDEST PUSH1 0x0 DUP2 SWAP1 POP SWAP2 SWAP1 POP JUMP JUMPDEST PUSH2 0x29CC DUP4 PUSH2 0x2997 JUMP JUMPDEST PUSH2 0x29E0 PUSH2 0x29D8 DUP3 PUSH2 0x29B9 JUMP JUMPDEST DUP5 DUP5 SLOAD PUSH2 0x293B JUMP JUMPDEST DUP3 SSTORE POP POP POP POP JUMP JUMPDEST PUSH1 0x0 SWAP1 JUMP JUMPDEST PUSH2 0x29F5 PUSH2 0x29E8 JUMP JUMPDEST PUSH2 0x2A00 DUP2 DUP5 DUP5 PUSH2 0x29C3 JUMP JUMPDEST POP POP POP JUMP JUMPDEST JUMPDEST DUP2 DUP2 LT ISZERO PUSH2 0x2A24 JUMPI PUSH2 0x2A19 PUSH1 0x0 DUP3 PUSH2 0x29ED JUMP JUMPDEST PUSH1 0x1 DUP2 ADD SWAP1 POP PUSH2 0x2A06 JUMP JUMPDEST POP POP JUMP JUMPDEST PUSH1 0x1F DUP3 GT ISZERO PUSH2 0x2A69 JUMPI PUSH2 0x2A3A DUP2 PUSH2 0x2909 JUMP JUMPDEST PUSH2 0x2A43 DUP5 PUSH2 0x291E JUMP JUMPDEST DUP2 ADD PUSH1 0x20 DUP6 LT ISZERO PUSH2 0x2A52 JUMPI DUP2 SWAP1 POP JUMPDEST PUSH2 0x2A66 PUSH2 0x2A5E DUP6 PUSH2 0x291E JUMP JUMPDEST DUP4 ADD DUP3 PUSH2 0x2A05 JUMP JUMPDEST POP POP JUMPDEST POP POP POP JUMP JUMPDEST PUSH1 0x0 DUP3 DUP3 SHR SWAP1 POP SWAP3 SWAP2 POP POP JUMP JUMPDEST PUSH1 0x0 PUSH2 0x2A8C PUSH1 0x0 NOT DUP5 PUSH1 0x8 MUL PUSH2 0x2A6E JUMP JUMPDEST NOT DUP1 DUP4 AND SWAP2 POP POP SWAP3 SWAP2 POP POP JUMP JUMPDEST PUSH1 0x0 PUSH2 0x2AA5 DUP4 DUP4 PUSH2 0x2A7B JUMP JUMPDEST SWAP2 POP DUP3 PUSH1 0x2 MUL DUP3 OR SWAP1 POP SWAP3 SWAP2 POP POP JUMP JUMPDEST PUSH2 0x2ABE DUP3 PUSH2 0x1B60 JUMP JUMPDEST PUSH8 0xFFFFFFFFFFFFFFFF DUP2 GT ISZERO PUSH2 0x2AD7 JUMPI PUSH2 0x2AD6 PUSH2 0x204B JUMP JUMPDEST JUMPDEST PUSH2 0x2AE1 DUP3 SLOAD PUSH2 0x262D JUMP JUMPDEST PUSH2 0x2AEC DUP3 DUP3 DUP6 PUSH2 0x2A28 JUMP JUMPDEST PUSH1 0x0 PUSH1 0x20 SWAP1 POP PUSH1 0x1F DUP4 GT PUSH1 0x1 DUP2 EQ PUSH2 0x2B1F JUMPI PUSH1 0x0 DUP5 ISZERO PUSH2 0x2B0D JUMPI DUP3 DUP8 ADD MLOAD SWAP1 POP JUMPDEST PUSH2 0x2B17 DUP6 DUP3 PUSH2 0x2A99 JUMP JUMPDEST DUP7 SSTORE POP PUSH2 0x2B7F JUMP JUMPDEST PUSH1 0x1F NOT DUP5 AND PUSH2 0x2B2D DUP7 PUSH2 0x2909 JUMP JUMPDEST PUSH1 0x0 JUMPDEST DUP3 DUP2 LT ISZERO PUSH2 0x2B55 JUMPI DUP5 DUP10 ADD MLOAD DUP3 SSTORE PUSH1 0x1 DUP3 ADD SWAP2 POP PUSH1 0x20 DUP6 ADD SWAP5 POP PUSH1 0x20 DUP2 ADD SWAP1 POP PUSH2 0x2B30 JUMP JUMPDEST DUP7 DUP4 LT ISZERO PUSH2 0x2B72 JUMPI DUP5 DUP10 ADD MLOAD PUSH2 0x2B6E PUSH1 0x1F DUP10 AND DUP3 PUSH2 0x2A7B JUMP JUMPDEST DUP4 SSTORE POP JUMPDEST PUSH1 0x1 PUSH1 0x2 DUP9 MUL ADD DUP9 SSTORE POP POP POP JUMPDEST POP POP POP POP POP POP JUMP JUMPDEST PUSH32 0x457870656E736520616C726561647920736574746C6564000000000000000000 PUSH1 0x0 DUP3 ADD MSTORE POP JUMP JUMPDEST PUSH1 0x0 PUSH2 0x2BBD PUSH1 0x17 DUP4 PUSH2 0x230A JUMP JUMPDEST SWAP2 POP PUSH2 0x2BC8 DUP3 PUSH2 0x2B87 JUMP JUMPDEST PUSH1 0x20 DUP3 ADD SWAP1 POP SWAP2 SWAP1 POP JUMP JUMPDEST PUSH1 0x0 PUSH1 0x20 DUP3 ADD SWAP1 POP DUP2 DUP2 SUB PUSH1 0x0 DUP4 ADD MSTORE PUSH2 0x2BEC DUP2 PUSH2 0x2BB0 JUMP JUMPDEST SWAP1 POP SWAP2 SWAP1 POP JUMP JUMPDEST PUSH1 0x0 PUSH1 0x20 DUP3 ADD SWAP1 POP PUSH2 0x2C08 PUSH1 0x0 DUP4 ADD DUP5 PUSH2 0x22FB JUMP JUMPDEST SWAP3 SWAP2 POP POP JUMP JUMPDEST PUSH32 0x4D69736D61746368656420617272617973000000000000000000000000000000 PUSH1 0x0 DUP3 ADD MSTORE POP JUMP JUMPDEST PUSH1 0x0 PUSH2 0x2C44 PUSH1 0x11 DUP4 PUSH2 0x230A JUMP JUMPDEST SWAP2 POP PUSH2 0x2C4F DUP3 PUSH2 0x2C0E JUMP JUMPDEST PUSH1 0x20 DUP3 ADD SWAP1 POP SWAP2 SWAP1 POP JUMP JUMPDEST PUSH1 0x0 PUSH1 0x20 DUP3 ADD SWAP1 POP DUP2 DUP2 SUB PUSH1 0x0 DUP4 ADD MSTORE PUSH2 0x2C73 DUP2 PUSH2 0x2C37 JUMP JUMPDEST SWAP1 POP SWAP2 SWAP1 POP JUMP JUMPDEST PUSH1 0x0 PUSH2 0x2C85 DUP3 PUSH2 0x2012 JUMP JUMPDEST SWAP2 POP PUSH2 0x2C90 DUP4 PUSH2 0x2012 JUMP JUMPDEST SWAP3 POP DUP3 DUP3 ADD SWAP1 POP DUP3 DUP2 SLT ISZERO PUSH1 0x0 DUP4 SLT AND DUP4 DUP3 SLT PUSH1 0x0 DUP5 SLT ISZERO AND OR ISZERO PUSH2 0x2CB8 JUMPI PUSH2 0x2CB7 PUSH2 0x2587 JUMP JUMPDEST JUMPDEST SWAP3 SWAP2 POP POP JUMP INVALID LOG2 PUSH5 0x6970667358 0x22 SLT KECCAK256 0xE1 INVALID 0x2D 0x4D SUB SWAP7 RETURNDATACOPY DUP5 0xBE PUSH5 0xFFDAE3A11B 0xD9 PUSH32 0xFDA4D6CE86E0F26E08B7348D6C452C64736F6C634300081B0033000000000000 "},"methodIdentifiers":{"balances(address)":"27e235e3","createExpense(address[],uint256[],string,uint256)":"cc2dfb03","deleteExpense(uint256)":"0a46ae49","editExpense(uint256,string)":"7512dbaa","expenses(uint256)":"af4afe0a","getBalance(address)":"f8b2cb4f","getExpensesByOwner(address)":"0697ca06","getExpensesOfCaller()":"d7821b93","markUserAsPaid(uint256[],address)":"5d98878c","settleExpense(uint256)":"c0a7540b"}}}}}