{
  "_format": "hh-sol-artifact-1",
  "contractName": "Splitwise",
  "sourceName": "contracts/Splitwise.sol",
  "abi": [
    {
      "anonymous": false,
      "inputs": [
        {
          "indexed": false,
          "internalType": "uint256",
          "name": "expenseId",
          "type": "uint256"
        }
      ],
      "name": "ExpenseCreated",
      "type": "event"
    },
    {
      "anonymous": false,
      "inputs": [
        {
          "indexed": false,
          "internalType": "uint256",
          "name": "expenseId",
          "type": "uint256"
        }
      ],
      "name": "ExpenseSettled",
      "type": "event"
    },
    {
      "anonymous": false,
      "inputs": [
        {
          "indexed": false,
          "internalType": "address",
          "name": "user",
          "type": "address"
        },
        {
          "indexed": false,
          "internalType": "uint256",
          "name": "amount",
          "type": "uint256"
        }
      ],
      "name": "TokensRewarded",
      "type": "event"
    },
    {
      "inputs": [
        {
          "internalType": "address",
          "name": "",
          "type": "address"
        }
      ],
      "name": "balances",
      "outputs": [
        {
          "internalType": "int256",
          "name": "",
          "type": "int256"
        }
      ],
      "stateMutability": "view",
      "type": "function"
    },
    {
      "inputs": [
        {
          "internalType": "address[]",
          "name": "members",
          "type": "address[]"
        },
        {
          "internalType": "uint256[]",
          "name": "amounts",
          "type": "uint256[]"
        },
        {
          "internalType": "string",
          "name": "description",
          "type": "string"
        },
        {
          "internalType": "uint256",
          "name": "interestRate",
          "type": "uint256"
        }
      ],
      "name": "createExpense",
      "outputs": [],
      "stateMutability": "nonpayable",
      "type": "function"
    },
    {
      "inputs": [
        {
          "internalType": "uint256",
          "name": "expenseId",
          "type": "uint256"
        }
      ],
      "name": "deleteExpense",
      "outputs": [],
      "stateMutability": "nonpayable",
      "type": "function"
    },
    {
      "inputs": [
        {
          "internalType": "uint256",
          "name": "expenseId",
          "type": "uint256"
        },
        {
          "internalType": "string",
          "name": "newDescription",
          "type": "string"
        }
      ],
      "name": "editExpense",
      "outputs": [],
      "stateMutability": "nonpayable",
      "type": "function"
    },
    {
      "inputs": [
        {
          "internalType": "uint256",
          "name": "",
          "type": "uint256"
        }
      ],
      "name": "expenses",
      "outputs": [
        {
          "internalType": "uint256",
          "name": "id",
          "type": "uint256"
        },
        {
          "internalType": "string",
          "name": "description",
          "type": "string"
        },
        {
          "internalType": "address",
          "name": "owner",
          "type": "address"
        },
        {
          "internalType": "bool",
          "name": "isSettled",
          "type": "bool"
        },
        {
          "internalType": "uint256",
          "name": "interestRate",
          "type": "uint256"
        },
        {
          "internalType": "uint256",
          "name": "creationTimestamp",
          "type": "uint256"
        }
      ],
      "stateMutability": "view",
      "type": "function"
    },
    {
      "inputs": [
        {
          "internalType": "address",
          "name": "user",
          "type": "address"
        }
      ],
      "name": "getBalance",
      "outputs": [
        {
          "internalType": "int256",
          "name": "",
          "type": "int256"
        }
      ],
      "stateMutability": "view",
      "type": "function"
    },
    {
      "inputs": [
        {
          "internalType": "address",
          "name": "owner",
          "type": "address"
        }
      ],
      "name": "getExpensesByOwner",
      "outputs": [
        {
          "components": [
            {
              "internalType": "uint256",
              "name": "id",
              "type": "uint256"
            },
            {
              "internalType": "string",
              "name": "description",
              "type": "string"
            },
            {
              "internalType": "address",
              "name": "owner",
              "type": "address"
            },
            {
              "internalType": "address[]",
              "name": "involvedMembers",
              "type": "address[]"
            },
            {
              "internalType": "uint256[]",
              "name": "amountsOwed",
              "type": "uint256[]"
            },
            {
              "internalType": "bool",
              "name": "isSettled",
              "type": "bool"
            },
            {
              "internalType": "bool[]",
              "name": "hasPaid",
              "type": "bool[]"
            },
            {
              "internalType": "uint256",
              "name": "interestRate",
              "type": "uint256"
            },
            {
              "internalType": "uint256",
              "name": "creationTimestamp",
              "type": "uint256"
            }
          ],
          "internalType": "struct Splitwise.Expense[]",
          "name": "",
          "type": "tuple[]"
        }
      ],
      "stateMutability": "view",
      "type": "function"
    },
    {
      "inputs": [],
      "name": "getExpensesOfCaller",
      "outputs": [
        {
          "components": [
            {
              "internalType": "uint256",
              "name": "id",
              "type": "uint256"
            },
            {
              "internalType": "string",
              "name": "description",
              "type": "string"
            },
            {
              "internalType": "address",
              "name": "owner",
              "type": "address"
            },
            {
              "internalType": "address[]",
              "name": "involvedMembers",
              "type": "address[]"
            },
            {
              "internalType": "uint256[]",
              "name": "amountsOwed",
              "type": "uint256[]"
            },
            {
              "internalType": "bool",
              "name": "isSettled",
              "type": "bool"
            },
            {
              "internalType": "bool[]",
              "name": "hasPaid",
              "type": "bool[]"
            },
            {
              "internalType": "uint256",
              "name": "interestRate",
              "type": "uint256"
            },
            {
              "internalType": "uint256",
              "name": "creationTimestamp",
              "type": "uint256"
            }
          ],
          "internalType": "struct Splitwise.Expense[]",
          "name": "",
          "type": "tuple[]"
        }
      ],
      "stateMutability": "view",
      "type": "function"
    },
    {
      "inputs": [
        {
          "internalType": "address",
          "name": "user",
          "type": "address"
        }
      ],
      "name": "getRewardTokens",
      "outputs": [
        {
          "internalType": "uint256",
          "name": "",
          "type": "uint256"
        }
      ],
      "stateMutability": "view",
      "type": "function"
    },
    {
      "inputs": [
        {
          "internalType": "uint256[]",
          "name": "expenseIds",
          "type": "uint256[]"
        },
        {
          "internalType": "address",
          "name": "user",
          "type": "address"
        }
      ],
      "name": "markUserAsPaid",
      "outputs": [],
      "stateMutability": "nonpayable",
      "type": "function"
    },
    {
      "inputs": [
        {
          "internalType": "address",
          "name": "",
          "type": "address"
        }
      ],
      "name": "rewardTokens",
      "outputs": [
        {
          "internalType": "uint256",
          "name": "",
          "type": "uint256"
        }
      ],
      "stateMutability": "view",
      "type": "function"
    },
    {
      "inputs": [
        {
          "internalType": "uint256",
          "name": "expenseId",
          "type": "uint256"
        }
      ],
      "name": "settleExpense",
      "outputs": [],
      "stateMutability": "nonpayable",
      "type": "function"
    }
  ],
  "bytecode": "0x6080604052348015600f57600080fd5b50612eda8061001f6000396000f3fe608060405234801561001057600080fd5b50600436106100b35760003560e01c8063af4afe0a11610071578063af4afe0a1461019c578063c0a7540b146101d1578063cc2dfb03146101ed578063d7821b9314610209578063f5ab16cc14610227578063f8b2cb4f14610257576100b3565b806201b0b6146100b85780630697ca06146100e85780630a46ae491461011857806327e235e3146101345780635d98878c146101645780637512dbaa14610180575b600080fd5b6100d260048036038101906100cd9190611c33565b610287565b6040516100df9190611c79565b60405180910390f35b61010260048036038101906100fd9190611c33565b6102cf565b60405161010f9190612106565b60405180910390f35b610132600480360381019061012d9190612154565b610750565b005b61014e60048036038101906101499190611c33565b610852565b60405161015b919061219a565b60405180910390f35b61017e600480360381019061017991906122fd565b61086a565b005b61019a6004803603810190610195919061240e565b610d6f565b005b6101b660048036038101906101b19190612154565b610ded565b6040516101c8969594939291906124d2565b60405180910390f35b6101eb60048036038101906101e69190612154565b610eee565b005b610207600480360381019061020291906125fd565b611020565b005b610211611318565b60405161021e9190612106565b60405180910390f35b610241600480360381019061023c9190611c33565b611859565b60405161024e9190611c79565b60405180910390f35b610271600480360381019061026c9190611c33565b611871565b60405161027e919061219a565b60405180910390f35b60008060008373ffffffffffffffffffffffffffffffffffffffff1673ffffffffffffffffffffffffffffffffffffffff168152602001908152602001600020549050919050565b60606000805b600280549050811015610376578373ffffffffffffffffffffffffffffffffffffffff166002828154811061030d5761030c6126b8565b5b906000526020600020906009020160020160009054906101000a900473ffffffffffffffffffffffffffffffffffffffff1673ffffffffffffffffffffffffffffffffffffffff160361036957818061036590612716565b9250505b80806001019150506102d5565b5060008167ffffffffffffffff811115610393576103926121ba565b5b6040519080825280602002602001820160405280156103cc57816020015b6103b9611919565b8152602001906001900390816103b15790505b5090506000805b600280549050811015610744578573ffffffffffffffffffffffffffffffffffffffff166002828154811061040b5761040a6126b8565b5b906000526020600020906009020160020160009054906101000a900473ffffffffffffffffffffffffffffffffffffffff1673ffffffffffffffffffffffffffffffffffffffff1603610737576002818154811061046c5761046b6126b8565b5b906000526020600020906009020160405180610120016040529081600082015481526020016001820180546104a09061278d565b80601f01602080910402602001604051908101604052809291908181526020018280546104cc9061278d565b80156105195780601f106104ee57610100808354040283529160200191610519565b820191906000526020600020905b8154815290600101906020018083116104fc57829003601f168201915b505050505081526020016002820160009054906101000a900473ffffffffffffffffffffffffffffffffffffffff1673ffffffffffffffffffffffffffffffffffffffff1673ffffffffffffffffffffffffffffffffffffffff168152602001600382018054806020026020016040519081016040528092919081815260200182805480156105fd57602002820191906000526020600020905b8160009054906101000a900473ffffffffffffffffffffffffffffffffffffffff1673ffffffffffffffffffffffffffffffffffffffff16815260200190600101908083116105b3575b505050505081526020016004820180548060200260200160405190810160405280929190818152602001828054801561065557602002820191906000526020600020905b815481526020019060010190808311610641575b505050505081526020016005820160009054906101000a900460ff16151515158152602001600682018054806020026020016040519081016040528092919081815260200182805480156106ed57602002820191906000526020600020906000905b82829054906101000a900460ff161515815260200190600101906020826000010492830192600103820291508084116106b75790505b505050505081526020016007820154815260200160088201548152505083838151811061071d5761071c6126b8565b5b6020026020010181905250818061073390612716565b9250505b80806001019150506103d3565b50819350505050919050565b6002805490508110610797576040517f08c379a000000000000000000000000000000000000000000000000000000000815260040161078e9061280a565b60405180910390fd5b600281815481106107ab576107aa6126b8565b5b90600052602060002090600902016000808201600090556001820160006107d2919061197d565b6002820160006101000a81549073ffffffffffffffffffffffffffffffffffffffff021916905560038201600061080991906119bd565b60048201600061081991906119de565b6005820160006101000a81549060ff021916905560068201600061083d91906119ff565b60078201600090556008820160009055505050565b60016020528060005260406000206000915090505481565b600073ffffffffffffffffffffffffffffffffffffffff168173ffffffffffffffffffffffffffffffffffffffff16036108d9576040517f08c379a00000000000000000000000000000000000000000000000000000000081526004016108d090612876565b60405180910390fd5b60005b8251811015610d6a5760008382815181106108fa576108f96126b8565b5b60200260200101519050600280549050811061094b576040517f08c379a00000000000000000000000000000000000000000000000000000000081526004016109429061280a565b60405180910390fd5b600081101561098f576040517f08c379a0000000000000000000000000000000000000000000000000000000008152600401610986906128e2565b60405180910390fd5b6000805b600283815481106109a7576109a66126b8565b5b906000526020600020906009020160030180549050811015610d21578473ffffffffffffffffffffffffffffffffffffffff16600284815481106109ee576109ed6126b8565b5b90600052602060002090600902016003018281548110610a1157610a106126b8565b5b9060005260206000200160009054906101000a900473ffffffffffffffffffffffffffffffffffffffff1673ffffffffffffffffffffffffffffffffffffffff1603610ca95760028381548110610a6b57610a6a6126b8565b5b90600052602060002090600902016006018181548110610a8e57610a8d6126b8565b5b90600052602060002090602091828204019190069054906101000a900460ff1615610aee576040517f08c379a0000000000000000000000000000000000000000000000000000000008152600401610ae590612974565b60405180910390fd5b60028381548110610b0257610b016126b8565b5b90600052602060002090600902016004018181548110610b2557610b246126b8565b5b9060005260206000200154600160008773ffffffffffffffffffffffffffffffffffffffff1673ffffffffffffffffffffffffffffffffffffffff1681526020019081526020016000206000828254610b7e9190612994565b92505081905550600160028481548110610b9b57610b9a6126b8565b5b90600052602060002090600902016006018281548110610bbe57610bbd6126b8565b5b90600052602060002090602091828204019190066101000a81548160ff0219169083151502179055506000610c1760028581548110610c0057610bff6126b8565b5b9060005260206000209060090201600801546118ba565b9050806000808873ffffffffffffffffffffffffffffffffffffffff1673ffffffffffffffffffffffffffffffffffffffff1681526020019081526020016000206000828254610c6791906129d7565b925050819055507f0d3ecba324ef5a283bcbd5d1a966cab18661432ab3575740c588f7a0144b0dfa8682604051610c9f929190612a0b565b60405180910390a1505b60028381548110610cbd57610cbc6126b8565b5b90600052602060002090600902016006018181548110610ce057610cdf6126b8565b5b90600052602060002090602091828204019190069054906101000a900460ff1615610d14578180610d1090612716565b9250505b8080600101915050610993565b5060028281548110610d3657610d356126b8565b5b9060005260206000209060090201600301805490508103610d5b57610d5a82610eee565b5b505080806001019150506108dc565b505050565b6002805490508210610db6576040517f08c379a0000000000000000000000000000000000000000000000000000000008152600401610dad9061280a565b60405180910390fd5b8060028381548110610dcb57610dca6126b8565b5b90600052602060002090600902016001019081610de89190612be0565b505050565b60028181548110610dfd57600080fd5b9060005260206000209060090201600091509050806000015490806001018054610e269061278d565b80601f0160208091040260200160405190810160405280929190818152602001828054610e529061278d565b8015610e9f5780601f10610e7457610100808354040283529160200191610e9f565b820191906000526020600020905b815481529060010190602001808311610e8257829003601f168201915b5050505050908060020160009054906101000a900473ffffffffffffffffffffffffffffffffffffffff16908060050160009054906101000a900460ff16908060070154908060080154905086565b6002805490508110610f35576040517f08c379a0000000000000000000000000000000000000000000000000000000008152600401610f2c9061280a565b60405180910390fd5b60028181548110610f4957610f486126b8565b5b906000526020600020906009020160050160009054906101000a900460ff1615610fa8576040517f08c379a0000000000000000000000000000000000000000000000000000000008152600401610f9f90612cfe565b60405180910390fd5b600160028281548110610fbe57610fbd6126b8565b5b906000526020600020906009020160050160006101000a81548160ff0219169083151502179055507f0f645877fe838126f91b4e7f0c2002e96576b70d9d3483c64ad47a4c586fbf2b816040516110159190611c79565b60405180910390a150565b8251845114611064576040517f08c379a000000000000000000000000000000000000000000000000000000000815260040161105b90612d6a565b60405180910390fd5b60004290506000600280549050905060026040518061012001604052808381526020018681526020013373ffffffffffffffffffffffffffffffffffffffff168152602001888152602001878152602001600015158152602001885167ffffffffffffffff8111156110d9576110d86121ba565b5b6040519080825280602002602001820160405280156111075781602001602082028036833780820191505090505b50815260200185815260200184815250908060018154018082558091505060019003906000526020600020906009020160009091909190915060008201518160000155602082015181600101908161115f9190612be0565b5060408201518160020160006101000a81548173ffffffffffffffffffffffffffffffffffffffff021916908373ffffffffffffffffffffffffffffffffffffffff16021790555060608201518160030190805190602001906111c3929190611a27565b5060808201518160040190805190602001906111e0929190611ab1565b5060a08201518160050160006101000a81548160ff02191690831515021790555060c082015181600601908051906020019061121d929190611afe565b5060e08201518160070155610100820151816008015550507f8a4fcfa8215b159e8137e3e3ab607d6b2a27ddcbac44eca414476e096d74f4d2816040516112649190611c79565b60405180910390a160005b865181101561130f5785818151811061128b5761128a6126b8565b5b6020026020010151600160008984815181106112aa576112a96126b8565b5b602002602001015173ffffffffffffffffffffffffffffffffffffffff1673ffffffffffffffffffffffffffffffffffffffff16815260200190815260200160002060008282546112fb9190612d8a565b92505081905550808060010191505061126f565b50505050505050565b60606000805b6002805490508110156114205760005b60028281548110611342576113416126b8565b5b906000526020600020906009020160030180549050811015611412573373ffffffffffffffffffffffffffffffffffffffff1660028381548110611389576113886126b8565b5b906000526020600020906009020160030182815481106113ac576113ab6126b8565b5b9060005260206000200160009054906101000a900473ffffffffffffffffffffffffffffffffffffffff1673ffffffffffffffffffffffffffffffffffffffff16036114055782806113fd90612716565b935050611412565b808060010191505061132e565b50808060010191505061131e565b5060008167ffffffffffffffff81111561143d5761143c6121ba565b5b60405190808252806020026020018201604052801561147657816020015b611463611919565b81526020019060019003908161145b5790505b5090506000805b60028054905081101561184f5760005b600282815481106114a1576114a06126b8565b5b906000526020600020906009020160030180549050811015611841573373ffffffffffffffffffffffffffffffffffffffff16600283815481106114e8576114e76126b8565b5b9060005260206000209060090201600301828154811061150b5761150a6126b8565b5b9060005260206000200160009054906101000a900473ffffffffffffffffffffffffffffffffffffffff1673ffffffffffffffffffffffffffffffffffffffff16036118345760028281548110611565576115646126b8565b5b906000526020600020906009020160405180610120016040529081600082015481526020016001820180546115999061278d565b80601f01602080910402602001604051908101604052809291908181526020018280546115c59061278d565b80156116125780601f106115e757610100808354040283529160200191611612565b820191906000526020600020905b8154815290600101906020018083116115f557829003601f168201915b505050505081526020016002820160009054906101000a900473ffffffffffffffffffffffffffffffffffffffff1673ffffffffffffffffffffffffffffffffffffffff1673ffffffffffffffffffffffffffffffffffffffff168152602001600382018054806020026020016040519081016040528092919081815260200182805480156116f657602002820191906000526020600020905b8160009054906101000a900473ffffffffffffffffffffffffffffffffffffffff1673ffffffffffffffffffffffffffffffffffffffff16815260200190600101908083116116ac575b505050505081526020016004820180548060200260200160405190810160405280929190818152602001828054801561174e57602002820191906000526020600020905b81548152602001906001019080831161173a575b505050505081526020016005820160009054906101000a900460ff16151515158152602001600682018054806020026020016040519081016040528092919081815260200182805480156117e657602002820191906000526020600020906000905b82829054906101000a900460ff161515815260200190600101906020826000010492830192600103820291508084116117b05790505b5050505050815260200160078201548152602001600882015481525050848481518110611816576118156126b8565b5b6020026020010181905250828061182c90612716565b935050611841565b808060010191505061148d565b50808060010191505061147d565b5081935050505090565b60006020528060005260406000206000915090505481565b6000600160008373ffffffffffffffffffffffffffffffffffffffff1673ffffffffffffffffffffffffffffffffffffffff168152602001908152602001600020549050919050565b6000806201518083426118cd9190612dce565b6118d79190612e31565b9050600a81106118eb576000915050611914565b600a8160646118fa9190612e62565b6119049190612e31565b60646119109190612dce565b9150505b919050565b6040518061012001604052806000815260200160608152602001600073ffffffffffffffffffffffffffffffffffffffff16815260200160608152602001606081526020016000151581526020016060815260200160008152602001600081525090565b5080546119899061278d565b6000825580601f1061199b57506119ba565b601f0160209004906000526020600020908101906119b99190611ba4565b5b50565b50805460008255906000526020600020908101906119db9190611ba4565b50565b50805460008255906000526020600020908101906119fc9190611ba4565b50565b50805460008255601f016020900490600052602060002090810190611a249190611ba4565b50565b828054828255906000526020600020908101928215611aa0579160200282015b82811115611a9f5782518260006101000a81548173ffffffffffffffffffffffffffffffffffffffff021916908373ffffffffffffffffffffffffffffffffffffffff16021790555091602001919060010190611a47565b5b509050611aad9190611ba4565b5090565b828054828255906000526020600020908101928215611aed579160200282015b82811115611aec578251825591602001919060010190611ad1565b5b509050611afa9190611ba4565b5090565b82805482825590600052602060002090601f01602090048101928215611b935791602002820160005b83821115611b6457835183826101000a81548160ff0219169083151502179055509260200192600101602081600001049283019260010302611b27565b8015611b915782816101000a81549060ff0219169055600101602081600001049283019260010302611b64565b505b509050611ba09190611ba4565b5090565b5b80821115611bbd576000816000905550600101611ba5565b5090565b6000604051905090565b600080fd5b600080fd5b600073ffffffffffffffffffffffffffffffffffffffff82169050919050565b6000611c0082611bd5565b9050919050565b611c1081611bf5565b8114611c1b57600080fd5b50565b600081359050611c2d81611c07565b92915050565b600060208284031215611c4957611c48611bcb565b5b6000611c5784828501611c1e565b91505092915050565b6000819050919050565b611c7381611c60565b82525050565b6000602082019050611c8e6000830184611c6a565b92915050565b600081519050919050565b600082825260208201905092915050565b6000819050602082019050919050565b611cc981611c60565b82525050565b600081519050919050565b600082825260208201905092915050565b60005b83811015611d09578082015181840152602081019050611cee565b60008484015250505050565b6000601f19601f8301169050919050565b6000611d3182611ccf565b611d3b8185611cda565b9350611d4b818560208601611ceb565b611d5481611d15565b840191505092915050565b611d6881611bf5565b82525050565b600081519050919050565b600082825260208201905092915050565b6000819050602082019050919050565b6000611da68383611d5f565b60208301905092915050565b6000602082019050919050565b6000611dca82611d6e565b611dd48185611d79565b9350611ddf83611d8a565b8060005b83811015611e10578151611df78882611d9a565b9750611e0283611db2565b925050600181019050611de3565b5085935050505092915050565b600081519050919050565b600082825260208201905092915050565b6000819050602082019050919050565b6000611e558383611cc0565b60208301905092915050565b6000602082019050919050565b6000611e7982611e1d565b611e838185611e28565b9350611e8e83611e39565b8060005b83811015611ebf578151611ea68882611e49565b9750611eb183611e61565b925050600181019050611e92565b5085935050505092915050565b60008115159050919050565b611ee181611ecc565b82525050565b600081519050919050565b600082825260208201905092915050565b6000819050602082019050919050565b6000611f1f8383611ed8565b60208301905092915050565b6000602082019050919050565b6000611f4382611ee7565b611f4d8185611ef2565b9350611f5883611f03565b8060005b83811015611f89578151611f708882611f13565b9750611f7b83611f2b565b925050600181019050611f5c565b5085935050505092915050565b600061012083016000830151611faf6000860182611cc0565b5060208301518482036020860152611fc78282611d26565b9150506040830151611fdc6040860182611d5f565b5060608301518482036060860152611ff48282611dbf565b9150506080830151848203608086015261200e8282611e6e565b91505060a083015161202360a0860182611ed8565b5060c083015184820360c086015261203b8282611f38565b91505060e083015161205060e0860182611cc0565b50610100830151612065610100860182611cc0565b508091505092915050565b600061207c8383611f96565b905092915050565b6000602082019050919050565b600061209c82611c94565b6120a68185611c9f565b9350836020820285016120b885611cb0565b8060005b858110156120f457848403895281516120d58582612070565b94506120e083612084565b925060208a019950506001810190506120bc565b50829750879550505050505092915050565b600060208201905081810360008301526121208184612091565b905092915050565b61213181611c60565b811461213c57600080fd5b50565b60008135905061214e81612128565b92915050565b60006020828403121561216a57612169611bcb565b5b60006121788482850161213f565b91505092915050565b6000819050919050565b61219481612181565b82525050565b60006020820190506121af600083018461218b565b92915050565b600080fd5b7f4e487b7100000000000000000000000000000000000000000000000000000000600052604160045260246000fd5b6121f282611d15565b810181811067ffffffffffffffff82111715612211576122106121ba565b5b80604052505050565b6000612224611bc1565b905061223082826121e9565b919050565b600067ffffffffffffffff8211156122505761224f6121ba565b5b602082029050602081019050919050565b600080fd5b600061227961227484612235565b61221a565b9050808382526020820190506020840283018581111561229c5761229b612261565b5b835b818110156122c557806122b1888261213f565b84526020840193505060208101905061229e565b5050509392505050565b600082601f8301126122e4576122e36121b5565b5b81356122f4848260208601612266565b91505092915050565b6000806040838503121561231457612313611bcb565b5b600083013567ffffffffffffffff81111561233257612331611bd0565b5b61233e858286016122cf565b925050602061234f85828601611c1e565b9150509250929050565b600080fd5b600067ffffffffffffffff821115612379576123786121ba565b5b61238282611d15565b9050602081019050919050565b82818337600083830152505050565b60006123b16123ac8461235e565b61221a565b9050828152602081018484840111156123cd576123cc612359565b5b6123d884828561238f565b509392505050565b600082601f8301126123f5576123f46121b5565b5b813561240584826020860161239e565b91505092915050565b6000806040838503121561242557612424611bcb565b5b60006124338582860161213f565b925050602083013567ffffffffffffffff81111561245457612453611bd0565b5b612460858286016123e0565b9150509250929050565b600082825260208201905092915050565b600061248682611ccf565b612490818561246a565b93506124a0818560208601611ceb565b6124a981611d15565b840191505092915050565b6124bd81611bf5565b82525050565b6124cc81611ecc565b82525050565b600060c0820190506124e76000830189611c6a565b81810360208301526124f9818861247b565b905061250860408301876124b4565b61251560608301866124c3565b6125226080830185611c6a565b61252f60a0830184611c6a565b979650505050505050565b600067ffffffffffffffff821115612555576125546121ba565b5b602082029050602081019050919050565b60006125796125748461253a565b61221a565b9050808382526020820190506020840283018581111561259c5761259b612261565b5b835b818110156125c557806125b18882611c1e565b84526020840193505060208101905061259e565b5050509392505050565b600082601f8301126125e4576125e36121b5565b5b81356125f4848260208601612566565b91505092915050565b6000806000806080858703121561261757612616611bcb565b5b600085013567ffffffffffffffff81111561263557612634611bd0565b5b612641878288016125cf565b945050602085013567ffffffffffffffff81111561266257612661611bd0565b5b61266e878288016122cf565b935050604085013567ffffffffffffffff81111561268f5761268e611bd0565b5b61269b878288016123e0565b92505060606126ac8782880161213f565b91505092959194509250565b7f4e487b7100000000000000000000000000000000000000000000000000000000600052603260045260246000fd5b7f4e487b7100000000000000000000000000000000000000000000000000000000600052601160045260246000fd5b600061272182611c60565b91507fffffffffffffffffffffffffffffffffffffffffffffffffffffffffffffffff8203612753576127526126e7565b5b600182019050919050565b7f4e487b7100000000000000000000000000000000000000000000000000000000600052602260045260246000fd5b600060028204905060018216806127a557607f821691505b6020821081036127b8576127b761275e565b5b50919050565b7f457870656e736520646f6573206e6f7420657869737400000000000000000000600082015250565b60006127f460168361246a565b91506127ff826127be565b602082019050919050565b60006020820190508181036000830152612823816127e7565b9050919050565b7f496e76616c696420757365722061646472657373000000000000000000000000600082015250565b600061286060148361246a565b915061286b8261282a565b602082019050919050565b6000602082019050818103600083015261288f81612853565b9050919050565b7f496e76616c696420657870656e73652049440000000000000000000000000000600082015250565b60006128cc60128361246a565b91506128d782612896565b602082019050919050565b600060208201905081810360008301526128fb816128bf565b9050919050565b7f557365722068617320616c7265616479206265656e206d61726b65642061732060008201527f7061696400000000000000000000000000000000000000000000000000000000602082015250565b600061295e60248361246a565b915061296982612902565b604082019050919050565b6000602082019050818103600083015261298d81612951565b9050919050565b600061299f82612181565b91506129aa83612181565b92508282039050818112600084121682821360008512151617156129d1576129d06126e7565b5b92915050565b60006129e282611c60565b91506129ed83611c60565b9250828201905080821115612a0557612a046126e7565b5b92915050565b6000604082019050612a2060008301856124b4565b612a2d6020830184611c6a565b9392505050565b60008190508160005260206000209050919050565b60006020601f8301049050919050565b600082821b905092915050565b600060088302612a967fffffffffffffffffffffffffffffffffffffffffffffffffffffffffffffffff82612a59565b612aa08683612a59565b95508019841693508086168417925050509392505050565b6000819050919050565b6000612add612ad8612ad384611c60565b612ab8565b611c60565b9050919050565b6000819050919050565b612af783612ac2565b612b0b612b0382612ae4565b848454612a66565b825550505050565b600090565b612b20612b13565b612b2b818484612aee565b505050565b5b81811015612b4f57612b44600082612b18565b600181019050612b31565b5050565b601f821115612b9457612b6581612a34565b612b6e84612a49565b81016020851015612b7d578190505b612b91612b8985612a49565b830182612b30565b50505b505050565b600082821c905092915050565b6000612bb760001984600802612b99565b1980831691505092915050565b6000612bd08383612ba6565b9150826002028217905092915050565b612be982611ccf565b67ffffffffffffffff811115612c0257612c016121ba565b5b612c0c825461278d565b612c17828285612b53565b600060209050601f831160018114612c4a5760008415612c38578287015190505b612c428582612bc4565b865550612caa565b601f198416612c5886612a34565b60005b82811015612c8057848901518255600182019150602085019450602081019050612c5b565b86831015612c9d5784890151612c99601f891682612ba6565b8355505b6001600288020188555050505b505050505050565b7f457870656e736520616c726561647920736574746c6564000000000000000000600082015250565b6000612ce860178361246a565b9150612cf382612cb2565b602082019050919050565b60006020820190508181036000830152612d1781612cdb565b9050919050565b7f4d69736d61746368656420617272617973000000000000000000000000000000600082015250565b6000612d5460118361246a565b9150612d5f82612d1e565b602082019050919050565b60006020820190508181036000830152612d8381612d47565b9050919050565b6000612d9582612181565b9150612da083612181565b925082820190508281121560008312168382126000841215161715612dc857612dc76126e7565b5b92915050565b6000612dd982611c60565b9150612de483611c60565b9250828203905081811115612dfc57612dfb6126e7565b5b92915050565b7f4e487b7100000000000000000000000000000000000000000000000000000000600052601260045260246000fd5b6000612e3c82611c60565b9150612e4783611c60565b925082612e5757612e56612e02565b5b828204905092915050565b6000612e6d82611c60565b9150612e7883611c60565b9250828202612e8681611c60565b91508282048414831517612e9d57612e9c6126e7565b5b509291505056fea26469706673582212209946ea363bd3fd5a14a632e2b18a7337f34197f6a08962d9c59408ed98df952464736f6c634300081b0033",
  "linkReferences": {},
  "deployedLinkReferences": {}
}