{
  "_format": "hh-sol-artifact-1",
  "contractName": "Splitwise",
  "sourceName": "contracts/Splitwise.sol",
  "abi": [
    {
      "anonymous": false,
      "inputs": [
        {
          "indexed": false,
          "internalType": "uint256",
          "name": "expenseId",
          "type": "uint256"
        }
      ],
      "name": "ExpenseCreated",
      "type": "event"
    },
    {
      "anonymous": false,
      "inputs": [
        {
          "indexed": false,
          "internalType": "uint256",
          "name": "expenseId",
          "type": "uint256"
        }
      ],
      "name": "ExpenseSettled",
      "type": "event"
    },
    {
      "anonymous": false,
      "inputs": [
        {
          "indexed": false,
          "internalType": "address",
          "name": "user",
          "type": "address"
        },
        {
          "indexed": false,
          "internalType": "uint256",
          "name": "amount",
          "type": "uint256"
        }
      ],
      "name": "TokensRewarded",
      "type": "event"
    },
    {
      "inputs": [],
      "name": "SETTLEMENT_REWARD",
      "outputs": [
        {
          "internalType": "uint256",
          "name": "",
          "type": "uint256"
        }
      ],
      "stateMutability": "view",
      "type": "function"
    },
    {
      "inputs": [
        {
          "internalType": "address",
          "name": "",
          "type": "address"
        }
      ],
      "name": "balances",
      "outputs": [
        {
          "internalType": "int256",
          "name": "",
          "type": "int256"
        }
      ],
      "stateMutability": "view",
      "type": "function"
    },
    {
      "inputs": [
        {
          "internalType": "address[]",
          "name": "members",
          "type": "address[]"
        },
        {
          "internalType": "uint256[]",
          "name": "amounts",
          "type": "uint256[]"
        },
        {
          "internalType": "string",
          "name": "description",
          "type": "string"
        },
        {
          "internalType": "uint256",
          "name": "interestRate",
          "type": "uint256"
        }
      ],
      "name": "createExpense",
      "outputs": [],
      "stateMutability": "nonpayable",
      "type": "function"
    },
    {
      "inputs": [
        {
          "internalType": "uint256",
          "name": "expenseId",
          "type": "uint256"
        }
      ],
      "name": "deleteExpense",
      "outputs": [],
      "stateMutability": "nonpayable",
      "type": "function"
    },
    {
      "inputs": [
        {
          "internalType": "uint256",
          "name": "expenseId",
          "type": "uint256"
        },
        {
          "internalType": "string",
          "name": "newDescription",
          "type": "string"
        }
      ],
      "name": "editExpense",
      "outputs": [],
      "stateMutability": "nonpayable",
      "type": "function"
    },
    {
      "inputs": [
        {
          "internalType": "uint256",
          "name": "",
          "type": "uint256"
        }
      ],
      "name": "expenses",
      "outputs": [
        {
          "internalType": "uint256",
          "name": "id",
          "type": "uint256"
        },
        {
          "internalType": "string",
          "name": "description",
          "type": "string"
        },
        {
          "internalType": "address",
          "name": "owner",
          "type": "address"
        },
        {
          "internalType": "bool",
          "name": "isSettled",
          "type": "bool"
        },
        {
          "internalType": "uint256",
          "name": "interestRate",
          "type": "uint256"
        },
        {
          "internalType": "uint256",
          "name": "creationTimestamp",
          "type": "uint256"
        }
      ],
      "stateMutability": "view",
      "type": "function"
    },
    {
      "inputs": [
        {
          "internalType": "address",
          "name": "user",
          "type": "address"
        }
      ],
      "name": "getBalance",
      "outputs": [
        {
          "internalType": "int256",
          "name": "",
          "type": "int256"
        }
      ],
      "stateMutability": "view",
      "type": "function"
    },
    {
      "inputs": [
        {
          "internalType": "address",
          "name": "owner",
          "type": "address"
        }
      ],
      "name": "getExpensesByOwner",
      "outputs": [
        {
          "components": [
            {
              "internalType": "uint256",
              "name": "id",
              "type": "uint256"
            },
            {
              "internalType": "string",
              "name": "description",
              "type": "string"
            },
            {
              "internalType": "address",
              "name": "owner",
              "type": "address"
            },
            {
              "internalType": "address[]",
              "name": "involvedMembers",
              "type": "address[]"
            },
            {
              "internalType": "uint256[]",
              "name": "amountsOwed",
              "type": "uint256[]"
            },
            {
              "internalType": "bool",
              "name": "isSettled",
              "type": "bool"
            },
            {
              "internalType": "bool[]",
              "name": "hasPaid",
              "type": "bool[]"
            },
            {
              "internalType": "uint256",
              "name": "interestRate",
              "type": "uint256"
            },
            {
              "internalType": "uint256",
              "name": "creationTimestamp",
              "type": "uint256"
            }
          ],
          "internalType": "struct Splitwise.Expense[]",
          "name": "",
          "type": "tuple[]"
        }
      ],
      "stateMutability": "view",
      "type": "function"
    },
    {
      "inputs": [],
      "name": "getExpensesOfCaller",
      "outputs": [
        {
          "components": [
            {
              "internalType": "uint256",
              "name": "id",
              "type": "uint256"
            },
            {
              "internalType": "string",
              "name": "description",
              "type": "string"
            },
            {
              "internalType": "address",
              "name": "owner",
              "type": "address"
            },
            {
              "internalType": "address[]",
              "name": "involvedMembers",
              "type": "address[]"
            },
            {
              "internalType": "uint256[]",
              "name": "amountsOwed",
              "type": "uint256[]"
            },
            {
              "internalType": "bool",
              "name": "isSettled",
              "type": "bool"
            },
            {
              "internalType": "bool[]",
              "name": "hasPaid",
              "type": "bool[]"
            },
            {
              "internalType": "uint256",
              "name": "interestRate",
              "type": "uint256"
            },
            {
              "internalType": "uint256",
              "name": "creationTimestamp",
              "type": "uint256"
            }
          ],
          "internalType": "struct Splitwise.Expense[]",
          "name": "",
          "type": "tuple[]"
        }
      ],
      "stateMutability": "view",
      "type": "function"
    },
    {
      "inputs": [
        {
          "internalType": "address",
          "name": "user",
          "type": "address"
        }
      ],
      "name": "getRewardTokens",
      "outputs": [
        {
          "internalType": "uint256",
          "name": "",
          "type": "uint256"
        }
      ],
      "stateMutability": "view",
      "type": "function"
    },
    {
      "inputs": [
        {
          "internalType": "uint256[]",
          "name": "expenseIds",
          "type": "uint256[]"
        },
        {
          "internalType": "address",
          "name": "user",
          "type": "address"
        }
      ],
      "name": "markUserAsPaid",
      "outputs": [],
      "stateMutability": "nonpayable",
      "type": "function"
    },
    {
      "inputs": [
        {
          "internalType": "address",
          "name": "",
          "type": "address"
        }
      ],
      "name": "rewardTokens",
      "outputs": [
        {
          "internalType": "uint256",
          "name": "",
          "type": "uint256"
        }
      ],
      "stateMutability": "view",
      "type": "function"
    },
    {
      "inputs": [
        {
          "internalType": "uint256",
          "name": "expenseId",
          "type": "uint256"
        }
      ],
      "name": "settleExpense",
      "outputs": [],
      "stateMutability": "nonpayable",
      "type": "function"
    }
  ],
  "bytecode": "0x6080604052348015600f57600080fd5b50612db28061001f6000396000f3fe608060405234801561001057600080fd5b50600436106100ce5760003560e01c8063af4afe0a1161008c578063d7821b9311610066578063d7821b9314610224578063f3b9c0db14610242578063f5ab16cc14610260578063f8b2cb4f14610290576100ce565b8063af4afe0a146101b7578063c0a7540b146101ec578063cc2dfb0314610208576100ce565b806201b0b6146100d35780630697ca06146101035780630a46ae491461013357806327e235e31461014f5780635d98878c1461017f5780637512dbaa1461019b575b600080fd5b6100ed60048036038101906100e89190611be1565b6102c0565b6040516100fa9190611c27565b60405180910390f35b61011d60048036038101906101189190611be1565b610308565b60405161012a91906120b4565b60405180910390f35b61014d60048036038101906101489190612102565b610789565b005b61016960048036038101906101649190611be1565b61088b565b6040516101769190612148565b60405180910390f35b610199600480360381019061019491906122ab565b6108a3565b005b6101b560048036038101906101b091906123bc565b610d77565b005b6101d160048036038101906101cc9190612102565b610df5565b6040516101e396959493929190612480565b60405180910390f35b61020660048036038101906102019190612102565b610ef6565b005b610222600480360381019061021d91906125ab565b611028565b005b61022c611320565b60405161023991906120b4565b60405180910390f35b61024a611861565b6040516102579190611c27565b60405180910390f35b61027a60048036038101906102759190611be1565b611866565b6040516102879190611c27565b60405180910390f35b6102aa60048036038101906102a59190611be1565b61187e565b6040516102b79190612148565b60405180910390f35b60008060008373ffffffffffffffffffffffffffffffffffffffff1673ffffffffffffffffffffffffffffffffffffffff168152602001908152602001600020549050919050565b60606000805b6002805490508110156103af578373ffffffffffffffffffffffffffffffffffffffff166002828154811061034657610345612666565b5b906000526020600020906009020160020160009054906101000a900473ffffffffffffffffffffffffffffffffffffffff1673ffffffffffffffffffffffffffffffffffffffff16036103a257818061039e906126c4565b9250505b808060010191505061030e565b5060008167ffffffffffffffff8111156103cc576103cb612168565b5b60405190808252806020026020018201604052801561040557816020015b6103f26118c7565b8152602001906001900390816103ea5790505b5090506000805b60028054905081101561077d578573ffffffffffffffffffffffffffffffffffffffff166002828154811061044457610443612666565b5b906000526020600020906009020160020160009054906101000a900473ffffffffffffffffffffffffffffffffffffffff1673ffffffffffffffffffffffffffffffffffffffff160361077057600281815481106104a5576104a4612666565b5b906000526020600020906009020160405180610120016040529081600082015481526020016001820180546104d99061273b565b80601f01602080910402602001604051908101604052809291908181526020018280546105059061273b565b80156105525780601f1061052757610100808354040283529160200191610552565b820191906000526020600020905b81548152906001019060200180831161053557829003601f168201915b505050505081526020016002820160009054906101000a900473ffffffffffffffffffffffffffffffffffffffff1673ffffffffffffffffffffffffffffffffffffffff1673ffffffffffffffffffffffffffffffffffffffff1681526020016003820180548060200260200160405190810160405280929190818152602001828054801561063657602002820191906000526020600020905b8160009054906101000a900473ffffffffffffffffffffffffffffffffffffffff1673ffffffffffffffffffffffffffffffffffffffff16815260200190600101908083116105ec575b505050505081526020016004820180548060200260200160405190810160405280929190818152602001828054801561068e57602002820191906000526020600020905b81548152602001906001019080831161067a575b505050505081526020016005820160009054906101000a900460ff161515151581526020016006820180548060200260200160405190810160405280929190818152602001828054801561072657602002820191906000526020600020906000905b82829054906101000a900460ff161515815260200190600101906020826000010492830192600103820291508084116106f05790505b505050505081526020016007820154815260200160088201548152505083838151811061075657610755612666565b5b6020026020010181905250818061076c906126c4565b9250505b808060010191505061040c565b50819350505050919050565b60028054905081106107d0576040517f08c379a00000000000000000000000000000000000000000000000000000000081526004016107c7906127b8565b60405180910390fd5b600281815481106107e4576107e3612666565b5b906000526020600020906009020160008082016000905560018201600061080b919061192b565b6002820160006101000a81549073ffffffffffffffffffffffffffffffffffffffff0219169055600382016000610842919061196b565b600482016000610852919061198c565b6005820160006101000a81549060ff021916905560068201600061087691906119ad565b60078201600090556008820160009055505050565b60016020528060005260406000206000915090505481565b600073ffffffffffffffffffffffffffffffffffffffff168173ffffffffffffffffffffffffffffffffffffffff1603610912576040517f08c379a000000000000000000000000000000000000000000000000000000000815260040161090990612824565b60405180910390fd5b60005b8251811015610d7257600083828151811061093357610932612666565b5b602002602001015190506002805490508110610984576040517f08c379a000000000000000000000000000000000000000000000000000000000815260040161097b906127b8565b60405180910390fd5b60008110156109c8576040517f08c379a00000000000000000000000000000000000000000000000000000000081526004016109bf90612890565b60405180910390fd5b6000805b600283815481106109e0576109df612666565b5b906000526020600020906009020160030180549050811015610d29578473ffffffffffffffffffffffffffffffffffffffff1660028481548110610a2757610a26612666565b5b90600052602060002090600902016003018281548110610a4a57610a49612666565b5b9060005260206000200160009054906101000a900473ffffffffffffffffffffffffffffffffffffffff1673ffffffffffffffffffffffffffffffffffffffff1603610cb15760028381548110610aa457610aa3612666565b5b90600052602060002090600902016006018181548110610ac757610ac6612666565b5b90600052602060002090602091828204019190069054906101000a900460ff1615610b27576040517f08c379a0000000000000000000000000000000000000000000000000000000008152600401610b1e90612922565b60405180910390fd5b60028381548110610b3b57610b3a612666565b5b90600052602060002090600902016004018181548110610b5e57610b5d612666565b5b9060005260206000200154600160008773ffffffffffffffffffffffffffffffffffffffff1673ffffffffffffffffffffffffffffffffffffffff1681526020019081526020016000206000828254610bb79190612942565b92505081905550600160028481548110610bd457610bd3612666565b5b90600052602060002090600902016006018281548110610bf757610bf6612666565b5b90600052602060002090602091828204019190066101000a81548160ff02191690831515021790555060646000808773ffffffffffffffffffffffffffffffffffffffff1673ffffffffffffffffffffffffffffffffffffffff1681526020019081526020016000206000828254610c6f9190612985565b925050819055507f0d3ecba324ef5a283bcbd5d1a966cab18661432ab3575740c588f7a0144b0dfa856064604051610ca89291906129b9565b60405180910390a15b60028381548110610cc557610cc4612666565b5b90600052602060002090600902016006018181548110610ce857610ce7612666565b5b90600052602060002090602091828204019190069054906101000a900460ff1615610d1c578180610d18906126c4565b9250505b80806001019150506109cc565b5060028281548110610d3e57610d3d612666565b5b9060005260206000209060090201600301805490508103610d6357610d6282610ef6565b5b50508080600101915050610915565b505050565b6002805490508210610dbe576040517f08c379a0000000000000000000000000000000000000000000000000000000008152600401610db5906127b8565b60405180910390fd5b8060028381548110610dd357610dd2612666565b5b90600052602060002090600902016001019081610df09190612b8e565b505050565b60028181548110610e0557600080fd5b9060005260206000209060090201600091509050806000015490806001018054610e2e9061273b565b80601f0160208091040260200160405190810160405280929190818152602001828054610e5a9061273b565b8015610ea75780601f10610e7c57610100808354040283529160200191610ea7565b820191906000526020600020905b815481529060010190602001808311610e8a57829003601f168201915b5050505050908060020160009054906101000a900473ffffffffffffffffffffffffffffffffffffffff16908060050160009054906101000a900460ff16908060070154908060080154905086565b6002805490508110610f3d576040517f08c379a0000000000000000000000000000000000000000000000000000000008152600401610f34906127b8565b60405180910390fd5b60028181548110610f5157610f50612666565b5b906000526020600020906009020160050160009054906101000a900460ff1615610fb0576040517f08c379a0000000000000000000000000000000000000000000000000000000008152600401610fa790612cac565b60405180910390fd5b600160028281548110610fc657610fc5612666565b5b906000526020600020906009020160050160006101000a81548160ff0219169083151502179055507f0f645877fe838126f91b4e7f0c2002e96576b70d9d3483c64ad47a4c586fbf2b8160405161101d9190611c27565b60405180910390a150565b825184511461106c576040517f08c379a000000000000000000000000000000000000000000000000000000000815260040161106390612d18565b60405180910390fd5b60004290506000600280549050905060026040518061012001604052808381526020018681526020013373ffffffffffffffffffffffffffffffffffffffff168152602001888152602001878152602001600015158152602001885167ffffffffffffffff8111156110e1576110e0612168565b5b60405190808252806020026020018201604052801561110f5781602001602082028036833780820191505090505b5081526020018581526020018481525090806001815401808255809150506001900390600052602060002090600902016000909190919091506000820151816000015560208201518160010190816111679190612b8e565b5060408201518160020160006101000a81548173ffffffffffffffffffffffffffffffffffffffff021916908373ffffffffffffffffffffffffffffffffffffffff16021790555060608201518160030190805190602001906111cb9291906119d5565b5060808201518160040190805190602001906111e8929190611a5f565b5060a08201518160050160006101000a81548160ff02191690831515021790555060c0820151816006019080519060200190611225929190611aac565b5060e08201518160070155610100820151816008015550507f8a4fcfa8215b159e8137e3e3ab607d6b2a27ddcbac44eca414476e096d74f4d28160405161126c9190611c27565b60405180910390a160005b86518110156113175785818151811061129357611292612666565b5b6020026020010151600160008984815181106112b2576112b1612666565b5b602002602001015173ffffffffffffffffffffffffffffffffffffffff1673ffffffffffffffffffffffffffffffffffffffff16815260200190815260200160002060008282546113039190612d38565b925050819055508080600101915050611277565b50505050505050565b60606000805b6002805490508110156114285760005b6002828154811061134a57611349612666565b5b90600052602060002090600902016003018054905081101561141a573373ffffffffffffffffffffffffffffffffffffffff166002838154811061139157611390612666565b5b906000526020600020906009020160030182815481106113b4576113b3612666565b5b9060005260206000200160009054906101000a900473ffffffffffffffffffffffffffffffffffffffff1673ffffffffffffffffffffffffffffffffffffffff160361140d578280611405906126c4565b93505061141a565b8080600101915050611336565b508080600101915050611326565b5060008167ffffffffffffffff81111561144557611444612168565b5b60405190808252806020026020018201604052801561147e57816020015b61146b6118c7565b8152602001906001900390816114635790505b5090506000805b6002805490508110156118575760005b600282815481106114a9576114a8612666565b5b906000526020600020906009020160030180549050811015611849573373ffffffffffffffffffffffffffffffffffffffff16600283815481106114f0576114ef612666565b5b9060005260206000209060090201600301828154811061151357611512612666565b5b9060005260206000200160009054906101000a900473ffffffffffffffffffffffffffffffffffffffff1673ffffffffffffffffffffffffffffffffffffffff160361183c576002828154811061156d5761156c612666565b5b906000526020600020906009020160405180610120016040529081600082015481526020016001820180546115a19061273b565b80601f01602080910402602001604051908101604052809291908181526020018280546115cd9061273b565b801561161a5780601f106115ef5761010080835404028352916020019161161a565b820191906000526020600020905b8154815290600101906020018083116115fd57829003601f168201915b505050505081526020016002820160009054906101000a900473ffffffffffffffffffffffffffffffffffffffff1673ffffffffffffffffffffffffffffffffffffffff1673ffffffffffffffffffffffffffffffffffffffff168152602001600382018054806020026020016040519081016040528092919081815260200182805480156116fe57602002820191906000526020600020905b8160009054906101000a900473ffffffffffffffffffffffffffffffffffffffff1673ffffffffffffffffffffffffffffffffffffffff16815260200190600101908083116116b4575b505050505081526020016004820180548060200260200160405190810160405280929190818152602001828054801561175657602002820191906000526020600020905b815481526020019060010190808311611742575b505050505081526020016005820160009054906101000a900460ff16151515158152602001600682018054806020026020016040519081016040528092919081815260200182805480156117ee57602002820191906000526020600020906000905b82829054906101000a900460ff161515815260200190600101906020826000010492830192600103820291508084116117b85790505b505050505081526020016007820154815260200160088201548152505084848151811061181e5761181d612666565b5b60200260200101819052508280611834906126c4565b935050611849565b8080600101915050611495565b508080600101915050611485565b5081935050505090565b606481565b60006020528060005260406000206000915090505481565b6000600160008373ffffffffffffffffffffffffffffffffffffffff1673ffffffffffffffffffffffffffffffffffffffff168152602001908152602001600020549050919050565b6040518061012001604052806000815260200160608152602001600073ffffffffffffffffffffffffffffffffffffffff16815260200160608152602001606081526020016000151581526020016060815260200160008152602001600081525090565b5080546119379061273b565b6000825580601f106119495750611968565b601f0160209004906000526020600020908101906119679190611b52565b5b50565b50805460008255906000526020600020908101906119899190611b52565b50565b50805460008255906000526020600020908101906119aa9190611b52565b50565b50805460008255601f0160209004906000526020600020908101906119d29190611b52565b50565b828054828255906000526020600020908101928215611a4e579160200282015b82811115611a4d5782518260006101000a81548173ffffffffffffffffffffffffffffffffffffffff021916908373ffffffffffffffffffffffffffffffffffffffff160217905550916020019190600101906119f5565b5b509050611a5b9190611b52565b5090565b828054828255906000526020600020908101928215611a9b579160200282015b82811115611a9a578251825591602001919060010190611a7f565b5b509050611aa89190611b52565b5090565b82805482825590600052602060002090601f01602090048101928215611b415791602002820160005b83821115611b1257835183826101000a81548160ff0219169083151502179055509260200192600101602081600001049283019260010302611ad5565b8015611b3f5782816101000a81549060ff0219169055600101602081600001049283019260010302611b12565b505b509050611b4e9190611b52565b5090565b5b80821115611b6b576000816000905550600101611b53565b5090565b6000604051905090565b600080fd5b600080fd5b600073ffffffffffffffffffffffffffffffffffffffff82169050919050565b6000611bae82611b83565b9050919050565b611bbe81611ba3565b8114611bc957600080fd5b50565b600081359050611bdb81611bb5565b92915050565b600060208284031215611bf757611bf6611b79565b5b6000611c0584828501611bcc565b91505092915050565b6000819050919050565b611c2181611c0e565b82525050565b6000602082019050611c3c6000830184611c18565b92915050565b600081519050919050565b600082825260208201905092915050565b6000819050602082019050919050565b611c7781611c0e565b82525050565b600081519050919050565b600082825260208201905092915050565b60005b83811015611cb7578082015181840152602081019050611c9c565b60008484015250505050565b6000601f19601f8301169050919050565b6000611cdf82611c7d565b611ce98185611c88565b9350611cf9818560208601611c99565b611d0281611cc3565b840191505092915050565b611d1681611ba3565b82525050565b600081519050919050565b600082825260208201905092915050565b6000819050602082019050919050565b6000611d548383611d0d565b60208301905092915050565b6000602082019050919050565b6000611d7882611d1c565b611d828185611d27565b9350611d8d83611d38565b8060005b83811015611dbe578151611da58882611d48565b9750611db083611d60565b925050600181019050611d91565b5085935050505092915050565b600081519050919050565b600082825260208201905092915050565b6000819050602082019050919050565b6000611e038383611c6e565b60208301905092915050565b6000602082019050919050565b6000611e2782611dcb565b611e318185611dd6565b9350611e3c83611de7565b8060005b83811015611e6d578151611e548882611df7565b9750611e5f83611e0f565b925050600181019050611e40565b5085935050505092915050565b60008115159050919050565b611e8f81611e7a565b82525050565b600081519050919050565b600082825260208201905092915050565b6000819050602082019050919050565b6000611ecd8383611e86565b60208301905092915050565b6000602082019050919050565b6000611ef182611e95565b611efb8185611ea0565b9350611f0683611eb1565b8060005b83811015611f37578151611f1e8882611ec1565b9750611f2983611ed9565b925050600181019050611f0a565b5085935050505092915050565b600061012083016000830151611f5d6000860182611c6e565b5060208301518482036020860152611f758282611cd4565b9150506040830151611f8a6040860182611d0d565b5060608301518482036060860152611fa28282611d6d565b91505060808301518482036080860152611fbc8282611e1c565b91505060a0830151611fd160a0860182611e86565b5060c083015184820360c0860152611fe98282611ee6565b91505060e0830151611ffe60e0860182611c6e565b50610100830151612013610100860182611c6e565b508091505092915050565b600061202a8383611f44565b905092915050565b6000602082019050919050565b600061204a82611c42565b6120548185611c4d565b93508360208202850161206685611c5e565b8060005b858110156120a25784840389528151612083858261201e565b945061208e83612032565b925060208a0199505060018101905061206a565b50829750879550505050505092915050565b600060208201905081810360008301526120ce818461203f565b905092915050565b6120df81611c0e565b81146120ea57600080fd5b50565b6000813590506120fc816120d6565b92915050565b60006020828403121561211857612117611b79565b5b6000612126848285016120ed565b91505092915050565b6000819050919050565b6121428161212f565b82525050565b600060208201905061215d6000830184612139565b92915050565b600080fd5b7f4e487b7100000000000000000000000000000000000000000000000000000000600052604160045260246000fd5b6121a082611cc3565b810181811067ffffffffffffffff821117156121bf576121be612168565b5b80604052505050565b60006121d2611b6f565b90506121de8282612197565b919050565b600067ffffffffffffffff8211156121fe576121fd612168565b5b602082029050602081019050919050565b600080fd5b6000612227612222846121e3565b6121c8565b9050808382526020820190506020840283018581111561224a5761224961220f565b5b835b81811015612273578061225f88826120ed565b84526020840193505060208101905061224c565b5050509392505050565b600082601f83011261229257612291612163565b5b81356122a2848260208601612214565b91505092915050565b600080604083850312156122c2576122c1611b79565b5b600083013567ffffffffffffffff8111156122e0576122df611b7e565b5b6122ec8582860161227d565b92505060206122fd85828601611bcc565b9150509250929050565b600080fd5b600067ffffffffffffffff82111561232757612326612168565b5b61233082611cc3565b9050602081019050919050565b82818337600083830152505050565b600061235f61235a8461230c565b6121c8565b90508281526020810184848401111561237b5761237a612307565b5b61238684828561233d565b509392505050565b600082601f8301126123a3576123a2612163565b5b81356123b384826020860161234c565b91505092915050565b600080604083850312156123d3576123d2611b79565b5b60006123e1858286016120ed565b925050602083013567ffffffffffffffff81111561240257612401611b7e565b5b61240e8582860161238e565b9150509250929050565b600082825260208201905092915050565b600061243482611c7d565b61243e8185612418565b935061244e818560208601611c99565b61245781611cc3565b840191505092915050565b61246b81611ba3565b82525050565b61247a81611e7a565b82525050565b600060c0820190506124956000830189611c18565b81810360208301526124a78188612429565b90506124b66040830187612462565b6124c36060830186612471565b6124d06080830185611c18565b6124dd60a0830184611c18565b979650505050505050565b600067ffffffffffffffff82111561250357612502612168565b5b602082029050602081019050919050565b6000612527612522846124e8565b6121c8565b9050808382526020820190506020840283018581111561254a5761254961220f565b5b835b81811015612573578061255f8882611bcc565b84526020840193505060208101905061254c565b5050509392505050565b600082601f83011261259257612591612163565b5b81356125a2848260208601612514565b91505092915050565b600080600080608085870312156125c5576125c4611b79565b5b600085013567ffffffffffffffff8111156125e3576125e2611b7e565b5b6125ef8782880161257d565b945050602085013567ffffffffffffffff8111156126105761260f611b7e565b5b61261c8782880161227d565b935050604085013567ffffffffffffffff81111561263d5761263c611b7e565b5b6126498782880161238e565b925050606061265a878288016120ed565b91505092959194509250565b7f4e487b7100000000000000000000000000000000000000000000000000000000600052603260045260246000fd5b7f4e487b7100000000000000000000000000000000000000000000000000000000600052601160045260246000fd5b60006126cf82611c0e565b91507fffffffffffffffffffffffffffffffffffffffffffffffffffffffffffffffff820361270157612700612695565b5b600182019050919050565b7f4e487b7100000000000000000000000000000000000000000000000000000000600052602260045260246000fd5b6000600282049050600182168061275357607f821691505b6020821081036127665761276561270c565b5b50919050565b7f457870656e736520646f6573206e6f7420657869737400000000000000000000600082015250565b60006127a2601683612418565b91506127ad8261276c565b602082019050919050565b600060208201905081810360008301526127d181612795565b9050919050565b7f496e76616c696420757365722061646472657373000000000000000000000000600082015250565b600061280e601483612418565b9150612819826127d8565b602082019050919050565b6000602082019050818103600083015261283d81612801565b9050919050565b7f496e76616c696420657870656e73652049440000000000000000000000000000600082015250565b600061287a601283612418565b915061288582612844565b602082019050919050565b600060208201905081810360008301526128a98161286d565b9050919050565b7f557365722068617320616c7265616479206265656e206d61726b65642061732060008201527f7061696400000000000000000000000000000000000000000000000000000000602082015250565b600061290c602483612418565b9150612917826128b0565b604082019050919050565b6000602082019050818103600083015261293b816128ff565b9050919050565b600061294d8261212f565b91506129588361212f565b925082820390508181126000841216828213600085121516171561297f5761297e612695565b5b92915050565b600061299082611c0e565b915061299b83611c0e565b92508282019050808211156129b3576129b2612695565b5b92915050565b60006040820190506129ce6000830185612462565b6129db6020830184611c18565b9392505050565b60008190508160005260206000209050919050565b60006020601f8301049050919050565b600082821b905092915050565b600060088302612a447fffffffffffffffffffffffffffffffffffffffffffffffffffffffffffffffff82612a07565b612a4e8683612a07565b95508019841693508086168417925050509392505050565b6000819050919050565b6000612a8b612a86612a8184611c0e565b612a66565b611c0e565b9050919050565b6000819050919050565b612aa583612a70565b612ab9612ab182612a92565b848454612a14565b825550505050565b600090565b612ace612ac1565b612ad9818484612a9c565b505050565b5b81811015612afd57612af2600082612ac6565b600181019050612adf565b5050565b601f821115612b4257612b13816129e2565b612b1c846129f7565b81016020851015612b2b578190505b612b3f612b37856129f7565b830182612ade565b50505b505050565b600082821c905092915050565b6000612b6560001984600802612b47565b1980831691505092915050565b6000612b7e8383612b54565b9150826002028217905092915050565b612b9782611c7d565b67ffffffffffffffff811115612bb057612baf612168565b5b612bba825461273b565b612bc5828285612b01565b600060209050601f831160018114612bf85760008415612be6578287015190505b612bf08582612b72565b865550612c58565b601f198416612c06866129e2565b60005b82811015612c2e57848901518255600182019150602085019450602081019050612c09565b86831015612c4b5784890151612c47601f891682612b54565b8355505b6001600288020188555050505b505050505050565b7f457870656e736520616c726561647920736574746c6564000000000000000000600082015250565b6000612c96601783612418565b9150612ca182612c60565b602082019050919050565b60006020820190508181036000830152612cc581612c89565b9050919050565b7f4d69736d61746368656420617272617973000000000000000000000000000000600082015250565b6000612d02601183612418565b9150612d0d82612ccc565b602082019050919050565b60006020820190508181036000830152612d3181612cf5565b9050919050565b6000612d438261212f565b9150612d4e8361212f565b925082820190508281121560008312168382126000841215161715612d7657612d75612695565b5b9291505056fea2646970667358221220328cdff828c303cf0653d8fe3927746864cb9cfa20189f6643b16a6df48bb91c64736f6c634300081b0033",
  "linkReferences": {},
  "deployedLinkReferences": {}
}