{
  "_format": "hh-sol-artifact-1",
  "contractName": "Splitwise",
  "sourceName": "contracts/Splitwise.sol",
  "abi": [
    {
      "anonymous": false,
      "inputs": [
        {
          "indexed": false,
          "internalType": "uint256",
          "name": "expenseId",
          "type": "uint256"
        }
      ],
      "name": "ExpenseCreated",
      "type": "event"
    },
    {
      "anonymous": false,
      "inputs": [
        {
          "indexed": false,
          "internalType": "uint256",
          "name": "expenseId",
          "type": "uint256"
        }
      ],
      "name": "ExpenseSettled",
      "type": "event"
    },
    {
      "inputs": [
        {
          "internalType": "address",
          "name": "",
          "type": "address"
        }
      ],
      "name": "balances",
      "outputs": [
        {
          "internalType": "int256",
          "name": "",
          "type": "int256"
        }
      ],
      "stateMutability": "view",
      "type": "function"
    },
    {
      "inputs": [
        {
          "internalType": "address[]",
          "name": "members",
          "type": "address[]"
        },
        {
          "internalType": "uint256[]",
          "name": "amounts",
          "type": "uint256[]"
        },
        {
          "internalType": "string",
          "name": "description",
          "type": "string"
        },
        {
          "internalType": "uint256",
          "name": "interestRate",
          "type": "uint256"
        }
      ],
      "name": "createExpense",
      "outputs": [],
      "stateMutability": "nonpayable",
      "type": "function"
    },
    {
      "inputs": [
        {
          "internalType": "uint256",
          "name": "expenseId",
          "type": "uint256"
        }
      ],
      "name": "deleteExpense",
      "outputs": [],
      "stateMutability": "nonpayable",
      "type": "function"
    },
    {
      "inputs": [
        {
          "internalType": "uint256",
          "name": "expenseId",
          "type": "uint256"
        },
        {
          "internalType": "string",
          "name": "newDescription",
          "type": "string"
        }
      ],
      "name": "editExpense",
      "outputs": [],
      "stateMutability": "nonpayable",
      "type": "function"
    },
    {
      "inputs": [
        {
          "internalType": "uint256",
          "name": "",
          "type": "uint256"
        }
      ],
      "name": "expenses",
      "outputs": [
        {
          "internalType": "uint256",
          "name": "id",
          "type": "uint256"
        },
        {
          "internalType": "string",
          "name": "description",
          "type": "string"
        },
        {
          "internalType": "address",
          "name": "owner",
          "type": "address"
        },
        {
          "internalType": "bool",
          "name": "isSettled",
          "type": "bool"
        },
        {
          "internalType": "uint256",
          "name": "interestRate",
          "type": "uint256"
        },
        {
          "internalType": "uint256",
          "name": "creationTimestamp",
          "type": "uint256"
        }
      ],
      "stateMutability": "view",
      "type": "function"
    },
    {
      "inputs": [
        {
          "internalType": "address",
          "name": "user",
          "type": "address"
        }
      ],
      "name": "getBalance",
      "outputs": [
        {
          "internalType": "int256",
          "name": "",
          "type": "int256"
        }
      ],
      "stateMutability": "view",
      "type": "function"
    },
    {
      "inputs": [
        {
          "internalType": "address",
          "name": "owner",
          "type": "address"
        }
      ],
      "name": "getExpensesByOwner",
      "outputs": [
        {
          "components": [
            {
              "internalType": "uint256",
              "name": "id",
              "type": "uint256"
            },
            {
              "internalType": "string",
              "name": "description",
              "type": "string"
            },
            {
              "internalType": "address",
              "name": "owner",
              "type": "address"
            },
            {
              "internalType": "address[]",
              "name": "involvedMembers",
              "type": "address[]"
            },
            {
              "internalType": "uint256[]",
              "name": "amountsOwed",
              "type": "uint256[]"
            },
            {
              "internalType": "bool",
              "name": "isSettled",
              "type": "bool"
            },
            {
              "internalType": "bool[]",
              "name": "hasPaid",
              "type": "bool[]"
            },
            {
              "internalType": "uint256",
              "name": "interestRate",
              "type": "uint256"
            },
            {
              "internalType": "uint256",
              "name": "creationTimestamp",
              "type": "uint256"
            }
          ],
          "internalType": "struct Splitwise.Expense[]",
          "name": "",
          "type": "tuple[]"
        }
      ],
      "stateMutability": "view",
      "type": "function"
    },
    {
      "inputs": [],
      "name": "getExpensesOfCaller",
      "outputs": [
        {
          "components": [
            {
              "internalType": "uint256",
              "name": "id",
              "type": "uint256"
            },
            {
              "internalType": "string",
              "name": "description",
              "type": "string"
            },
            {
              "internalType": "address",
              "name": "owner",
              "type": "address"
            },
            {
              "internalType": "address[]",
              "name": "involvedMembers",
              "type": "address[]"
            },
            {
              "internalType": "uint256[]",
              "name": "amountsOwed",
              "type": "uint256[]"
            },
            {
              "internalType": "bool",
              "name": "isSettled",
              "type": "bool"
            },
            {
              "internalType": "bool[]",
              "name": "hasPaid",
              "type": "bool[]"
            },
            {
              "internalType": "uint256",
              "name": "interestRate",
              "type": "uint256"
            },
            {
              "internalType": "uint256",
              "name": "creationTimestamp",
              "type": "uint256"
            }
          ],
          "internalType": "struct Splitwise.Expense[]",
          "name": "",
          "type": "tuple[]"
        }
      ],
      "stateMutability": "view",
      "type": "function"
    },
    {
      "inputs": [
        {
          "internalType": "uint256[]",
          "name": "expenseIds",
          "type": "uint256[]"
        },
        {
          "internalType": "address",
          "name": "user",
          "type": "address"
        }
      ],
      "name": "markUserAsPaid",
      "outputs": [],
      "stateMutability": "nonpayable",
      "type": "function"
    },
    {
      "inputs": [
        {
          "internalType": "uint256",
          "name": "expenseId",
          "type": "uint256"
        }
      ],
      "name": "settleExpense",
      "outputs": [],
      "stateMutability": "nonpayable",
      "type": "function"
    }
  ],
  "bytecode": "0x6080604052348015600f57600080fd5b50612bad8061001f6000396000f3fe608060405234801561001057600080fd5b506004361061009e5760003560e01c8063af4afe0a11610066578063af4afe0a14610157578063c0a7540b1461018c578063cc2dfb03146101a8578063d7821b93146101c4578063f8b2cb4f146101e25761009e565b80630697ca06146100a35780630a46ae49146100d357806327e235e3146100ef5780635d98878c1461011f5780637512dbaa1461013b575b600080fd5b6100bd60048036038101906100b89190611a39565b610212565b6040516100ca9190611ee2565b60405180910390f35b6100ed60048036038101906100e89190611f30565b610693565b005b61010960048036038101906101049190611a39565b610795565b6040516101169190611f76565b60405180910390f35b610139600480360381019061013491906120d9565b6107ad565b005b610155600480360381019061015091906121ea565b610bef565b005b610171600480360381019061016c9190611f30565b610c6d565b604051610183969594939291906122bd565b60405180910390f35b6101a660048036038101906101a19190611f30565b610d6e565b005b6101c260048036038101906101bd91906123e8565b610e9f565b005b6101cc611196565b6040516101d99190611ee2565b60405180910390f35b6101fc60048036038101906101f79190611a39565b6116d7565b6040516102099190611f76565b60405180910390f35b60606000805b6001805490508110156102b9578373ffffffffffffffffffffffffffffffffffffffff16600182815481106102505761024f6124a3565b5b906000526020600020906009020160020160009054906101000a900473ffffffffffffffffffffffffffffffffffffffff1673ffffffffffffffffffffffffffffffffffffffff16036102ac5781806102a890612501565b9250505b8080600101915050610218565b5060008167ffffffffffffffff8111156102d6576102d5611f96565b5b60405190808252806020026020018201604052801561030f57816020015b6102fc61171f565b8152602001906001900390816102f45790505b5090506000805b600180549050811015610687578573ffffffffffffffffffffffffffffffffffffffff166001828154811061034e5761034d6124a3565b5b906000526020600020906009020160020160009054906101000a900473ffffffffffffffffffffffffffffffffffffffff1673ffffffffffffffffffffffffffffffffffffffff160361067a57600181815481106103af576103ae6124a3565b5b906000526020600020906009020160405180610120016040529081600082015481526020016001820180546103e390612578565b80601f016020809104026020016040519081016040528092919081815260200182805461040f90612578565b801561045c5780601f106104315761010080835404028352916020019161045c565b820191906000526020600020905b81548152906001019060200180831161043f57829003601f168201915b505050505081526020016002820160009054906101000a900473ffffffffffffffffffffffffffffffffffffffff1673ffffffffffffffffffffffffffffffffffffffff1673ffffffffffffffffffffffffffffffffffffffff1681526020016003820180548060200260200160405190810160405280929190818152602001828054801561054057602002820191906000526020600020905b8160009054906101000a900473ffffffffffffffffffffffffffffffffffffffff1673ffffffffffffffffffffffffffffffffffffffff16815260200190600101908083116104f6575b505050505081526020016004820180548060200260200160405190810160405280929190818152602001828054801561059857602002820191906000526020600020905b815481526020019060010190808311610584575b505050505081526020016005820160009054906101000a900460ff161515151581526020016006820180548060200260200160405190810160405280929190818152602001828054801561063057602002820191906000526020600020906000905b82829054906101000a900460ff161515815260200190600101906020826000010492830192600103820291508084116105fa5790505b50505050508152602001600782015481526020016008820154815250508383815181106106605761065f6124a3565b5b6020026020010181905250818061067690612501565b9250505b8080600101915050610316565b50819350505050919050565b60018054905081106106da576040517f08c379a00000000000000000000000000000000000000000000000000000000081526004016106d1906125f5565b60405180910390fd5b600181815481106106ee576106ed6124a3565b5b90600052602060002090600902016000808201600090556001820160006107159190611783565b6002820160006101000a81549073ffffffffffffffffffffffffffffffffffffffff021916905560038201600061074c91906117c3565b60048201600061075c91906117e4565b6005820160006101000a81549060ff02191690556006820160006107809190611805565b60078201600090556008820160009055505050565b60006020528060005260406000206000915090505481565b600073ffffffffffffffffffffffffffffffffffffffff168173ffffffffffffffffffffffffffffffffffffffff160361081c576040517f08c379a000000000000000000000000000000000000000000000000000000000815260040161081390612661565b60405180910390fd5b60005b8251811015610bea57600083828151811061083d5761083c6124a3565b5b60200260200101519050600180549050811061088e576040517f08c379a0000000000000000000000000000000000000000000000000000000008152600401610885906125f5565b60405180910390fd5b60008110156108d2576040517f08c379a00000000000000000000000000000000000000000000000000000000081526004016108c9906126cd565b60405180910390fd5b6000805b600183815481106108ea576108e96124a3565b5b906000526020600020906009020160030180549050811015610ba1578473ffffffffffffffffffffffffffffffffffffffff1660018481548110610931576109306124a3565b5b90600052602060002090600902016003018281548110610954576109536124a3565b5b9060005260206000200160009054906101000a900473ffffffffffffffffffffffffffffffffffffffff1673ffffffffffffffffffffffffffffffffffffffff1603610b2957600183815481106109ae576109ad6124a3565b5b906000526020600020906009020160060181815481106109d1576109d06124a3565b5b90600052602060002090602091828204019190069054906101000a900460ff1615610a31576040517f08c379a0000000000000000000000000000000000000000000000000000000008152600401610a289061275f565b60405180910390fd5b60018381548110610a4557610a446124a3565b5b90600052602060002090600902016004018181548110610a6857610a676124a3565b5b90600052602060002001546000808773ffffffffffffffffffffffffffffffffffffffff1673ffffffffffffffffffffffffffffffffffffffff1681526020019081526020016000206000828254610ac0919061277f565b925050819055506001808481548110610adc57610adb6124a3565b5b90600052602060002090600902016006018281548110610aff57610afe6124a3565b5b90600052602060002090602091828204019190066101000a81548160ff0219169083151502179055505b60018381548110610b3d57610b3c6124a3565b5b90600052602060002090600902016006018181548110610b6057610b5f6124a3565b5b90600052602060002090602091828204019190069054906101000a900460ff1615610b94578180610b9090612501565b9250505b80806001019150506108d6565b5060018281548110610bb657610bb56124a3565b5b9060005260206000209060090201600301805490508103610bdb57610bda82610d6e565b5b5050808060010191505061081f565b505050565b6001805490508210610c36576040517f08c379a0000000000000000000000000000000000000000000000000000000008152600401610c2d906125f5565b60405180910390fd5b8060018381548110610c4b57610c4a6124a3565b5b90600052602060002090600902016001019081610c68919061296e565b505050565b60018181548110610c7d57600080fd5b9060005260206000209060090201600091509050806000015490806001018054610ca690612578565b80601f0160208091040260200160405190810160405280929190818152602001828054610cd290612578565b8015610d1f5780601f10610cf457610100808354040283529160200191610d1f565b820191906000526020600020905b815481529060010190602001808311610d0257829003601f168201915b5050505050908060020160009054906101000a900473ffffffffffffffffffffffffffffffffffffffff16908060050160009054906101000a900460ff16908060070154908060080154905086565b6001805490508110610db5576040517f08c379a0000000000000000000000000000000000000000000000000000000008152600401610dac906125f5565b60405180910390fd5b60018181548110610dc957610dc86124a3565b5b906000526020600020906009020160050160009054906101000a900460ff1615610e28576040517f08c379a0000000000000000000000000000000000000000000000000000000008152600401610e1f90612a8c565b60405180910390fd5b6001808281548110610e3d57610e3c6124a3565b5b906000526020600020906009020160050160006101000a81548160ff0219169083151502179055507f0f645877fe838126f91b4e7f0c2002e96576b70d9d3483c64ad47a4c586fbf2b81604051610e949190612aac565b60405180910390a150565b8251845114610ee3576040517f08c379a0000000000000000000000000000000000000000000000000000000008152600401610eda90612b13565b60405180910390fd5b60004290506000600180549050905060016040518061012001604052808381526020018681526020013373ffffffffffffffffffffffffffffffffffffffff168152602001888152602001878152602001600015158152602001885167ffffffffffffffff811115610f5857610f57611f96565b5b604051908082528060200260200182016040528015610f865781602001602082028036833780820191505090505b508152602001858152602001848152509080600181540180825580915050600190039060005260206000209060090201600090919091909150600082015181600001556020820151816001019081610fde919061296e565b5060408201518160020160006101000a81548173ffffffffffffffffffffffffffffffffffffffff021916908373ffffffffffffffffffffffffffffffffffffffff160217905550606082015181600301908051906020019061104292919061182d565b50608082015181600401908051906020019061105f9291906118b7565b5060a08201518160050160006101000a81548160ff02191690831515021790555060c082015181600601908051906020019061109c929190611904565b5060e08201518160070155610100820151816008015550507f8a4fcfa8215b159e8137e3e3ab607d6b2a27ddcbac44eca414476e096d74f4d2816040516110e39190612aac565b60405180910390a160005b865181101561118d5785818151811061110a576111096124a3565b5b6020026020010151600080898481518110611128576111276124a3565b5b602002602001015173ffffffffffffffffffffffffffffffffffffffff1673ffffffffffffffffffffffffffffffffffffffff16815260200190815260200160002060008282546111799190612b33565b9250508190555080806001019150506110ee565b50505050505050565b60606000805b60018054905081101561129e5760005b600182815481106111c0576111bf6124a3565b5b906000526020600020906009020160030180549050811015611290573373ffffffffffffffffffffffffffffffffffffffff1660018381548110611207576112066124a3565b5b9060005260206000209060090201600301828154811061122a576112296124a3565b5b9060005260206000200160009054906101000a900473ffffffffffffffffffffffffffffffffffffffff1673ffffffffffffffffffffffffffffffffffffffff160361128357828061127b90612501565b935050611290565b80806001019150506111ac565b50808060010191505061119c565b5060008167ffffffffffffffff8111156112bb576112ba611f96565b5b6040519080825280602002602001820160405280156112f457816020015b6112e161171f565b8152602001906001900390816112d95790505b5090506000805b6001805490508110156116cd5760005b6001828154811061131f5761131e6124a3565b5b9060005260206000209060090201600301805490508110156116bf573373ffffffffffffffffffffffffffffffffffffffff1660018381548110611366576113656124a3565b5b90600052602060002090600902016003018281548110611389576113886124a3565b5b9060005260206000200160009054906101000a900473ffffffffffffffffffffffffffffffffffffffff1673ffffffffffffffffffffffffffffffffffffffff16036116b257600182815481106113e3576113e26124a3565b5b9060005260206000209060090201604051806101200160405290816000820154815260200160018201805461141790612578565b80601f016020809104026020016040519081016040528092919081815260200182805461144390612578565b80156114905780601f1061146557610100808354040283529160200191611490565b820191906000526020600020905b81548152906001019060200180831161147357829003601f168201915b505050505081526020016002820160009054906101000a900473ffffffffffffffffffffffffffffffffffffffff1673ffffffffffffffffffffffffffffffffffffffff1673ffffffffffffffffffffffffffffffffffffffff1681526020016003820180548060200260200160405190810160405280929190818152602001828054801561157457602002820191906000526020600020905b8160009054906101000a900473ffffffffffffffffffffffffffffffffffffffff1673ffffffffffffffffffffffffffffffffffffffff168152602001906001019080831161152a575b50505050508152602001600482018054806020026020016040519081016040528092919081815260200182805480156115cc57602002820191906000526020600020905b8154815260200190600101908083116115b8575b505050505081526020016005820160009054906101000a900460ff161515151581526020016006820180548060200260200160405190810160405280929190818152602001828054801561166457602002820191906000526020600020906000905b82829054906101000a900460ff1615158152602001906001019060208260000104928301926001038202915080841161162e5790505b5050505050815260200160078201548152602001600882015481525050848481518110611694576116936124a3565b5b602002602001018190525082806116aa90612501565b9350506116bf565b808060010191505061130b565b5080806001019150506112fb565b5081935050505090565b60008060008373ffffffffffffffffffffffffffffffffffffffff1673ffffffffffffffffffffffffffffffffffffffff168152602001908152602001600020549050919050565b6040518061012001604052806000815260200160608152602001600073ffffffffffffffffffffffffffffffffffffffff16815260200160608152602001606081526020016000151581526020016060815260200160008152602001600081525090565b50805461178f90612578565b6000825580601f106117a157506117c0565b601f0160209004906000526020600020908101906117bf91906119aa565b5b50565b50805460008255906000526020600020908101906117e191906119aa565b50565b508054600082559060005260206000209081019061180291906119aa565b50565b50805460008255601f01602090049060005260206000209081019061182a91906119aa565b50565b8280548282559060005260206000209081019282156118a6579160200282015b828111156118a55782518260006101000a81548173ffffffffffffffffffffffffffffffffffffffff021916908373ffffffffffffffffffffffffffffffffffffffff1602179055509160200191906001019061184d565b5b5090506118b391906119aa565b5090565b8280548282559060005260206000209081019282156118f3579160200282015b828111156118f25782518255916020019190600101906118d7565b5b50905061190091906119aa565b5090565b82805482825590600052602060002090601f016020900481019282156119995791602002820160005b8382111561196a57835183826101000a81548160ff021916908315150217905550926020019260010160208160000104928301926001030261192d565b80156119975782816101000a81549060ff021916905560010160208160000104928301926001030261196a565b505b5090506119a691906119aa565b5090565b5b808211156119c35760008160009055506001016119ab565b5090565b6000604051905090565b600080fd5b600080fd5b600073ffffffffffffffffffffffffffffffffffffffff82169050919050565b6000611a06826119db565b9050919050565b611a16816119fb565b8114611a2157600080fd5b50565b600081359050611a3381611a0d565b92915050565b600060208284031215611a4f57611a4e6119d1565b5b6000611a5d84828501611a24565b91505092915050565b600081519050919050565b600082825260208201905092915050565b6000819050602082019050919050565b6000819050919050565b611aa581611a92565b82525050565b600081519050919050565b600082825260208201905092915050565b60005b83811015611ae5578082015181840152602081019050611aca565b60008484015250505050565b6000601f19601f8301169050919050565b6000611b0d82611aab565b611b178185611ab6565b9350611b27818560208601611ac7565b611b3081611af1565b840191505092915050565b611b44816119fb565b82525050565b600081519050919050565b600082825260208201905092915050565b6000819050602082019050919050565b6000611b828383611b3b565b60208301905092915050565b6000602082019050919050565b6000611ba682611b4a565b611bb08185611b55565b9350611bbb83611b66565b8060005b83811015611bec578151611bd38882611b76565b9750611bde83611b8e565b925050600181019050611bbf565b5085935050505092915050565b600081519050919050565b600082825260208201905092915050565b6000819050602082019050919050565b6000611c318383611a9c565b60208301905092915050565b6000602082019050919050565b6000611c5582611bf9565b611c5f8185611c04565b9350611c6a83611c15565b8060005b83811015611c9b578151611c828882611c25565b9750611c8d83611c3d565b925050600181019050611c6e565b5085935050505092915050565b60008115159050919050565b611cbd81611ca8565b82525050565b600081519050919050565b600082825260208201905092915050565b6000819050602082019050919050565b6000611cfb8383611cb4565b60208301905092915050565b6000602082019050919050565b6000611d1f82611cc3565b611d298185611cce565b9350611d3483611cdf565b8060005b83811015611d65578151611d4c8882611cef565b9750611d5783611d07565b925050600181019050611d38565b5085935050505092915050565b600061012083016000830151611d8b6000860182611a9c565b5060208301518482036020860152611da38282611b02565b9150506040830151611db86040860182611b3b565b5060608301518482036060860152611dd08282611b9b565b91505060808301518482036080860152611dea8282611c4a565b91505060a0830151611dff60a0860182611cb4565b5060c083015184820360c0860152611e178282611d14565b91505060e0830151611e2c60e0860182611a9c565b50610100830151611e41610100860182611a9c565b508091505092915050565b6000611e588383611d72565b905092915050565b6000602082019050919050565b6000611e7882611a66565b611e828185611a71565b935083602082028501611e9485611a82565b8060005b85811015611ed05784840389528151611eb18582611e4c565b9450611ebc83611e60565b925060208a01995050600181019050611e98565b50829750879550505050505092915050565b60006020820190508181036000830152611efc8184611e6d565b905092915050565b611f0d81611a92565b8114611f1857600080fd5b50565b600081359050611f2a81611f04565b92915050565b600060208284031215611f4657611f456119d1565b5b6000611f5484828501611f1b565b91505092915050565b6000819050919050565b611f7081611f5d565b82525050565b6000602082019050611f8b6000830184611f67565b92915050565b600080fd5b7f4e487b7100000000000000000000000000000000000000000000000000000000600052604160045260246000fd5b611fce82611af1565b810181811067ffffffffffffffff82111715611fed57611fec611f96565b5b80604052505050565b60006120006119c7565b905061200c8282611fc5565b919050565b600067ffffffffffffffff82111561202c5761202b611f96565b5b602082029050602081019050919050565b600080fd5b600061205561205084612011565b611ff6565b905080838252602082019050602084028301858111156120785761207761203d565b5b835b818110156120a1578061208d8882611f1b565b84526020840193505060208101905061207a565b5050509392505050565b600082601f8301126120c0576120bf611f91565b5b81356120d0848260208601612042565b91505092915050565b600080604083850312156120f0576120ef6119d1565b5b600083013567ffffffffffffffff81111561210e5761210d6119d6565b5b61211a858286016120ab565b925050602061212b85828601611a24565b9150509250929050565b600080fd5b600067ffffffffffffffff82111561215557612154611f96565b5b61215e82611af1565b9050602081019050919050565b82818337600083830152505050565b600061218d6121888461213a565b611ff6565b9050828152602081018484840111156121a9576121a8612135565b5b6121b484828561216b565b509392505050565b600082601f8301126121d1576121d0611f91565b5b81356121e184826020860161217a565b91505092915050565b60008060408385031215612201576122006119d1565b5b600061220f85828601611f1b565b925050602083013567ffffffffffffffff8111156122305761222f6119d6565b5b61223c858286016121bc565b9150509250929050565b61224f81611a92565b82525050565b600082825260208201905092915050565b600061227182611aab565b61227b8185612255565b935061228b818560208601611ac7565b61229481611af1565b840191505092915050565b6122a8816119fb565b82525050565b6122b781611ca8565b82525050565b600060c0820190506122d26000830189612246565b81810360208301526122e48188612266565b90506122f3604083018761229f565b61230060608301866122ae565b61230d6080830185612246565b61231a60a0830184612246565b979650505050505050565b600067ffffffffffffffff8211156123405761233f611f96565b5b602082029050602081019050919050565b600061236461235f84612325565b611ff6565b905080838252602082019050602084028301858111156123875761238661203d565b5b835b818110156123b0578061239c8882611a24565b845260208401935050602081019050612389565b5050509392505050565b600082601f8301126123cf576123ce611f91565b5b81356123df848260208601612351565b91505092915050565b60008060008060808587031215612402576124016119d1565b5b600085013567ffffffffffffffff8111156124205761241f6119d6565b5b61242c878288016123ba565b945050602085013567ffffffffffffffff81111561244d5761244c6119d6565b5b612459878288016120ab565b935050604085013567ffffffffffffffff81111561247a576124796119d6565b5b612486878288016121bc565b925050606061249787828801611f1b565b91505092959194509250565b7f4e487b7100000000000000000000000000000000000000000000000000000000600052603260045260246000fd5b7f4e487b7100000000000000000000000000000000000000000000000000000000600052601160045260246000fd5b600061250c82611a92565b91507fffffffffffffffffffffffffffffffffffffffffffffffffffffffffffffffff820361253e5761253d6124d2565b5b600182019050919050565b7f4e487b7100000000000000000000000000000000000000000000000000000000600052602260045260246000fd5b6000600282049050600182168061259057607f821691505b6020821081036125a3576125a2612549565b5b50919050565b7f457870656e736520646f6573206e6f7420657869737400000000000000000000600082015250565b60006125df601683612255565b91506125ea826125a9565b602082019050919050565b6000602082019050818103600083015261260e816125d2565b9050919050565b7f496e76616c696420757365722061646472657373000000000000000000000000600082015250565b600061264b601483612255565b915061265682612615565b602082019050919050565b6000602082019050818103600083015261267a8161263e565b9050919050565b7f496e76616c696420657870656e73652049440000000000000000000000000000600082015250565b60006126b7601283612255565b91506126c282612681565b602082019050919050565b600060208201905081810360008301526126e6816126aa565b9050919050565b7f557365722068617320616c7265616479206265656e206d61726b65642061732060008201527f7061696400000000000000000000000000000000000000000000000000000000602082015250565b6000612749602483612255565b9150612754826126ed565b604082019050919050565b600060208201905081810360008301526127788161273c565b9050919050565b600061278a82611f5d565b915061279583611f5d565b92508282039050818112600084121682821360008512151617156127bc576127bb6124d2565b5b92915050565b60008190508160005260206000209050919050565b60006020601f8301049050919050565b600082821b905092915050565b6000600883026128247fffffffffffffffffffffffffffffffffffffffffffffffffffffffffffffffff826127e7565b61282e86836127e7565b95508019841693508086168417925050509392505050565b6000819050919050565b600061286b61286661286184611a92565b612846565b611a92565b9050919050565b6000819050919050565b61288583612850565b61289961289182612872565b8484546127f4565b825550505050565b600090565b6128ae6128a1565b6128b981848461287c565b505050565b5b818110156128dd576128d26000826128a6565b6001810190506128bf565b5050565b601f821115612922576128f3816127c2565b6128fc846127d7565b8101602085101561290b578190505b61291f612917856127d7565b8301826128be565b50505b505050565b600082821c905092915050565b600061294560001984600802612927565b1980831691505092915050565b600061295e8383612934565b9150826002028217905092915050565b61297782611aab565b67ffffffffffffffff8111156129905761298f611f96565b5b61299a8254612578565b6129a58282856128e1565b600060209050601f8311600181146129d857600084156129c6578287015190505b6129d08582612952565b865550612a38565b601f1984166129e6866127c2565b60005b82811015612a0e578489015182556001820191506020850194506020810190506129e9565b86831015612a2b5784890151612a27601f891682612934565b8355505b6001600288020188555050505b505050505050565b7f457870656e736520616c726561647920736574746c6564000000000000000000600082015250565b6000612a76601783612255565b9150612a8182612a40565b602082019050919050565b60006020820190508181036000830152612aa581612a69565b9050919050565b6000602082019050612ac16000830184612246565b92915050565b7f4d69736d61746368656420617272617973000000000000000000000000000000600082015250565b6000612afd601183612255565b9150612b0882612ac7565b602082019050919050565b60006020820190508181036000830152612b2c81612af0565b9050919050565b6000612b3e82611f5d565b9150612b4983611f5d565b925082820190508281121560008312168382126000841215161715612b7157612b706124d2565b5b9291505056fea2646970667358221220508422368ed23ea67265e58a859af9ba08fa28dc1f731ece5ffeefe0fde03c7864736f6c634300081b0033",
  "linkReferences": {},
  "deployedLinkReferences": {}
}