{
  "_format": "hh-sol-artifact-1",
  "contractName": "Splitwise",
  "sourceName": "contracts/Splitwise.sol",
  "abi": [
    {
      "anonymous": false,
      "inputs": [
        {
          "indexed": false,
          "internalType": "uint256",
          "name": "expenseId",
          "type": "uint256"
        }
      ],
      "name": "ExpenseCreated",
      "type": "event"
    },
    {
      "anonymous": false,
      "inputs": [
        {
          "indexed": false,
          "internalType": "uint256",
          "name": "expenseId",
          "type": "uint256"
        }
      ],
      "name": "ExpenseSettled",
      "type": "event"
    },
    {
      "inputs": [
        {
          "internalType": "address",
          "name": "",
          "type": "address"
        }
      ],
      "name": "balances",
      "outputs": [
        {
          "internalType": "int256",
          "name": "",
          "type": "int256"
        }
      ],
      "stateMutability": "view",
      "type": "function"
    },
    {
      "inputs": [
        {
          "internalType": "address[]",
          "name": "members",
          "type": "address[]"
        },
        {
          "internalType": "uint256[]",
          "name": "amounts",
          "type": "uint256[]"
        },
        {
          "internalType": "string",
          "name": "description",
          "type": "string"
        },
        {
          "internalType": "uint256",
          "name": "interestRate",
          "type": "uint256"
        }
      ],
      "name": "createExpense",
      "outputs": [],
      "stateMutability": "nonpayable",
      "type": "function"
    },
    {
      "inputs": [
        {
          "internalType": "uint256",
          "name": "expenseId",
          "type": "uint256"
        }
      ],
      "name": "deleteExpense",
      "outputs": [],
      "stateMutability": "nonpayable",
      "type": "function"
    },
    {
      "inputs": [
        {
          "internalType": "uint256",
          "name": "expenseId",
          "type": "uint256"
        },
        {
          "internalType": "string",
          "name": "newDescription",
          "type": "string"
        }
      ],
      "name": "editExpense",
      "outputs": [],
      "stateMutability": "nonpayable",
      "type": "function"
    },
    {
      "inputs": [
        {
          "internalType": "uint256",
          "name": "",
          "type": "uint256"
        }
      ],
      "name": "expenses",
      "outputs": [
        {
          "internalType": "uint256",
          "name": "id",
          "type": "uint256"
        },
        {
          "internalType": "string",
          "name": "description",
          "type": "string"
        },
        {
          "internalType": "address",
          "name": "owner",
          "type": "address"
        },
        {
          "internalType": "bool",
          "name": "isSettled",
          "type": "bool"
        },
        {
          "internalType": "uint256",
          "name": "interestRate",
          "type": "uint256"
        },
        {
          "internalType": "uint256",
          "name": "creationTimestamp",
          "type": "uint256"
        }
      ],
      "stateMutability": "view",
      "type": "function"
    },
    {
      "inputs": [
        {
          "internalType": "address",
          "name": "user",
          "type": "address"
        }
      ],
      "name": "getBalance",
      "outputs": [
        {
          "internalType": "int256",
          "name": "",
          "type": "int256"
        }
      ],
      "stateMutability": "view",
      "type": "function"
    },
    {
      "inputs": [
        {
          "internalType": "address",
          "name": "owner",
          "type": "address"
        }
      ],
      "name": "getExpensesByOwner",
      "outputs": [
        {
          "components": [
            {
              "internalType": "uint256",
              "name": "id",
              "type": "uint256"
            },
            {
              "internalType": "string",
              "name": "description",
              "type": "string"
            },
            {
              "internalType": "address",
              "name": "owner",
              "type": "address"
            },
            {
              "internalType": "address[]",
              "name": "involvedMembers",
              "type": "address[]"
            },
            {
              "internalType": "uint256[]",
              "name": "amountsOwed",
              "type": "uint256[]"
            },
            {
              "internalType": "bool",
              "name": "isSettled",
              "type": "bool"
            },
            {
              "internalType": "bool[]",
              "name": "hasPaid",
              "type": "bool[]"
            },
            {
              "internalType": "uint256",
              "name": "interestRate",
              "type": "uint256"
            },
            {
              "internalType": "uint256",
              "name": "creationTimestamp",
              "type": "uint256"
            }
          ],
          "internalType": "struct Splitwise.Expense[]",
          "name": "",
          "type": "tuple[]"
        }
      ],
      "stateMutability": "view",
      "type": "function"
    },
    {
      "inputs": [],
      "name": "getExpensesOfCaller",
      "outputs": [
        {
          "components": [
            {
              "internalType": "uint256",
              "name": "id",
              "type": "uint256"
            },
            {
              "internalType": "string",
              "name": "description",
              "type": "string"
            },
            {
              "internalType": "address",
              "name": "owner",
              "type": "address"
            },
            {
              "internalType": "address[]",
              "name": "involvedMembers",
              "type": "address[]"
            },
            {
              "internalType": "uint256[]",
              "name": "amountsOwed",
              "type": "uint256[]"
            },
            {
              "internalType": "bool",
              "name": "isSettled",
              "type": "bool"
            },
            {
              "internalType": "bool[]",
              "name": "hasPaid",
              "type": "bool[]"
            },
            {
              "internalType": "uint256",
              "name": "interestRate",
              "type": "uint256"
            },
            {
              "internalType": "uint256",
              "name": "creationTimestamp",
              "type": "uint256"
            }
          ],
          "internalType": "struct Splitwise.Expense[]",
          "name": "",
          "type": "tuple[]"
        }
      ],
      "stateMutability": "view",
      "type": "function"
    },
    {
      "inputs": [
        {
          "internalType": "uint256",
          "name": "expenseId",
          "type": "uint256"
        },
        {
          "internalType": "address",
          "name": "user",
          "type": "address"
        }
      ],
      "name": "markUserAsPaid",
      "outputs": [],
      "stateMutability": "nonpayable",
      "type": "function"
    },
    {
      "inputs": [
        {
          "internalType": "uint256",
          "name": "expenseId",
          "type": "uint256"
        }
      ],
      "name": "settleExpense",
      "outputs": [],
      "stateMutability": "nonpayable",
      "type": "function"
    }
  ],
  "bytecode": "0x6080604052348015600f57600080fd5b50612b578061001f6000396000f3fe608060405234801561001057600080fd5b506004361061009e5760003560e01c8063c0a7540b11610066578063c0a7540b14610170578063cc2dfb031461018c578063d7821b93146101a8578063db3bf482146101c6578063f8b2cb4f146101e25761009e565b80630697ca06146100a35780630a46ae49146100d357806327e235e3146100ef5780637512dbaa1461011f578063af4afe0a1461013b575b600080fd5b6100bd60048036038101906100b891906119ff565b610212565b6040516100ca9190611ea8565b60405180910390f35b6100ed60048036038101906100e89190611ef6565b610693565b005b610109600480360381019061010491906119ff565b610795565b6040516101169190611f3c565b60405180910390f35b6101396004803603810190610134919061208c565b6107ad565b005b61015560048036038101906101509190611ef6565b61082b565b6040516101679695949392919061215f565b60405180910390f35b61018a60048036038101906101859190611ef6565b61092c565b005b6101a660048036038101906101a19190612352565b610a5d565b005b6101b0610d54565b6040516101bd9190611ea8565b60405180910390f35b6101e060048036038101906101db919061240d565b611295565b005b6101fc60048036038101906101f791906119ff565b61169d565b6040516102099190611f3c565b60405180910390f35b60606000805b6001805490508110156102b9578373ffffffffffffffffffffffffffffffffffffffff16600182815481106102505761024f61244d565b5b906000526020600020906009020160020160009054906101000a900473ffffffffffffffffffffffffffffffffffffffff1673ffffffffffffffffffffffffffffffffffffffff16036102ac5781806102a8906124ab565b9250505b8080600101915050610218565b5060008167ffffffffffffffff8111156102d6576102d5611f61565b5b60405190808252806020026020018201604052801561030f57816020015b6102fc6116e5565b8152602001906001900390816102f45790505b5090506000805b600180549050811015610687578573ffffffffffffffffffffffffffffffffffffffff166001828154811061034e5761034d61244d565b5b906000526020600020906009020160020160009054906101000a900473ffffffffffffffffffffffffffffffffffffffff1673ffffffffffffffffffffffffffffffffffffffff160361067a57600181815481106103af576103ae61244d565b5b906000526020600020906009020160405180610120016040529081600082015481526020016001820180546103e390612522565b80601f016020809104026020016040519081016040528092919081815260200182805461040f90612522565b801561045c5780601f106104315761010080835404028352916020019161045c565b820191906000526020600020905b81548152906001019060200180831161043f57829003601f168201915b505050505081526020016002820160009054906101000a900473ffffffffffffffffffffffffffffffffffffffff1673ffffffffffffffffffffffffffffffffffffffff1673ffffffffffffffffffffffffffffffffffffffff1681526020016003820180548060200260200160405190810160405280929190818152602001828054801561054057602002820191906000526020600020905b8160009054906101000a900473ffffffffffffffffffffffffffffffffffffffff1673ffffffffffffffffffffffffffffffffffffffff16815260200190600101908083116104f6575b505050505081526020016004820180548060200260200160405190810160405280929190818152602001828054801561059857602002820191906000526020600020905b815481526020019060010190808311610584575b505050505081526020016005820160009054906101000a900460ff161515151581526020016006820180548060200260200160405190810160405280929190818152602001828054801561063057602002820191906000526020600020906000905b82829054906101000a900460ff161515815260200190600101906020826000010492830192600103820291508084116105fa5790505b50505050508152602001600782015481526020016008820154815250508383815181106106605761065f61244d565b5b60200260200101819052508180610676906124ab565b9250505b8080600101915050610316565b50819350505050919050565b60018054905081106106da576040517f08c379a00000000000000000000000000000000000000000000000000000000081526004016106d19061259f565b60405180910390fd5b600181815481106106ee576106ed61244d565b5b90600052602060002090600902016000808201600090556001820160006107159190611749565b6002820160006101000a81549073ffffffffffffffffffffffffffffffffffffffff021916905560038201600061074c9190611789565b60048201600061075c91906117aa565b6005820160006101000a81549060ff021916905560068201600061078091906117cb565b60078201600090556008820160009055505050565b60006020528060005260406000206000915090505481565b60018054905082106107f4576040517f08c379a00000000000000000000000000000000000000000000000000000000081526004016107eb9061259f565b60405180910390fd5b80600183815481106108095761080861244d565b5b90600052602060002090600902016001019081610826919061276b565b505050565b6001818154811061083b57600080fd5b906000526020600020906009020160009150905080600001549080600101805461086490612522565b80601f016020809104026020016040519081016040528092919081815260200182805461089090612522565b80156108dd5780601f106108b2576101008083540402835291602001916108dd565b820191906000526020600020905b8154815290600101906020018083116108c057829003601f168201915b5050505050908060020160009054906101000a900473ffffffffffffffffffffffffffffffffffffffff16908060050160009054906101000a900460ff16908060070154908060080154905086565b6001805490508110610973576040517f08c379a000000000000000000000000000000000000000000000000000000000815260040161096a9061259f565b60405180910390fd5b600181815481106109875761098661244d565b5b906000526020600020906009020160050160009054906101000a900460ff16156109e6576040517f08c379a00000000000000000000000000000000000000000000000000000000081526004016109dd90612889565b60405180910390fd5b60018082815481106109fb576109fa61244d565b5b906000526020600020906009020160050160006101000a81548160ff0219169083151502179055507f0f645877fe838126f91b4e7f0c2002e96576b70d9d3483c64ad47a4c586fbf2b81604051610a5291906128a9565b60405180910390a150565b8251845114610aa1576040517f08c379a0000000000000000000000000000000000000000000000000000000008152600401610a9890612910565b60405180910390fd5b60004290506000600180549050905060016040518061012001604052808381526020018681526020013373ffffffffffffffffffffffffffffffffffffffff168152602001888152602001878152602001600015158152602001885167ffffffffffffffff811115610b1657610b15611f61565b5b604051908082528060200260200182016040528015610b445781602001602082028036833780820191505090505b508152602001858152602001848152509080600181540180825580915050600190039060005260206000209060090201600090919091909150600082015181600001556020820151816001019081610b9c919061276b565b5060408201518160020160006101000a81548173ffffffffffffffffffffffffffffffffffffffff021916908373ffffffffffffffffffffffffffffffffffffffff1602179055506060820151816003019080519060200190610c009291906117f3565b506080820151816004019080519060200190610c1d92919061187d565b5060a08201518160050160006101000a81548160ff02191690831515021790555060c0820151816006019080519060200190610c5a9291906118ca565b5060e08201518160070155610100820151816008015550507f8a4fcfa8215b159e8137e3e3ab607d6b2a27ddcbac44eca414476e096d74f4d281604051610ca191906128a9565b60405180910390a160005b8651811015610d4b57858181518110610cc857610cc761244d565b5b6020026020010151600080898481518110610ce657610ce561244d565b5b602002602001015173ffffffffffffffffffffffffffffffffffffffff1673ffffffffffffffffffffffffffffffffffffffff1681526020019081526020016000206000828254610d379190612930565b925050819055508080600101915050610cac565b50505050505050565b60606000805b600180549050811015610e5c5760005b60018281548110610d7e57610d7d61244d565b5b906000526020600020906009020160030180549050811015610e4e573373ffffffffffffffffffffffffffffffffffffffff1660018381548110610dc557610dc461244d565b5b90600052602060002090600902016003018281548110610de857610de761244d565b5b9060005260206000200160009054906101000a900473ffffffffffffffffffffffffffffffffffffffff1673ffffffffffffffffffffffffffffffffffffffff1603610e41578280610e39906124ab565b935050610e4e565b8080600101915050610d6a565b508080600101915050610d5a565b5060008167ffffffffffffffff811115610e7957610e78611f61565b5b604051908082528060200260200182016040528015610eb257816020015b610e9f6116e5565b815260200190600190039081610e975790505b5090506000805b60018054905081101561128b5760005b60018281548110610edd57610edc61244d565b5b90600052602060002090600902016003018054905081101561127d573373ffffffffffffffffffffffffffffffffffffffff1660018381548110610f2457610f2361244d565b5b90600052602060002090600902016003018281548110610f4757610f4661244d565b5b9060005260206000200160009054906101000a900473ffffffffffffffffffffffffffffffffffffffff1673ffffffffffffffffffffffffffffffffffffffff16036112705760018281548110610fa157610fa061244d565b5b90600052602060002090600902016040518061012001604052908160008201548152602001600182018054610fd590612522565b80601f016020809104026020016040519081016040528092919081815260200182805461100190612522565b801561104e5780601f106110235761010080835404028352916020019161104e565b820191906000526020600020905b81548152906001019060200180831161103157829003601f168201915b505050505081526020016002820160009054906101000a900473ffffffffffffffffffffffffffffffffffffffff1673ffffffffffffffffffffffffffffffffffffffff1673ffffffffffffffffffffffffffffffffffffffff1681526020016003820180548060200260200160405190810160405280929190818152602001828054801561113257602002820191906000526020600020905b8160009054906101000a900473ffffffffffffffffffffffffffffffffffffffff1673ffffffffffffffffffffffffffffffffffffffff16815260200190600101908083116110e8575b505050505081526020016004820180548060200260200160405190810160405280929190818152602001828054801561118a57602002820191906000526020600020905b815481526020019060010190808311611176575b505050505081526020016005820160009054906101000a900460ff161515151581526020016006820180548060200260200160405190810160405280929190818152602001828054801561122257602002820191906000526020600020906000905b82829054906101000a900460ff161515815260200190600101906020826000010492830192600103820291508084116111ec5790505b50505050508152602001600782015481526020016008820154815250508484815181106112525761125161244d565b5b60200260200101819052508280611268906124ab565b93505061127d565b8080600101915050610ec9565b508080600101915050610eb9565b5081935050505090565b60018054905082106112dc576040517f08c379a00000000000000000000000000000000000000000000000000000000081526004016112d39061259f565b60405180910390fd5b6000821015611320576040517f08c379a0000000000000000000000000000000000000000000000000000000008152600401611317906129c0565b60405180910390fd5b600073ffffffffffffffffffffffffffffffffffffffff168173ffffffffffffffffffffffffffffffffffffffff160361138f576040517f08c379a000000000000000000000000000000000000000000000000000000000815260040161138690612a2c565b60405180910390fd5b6000805b600184815481106113a7576113a661244d565b5b90600052602060002090600902016003018054905081101561165e578273ffffffffffffffffffffffffffffffffffffffff16600185815481106113ee576113ed61244d565b5b906000526020600020906009020160030182815481106114115761141061244d565b5b9060005260206000200160009054906101000a900473ffffffffffffffffffffffffffffffffffffffff1673ffffffffffffffffffffffffffffffffffffffff16036115e6576001848154811061146b5761146a61244d565b5b9060005260206000209060090201600601818154811061148e5761148d61244d565b5b90600052602060002090602091828204019190069054906101000a900460ff16156114ee576040517f08c379a00000000000000000000000000000000000000000000000000000000081526004016114e590612abe565b60405180910390fd5b600184815481106115025761150161244d565b5b906000526020600020906009020160040181815481106115255761152461244d565b5b90600052602060002001546000808573ffffffffffffffffffffffffffffffffffffffff1673ffffffffffffffffffffffffffffffffffffffff168152602001908152602001600020600082825461157d9190612ade565b9250508190555060018085815481106115995761159861244d565b5b906000526020600020906009020160060182815481106115bc576115bb61244d565b5b90600052602060002090602091828204019190066101000a81548160ff0219169083151502179055505b600184815481106115fa576115f961244d565b5b9060005260206000209060090201600601818154811061161d5761161c61244d565b5b90600052602060002090602091828204019190069054906101000a900460ff161561165157818061164d906124ab565b9250505b8080600101915050611393565b50600183815481106116735761167261244d565b5b9060005260206000209060090201600301805490508103611698576116978361092c565b5b505050565b60008060008373ffffffffffffffffffffffffffffffffffffffff1673ffffffffffffffffffffffffffffffffffffffff168152602001908152602001600020549050919050565b6040518061012001604052806000815260200160608152602001600073ffffffffffffffffffffffffffffffffffffffff16815260200160608152602001606081526020016000151581526020016060815260200160008152602001600081525090565b50805461175590612522565b6000825580601f106117675750611786565b601f0160209004906000526020600020908101906117859190611970565b5b50565b50805460008255906000526020600020908101906117a79190611970565b50565b50805460008255906000526020600020908101906117c89190611970565b50565b50805460008255601f0160209004906000526020600020908101906117f09190611970565b50565b82805482825590600052602060002090810192821561186c579160200282015b8281111561186b5782518260006101000a81548173ffffffffffffffffffffffffffffffffffffffff021916908373ffffffffffffffffffffffffffffffffffffffff16021790555091602001919060010190611813565b5b5090506118799190611970565b5090565b8280548282559060005260206000209081019282156118b9579160200282015b828111156118b857825182559160200191906001019061189d565b5b5090506118c69190611970565b5090565b82805482825590600052602060002090601f0160209004810192821561195f5791602002820160005b8382111561193057835183826101000a81548160ff02191690831515021790555092602001926001016020816000010492830192600103026118f3565b801561195d5782816101000a81549060ff0219169055600101602081600001049283019260010302611930565b505b50905061196c9190611970565b5090565b5b80821115611989576000816000905550600101611971565b5090565b6000604051905090565b600080fd5b600080fd5b600073ffffffffffffffffffffffffffffffffffffffff82169050919050565b60006119cc826119a1565b9050919050565b6119dc816119c1565b81146119e757600080fd5b50565b6000813590506119f9816119d3565b92915050565b600060208284031215611a1557611a14611997565b5b6000611a23848285016119ea565b91505092915050565b600081519050919050565b600082825260208201905092915050565b6000819050602082019050919050565b6000819050919050565b611a6b81611a58565b82525050565b600081519050919050565b600082825260208201905092915050565b60005b83811015611aab578082015181840152602081019050611a90565b60008484015250505050565b6000601f19601f8301169050919050565b6000611ad382611a71565b611add8185611a7c565b9350611aed818560208601611a8d565b611af681611ab7565b840191505092915050565b611b0a816119c1565b82525050565b600081519050919050565b600082825260208201905092915050565b6000819050602082019050919050565b6000611b488383611b01565b60208301905092915050565b6000602082019050919050565b6000611b6c82611b10565b611b768185611b1b565b9350611b8183611b2c565b8060005b83811015611bb2578151611b998882611b3c565b9750611ba483611b54565b925050600181019050611b85565b5085935050505092915050565b600081519050919050565b600082825260208201905092915050565b6000819050602082019050919050565b6000611bf78383611a62565b60208301905092915050565b6000602082019050919050565b6000611c1b82611bbf565b611c258185611bca565b9350611c3083611bdb565b8060005b83811015611c61578151611c488882611beb565b9750611c5383611c03565b925050600181019050611c34565b5085935050505092915050565b60008115159050919050565b611c8381611c6e565b82525050565b600081519050919050565b600082825260208201905092915050565b6000819050602082019050919050565b6000611cc18383611c7a565b60208301905092915050565b6000602082019050919050565b6000611ce582611c89565b611cef8185611c94565b9350611cfa83611ca5565b8060005b83811015611d2b578151611d128882611cb5565b9750611d1d83611ccd565b925050600181019050611cfe565b5085935050505092915050565b600061012083016000830151611d516000860182611a62565b5060208301518482036020860152611d698282611ac8565b9150506040830151611d7e6040860182611b01565b5060608301518482036060860152611d968282611b61565b91505060808301518482036080860152611db08282611c10565b91505060a0830151611dc560a0860182611c7a565b5060c083015184820360c0860152611ddd8282611cda565b91505060e0830151611df260e0860182611a62565b50610100830151611e07610100860182611a62565b508091505092915050565b6000611e1e8383611d38565b905092915050565b6000602082019050919050565b6000611e3e82611a2c565b611e488185611a37565b935083602082028501611e5a85611a48565b8060005b85811015611e965784840389528151611e778582611e12565b9450611e8283611e26565b925060208a01995050600181019050611e5e565b50829750879550505050505092915050565b60006020820190508181036000830152611ec28184611e33565b905092915050565b611ed381611a58565b8114611ede57600080fd5b50565b600081359050611ef081611eca565b92915050565b600060208284031215611f0c57611f0b611997565b5b6000611f1a84828501611ee1565b91505092915050565b6000819050919050565b611f3681611f23565b82525050565b6000602082019050611f516000830184611f2d565b92915050565b600080fd5b600080fd5b7f4e487b7100000000000000000000000000000000000000000000000000000000600052604160045260246000fd5b611f9982611ab7565b810181811067ffffffffffffffff82111715611fb857611fb7611f61565b5b80604052505050565b6000611fcb61198d565b9050611fd78282611f90565b919050565b600067ffffffffffffffff821115611ff757611ff6611f61565b5b61200082611ab7565b9050602081019050919050565b82818337600083830152505050565b600061202f61202a84611fdc565b611fc1565b90508281526020810184848401111561204b5761204a611f5c565b5b61205684828561200d565b509392505050565b600082601f83011261207357612072611f57565b5b813561208384826020860161201c565b91505092915050565b600080604083850312156120a3576120a2611997565b5b60006120b185828601611ee1565b925050602083013567ffffffffffffffff8111156120d2576120d161199c565b5b6120de8582860161205e565b9150509250929050565b6120f181611a58565b82525050565b600082825260208201905092915050565b600061211382611a71565b61211d81856120f7565b935061212d818560208601611a8d565b61213681611ab7565b840191505092915050565b61214a816119c1565b82525050565b61215981611c6e565b82525050565b600060c08201905061217460008301896120e8565b81810360208301526121868188612108565b90506121956040830187612141565b6121a26060830186612150565b6121af60808301856120e8565b6121bc60a08301846120e8565b979650505050505050565b600067ffffffffffffffff8211156121e2576121e1611f61565b5b602082029050602081019050919050565b600080fd5b600061220b612206846121c7565b611fc1565b9050808382526020820190506020840283018581111561222e5761222d6121f3565b5b835b81811015612257578061224388826119ea565b845260208401935050602081019050612230565b5050509392505050565b600082601f83011261227657612275611f57565b5b81356122868482602086016121f8565b91505092915050565b600067ffffffffffffffff8211156122aa576122a9611f61565b5b602082029050602081019050919050565b60006122ce6122c98461228f565b611fc1565b905080838252602082019050602084028301858111156122f1576122f06121f3565b5b835b8181101561231a57806123068882611ee1565b8452602084019350506020810190506122f3565b5050509392505050565b600082601f83011261233957612338611f57565b5b81356123498482602086016122bb565b91505092915050565b6000806000806080858703121561236c5761236b611997565b5b600085013567ffffffffffffffff81111561238a5761238961199c565b5b61239687828801612261565b945050602085013567ffffffffffffffff8111156123b7576123b661199c565b5b6123c387828801612324565b935050604085013567ffffffffffffffff8111156123e4576123e361199c565b5b6123f08782880161205e565b925050606061240187828801611ee1565b91505092959194509250565b6000806040838503121561242457612423611997565b5b600061243285828601611ee1565b9250506020612443858286016119ea565b9150509250929050565b7f4e487b7100000000000000000000000000000000000000000000000000000000600052603260045260246000fd5b7f4e487b7100000000000000000000000000000000000000000000000000000000600052601160045260246000fd5b60006124b682611a58565b91507fffffffffffffffffffffffffffffffffffffffffffffffffffffffffffffffff82036124e8576124e761247c565b5b600182019050919050565b7f4e487b7100000000000000000000000000000000000000000000000000000000600052602260045260246000fd5b6000600282049050600182168061253a57607f821691505b60208210810361254d5761254c6124f3565b5b50919050565b7f457870656e736520646f6573206e6f7420657869737400000000000000000000600082015250565b60006125896016836120f7565b915061259482612553565b602082019050919050565b600060208201905081810360008301526125b88161257c565b9050919050565b60008190508160005260206000209050919050565b60006020601f8301049050919050565b600082821b905092915050565b6000600883026126217fffffffffffffffffffffffffffffffffffffffffffffffffffffffffffffffff826125e4565b61262b86836125e4565b95508019841693508086168417925050509392505050565b6000819050919050565b600061266861266361265e84611a58565b612643565b611a58565b9050919050565b6000819050919050565b6126828361264d565b61269661268e8261266f565b8484546125f1565b825550505050565b600090565b6126ab61269e565b6126b6818484612679565b505050565b5b818110156126da576126cf6000826126a3565b6001810190506126bc565b5050565b601f82111561271f576126f0816125bf565b6126f9846125d4565b81016020851015612708578190505b61271c612714856125d4565b8301826126bb565b50505b505050565b600082821c905092915050565b600061274260001984600802612724565b1980831691505092915050565b600061275b8383612731565b9150826002028217905092915050565b61277482611a71565b67ffffffffffffffff81111561278d5761278c611f61565b5b6127978254612522565b6127a28282856126de565b600060209050601f8311600181146127d557600084156127c3578287015190505b6127cd858261274f565b865550612835565b601f1984166127e3866125bf565b60005b8281101561280b578489015182556001820191506020850194506020810190506127e6565b868310156128285784890151612824601f891682612731565b8355505b6001600288020188555050505b505050505050565b7f457870656e736520616c726561647920736574746c6564000000000000000000600082015250565b60006128736017836120f7565b915061287e8261283d565b602082019050919050565b600060208201905081810360008301526128a281612866565b9050919050565b60006020820190506128be60008301846120e8565b92915050565b7f4d69736d61746368656420617272617973000000000000000000000000000000600082015250565b60006128fa6011836120f7565b9150612905826128c4565b602082019050919050565b60006020820190508181036000830152612929816128ed565b9050919050565b600061293b82611f23565b915061294683611f23565b92508282019050828112156000831216838212600084121516171561296e5761296d61247c565b5b92915050565b7f496e76616c696420657870656e73652049440000000000000000000000000000600082015250565b60006129aa6012836120f7565b91506129b582612974565b602082019050919050565b600060208201905081810360008301526129d98161299d565b9050919050565b7f496e76616c696420757365722061646472657373000000000000000000000000600082015250565b6000612a166014836120f7565b9150612a21826129e0565b602082019050919050565b60006020820190508181036000830152612a4581612a09565b9050919050565b7f557365722068617320616c7265616479206265656e206d61726b65642061732060008201527f7061696400000000000000000000000000000000000000000000000000000000602082015250565b6000612aa86024836120f7565b9150612ab382612a4c565b604082019050919050565b60006020820190508181036000830152612ad781612a9b565b9050919050565b6000612ae982611f23565b9150612af483611f23565b9250828203905081811260008412168282136000851215161715612b1b57612b1a61247c565b5b9291505056fea26469706673582212209fee4954858e5ddace92456e05412add5a7206c1a2954e4dc48c2921f2944ee264736f6c634300081b0033",
  "linkReferences": {},
  "deployedLinkReferences": {}
}