{
  "_format": "hh-sol-artifact-1",
  "contractName": "Splitwise",
  "sourceName": "contracts/Splitwise.sol",
  "abi": [
    {
      "anonymous": false,
      "inputs": [
        {
          "indexed": false,
          "internalType": "uint256",
          "name": "expenseId",
          "type": "uint256"
        }
      ],
      "name": "ExpenseCreated",
      "type": "event"
    },
    {
      "anonymous": false,
      "inputs": [
        {
          "indexed": false,
          "internalType": "uint256",
          "name": "expenseId",
          "type": "uint256"
        }
      ],
      "name": "ExpenseSettled",
      "type": "event"
    },
    {
      "inputs": [
        {
          "internalType": "address",
          "name": "",
          "type": "address"
        }
      ],
      "name": "balances",
      "outputs": [
        {
          "internalType": "int256",
          "name": "",
          "type": "int256"
        }
      ],
      "stateMutability": "view",
      "type": "function"
    },
    {
      "inputs": [
        {
          "internalType": "address[]",
          "name": "members",
          "type": "address[]"
        },
        {
          "internalType": "uint256[]",
          "name": "amounts",
          "type": "uint256[]"
        },
        {
          "internalType": "string",
          "name": "description",
          "type": "string"
        },
        {
          "internalType": "uint256",
          "name": "interestRate",
          "type": "uint256"
        }
      ],
      "name": "createExpense",
      "outputs": [],
      "stateMutability": "nonpayable",
      "type": "function"
    },
    {
      "inputs": [
        {
          "internalType": "uint256",
          "name": "expenseId",
          "type": "uint256"
        }
      ],
      "name": "deleteExpense",
      "outputs": [],
      "stateMutability": "nonpayable",
      "type": "function"
    },
    {
      "inputs": [
        {
          "internalType": "uint256",
          "name": "expenseId",
          "type": "uint256"
        },
        {
          "internalType": "string",
          "name": "newDescription",
          "type": "string"
        }
      ],
      "name": "editExpense",
      "outputs": [],
      "stateMutability": "nonpayable",
      "type": "function"
    },
    {
      "inputs": [
        {
          "internalType": "uint256",
          "name": "",
          "type": "uint256"
        }
      ],
      "name": "expenses",
      "outputs": [
        {
          "internalType": "uint256",
          "name": "id",
          "type": "uint256"
        },
        {
          "internalType": "string",
          "name": "description",
          "type": "string"
        },
        {
          "internalType": "address",
          "name": "owner",
          "type": "address"
        },
        {
          "internalType": "bool",
          "name": "isSettled",
          "type": "bool"
        },
        {
          "internalType": "uint256",
          "name": "interestRate",
          "type": "uint256"
        },
        {
          "internalType": "uint256",
          "name": "creationTimestamp",
          "type": "uint256"
        }
      ],
      "stateMutability": "view",
      "type": "function"
    },
    {
      "inputs": [
        {
          "internalType": "address",
          "name": "user",
          "type": "address"
        }
      ],
      "name": "getBalance",
      "outputs": [
        {
          "internalType": "int256",
          "name": "",
          "type": "int256"
        }
      ],
      "stateMutability": "view",
      "type": "function"
    },
    {
      "inputs": [
        {
          "internalType": "address",
          "name": "owner",
          "type": "address"
        }
      ],
      "name": "getExpensesByOwner",
      "outputs": [
        {
          "components": [
            {
              "internalType": "uint256",
              "name": "id",
              "type": "uint256"
            },
            {
              "internalType": "string",
              "name": "description",
              "type": "string"
            },
            {
              "internalType": "address",
              "name": "owner",
              "type": "address"
            },
            {
              "internalType": "address[]",
              "name": "involvedMembers",
              "type": "address[]"
            },
            {
              "internalType": "uint256[]",
              "name": "amountsOwed",
              "type": "uint256[]"
            },
            {
              "internalType": "bool",
              "name": "isSettled",
              "type": "bool"
            },
            {
              "internalType": "bool[]",
              "name": "hasPaid",
              "type": "bool[]"
            },
            {
              "internalType": "uint256",
              "name": "interestRate",
              "type": "uint256"
            },
            {
              "internalType": "uint256",
              "name": "creationTimestamp",
              "type": "uint256"
            }
          ],
          "internalType": "struct Splitwise.Expense[]",
          "name": "",
          "type": "tuple[]"
        }
      ],
      "stateMutability": "view",
      "type": "function"
    },
    {
      "inputs": [],
      "name": "getExpensesOfCaller",
      "outputs": [
        {
          "components": [
            {
              "internalType": "uint256",
              "name": "id",
              "type": "uint256"
            },
            {
              "internalType": "string",
              "name": "description",
              "type": "string"
            },
            {
              "internalType": "address",
              "name": "owner",
              "type": "address"
            },
            {
              "internalType": "address[]",
              "name": "involvedMembers",
              "type": "address[]"
            },
            {
              "internalType": "uint256[]",
              "name": "amountsOwed",
              "type": "uint256[]"
            },
            {
              "internalType": "bool",
              "name": "isSettled",
              "type": "bool"
            },
            {
              "internalType": "bool[]",
              "name": "hasPaid",
              "type": "bool[]"
            },
            {
              "internalType": "uint256",
              "name": "interestRate",
              "type": "uint256"
            },
            {
              "internalType": "uint256",
              "name": "creationTimestamp",
              "type": "uint256"
            }
          ],
          "internalType": "struct Splitwise.Expense[]",
          "name": "",
          "type": "tuple[]"
        }
      ],
      "stateMutability": "view",
      "type": "function"
    },
    {
      "inputs": [
        {
          "internalType": "uint256",
          "name": "expenseId",
          "type": "uint256"
        },
        {
          "internalType": "address[]",
          "name": "users",
          "type": "address[]"
        }
      ],
      "name": "markUsersAsPaid",
      "outputs": [],
      "stateMutability": "nonpayable",
      "type": "function"
    },
    {
      "inputs": [
        {
          "internalType": "uint256",
          "name": "expenseId",
          "type": "uint256"
        }
      ],
      "name": "settleExpense",
      "outputs": [],
      "stateMutability": "nonpayable",
      "type": "function"
    }
  ],
  "bytecode": "0x6080604052348015600f57600080fd5b50612ae58061001f6000396000f3fe608060405234801561001057600080fd5b506004361061009d5760003560e01c8063af4afe0a11610066578063af4afe0a14610156578063c0a7540b1461018b578063cc2dfb03146101a7578063d7821b93146101c3578063f8b2cb4f146101e15761009d565b8062d69291146100a25780630697ca06146100be5780630a46ae49146100ee57806327e235e31461010a5780637512dbaa1461013a575b600080fd5b6100bc60048036038101906100b79190611b6c565b610211565b005b6100d860048036038101906100d39190611bc8565b6105f8565b6040516100e59190612056565b60405180910390f35b61010860048036038101906101039190612078565b610a79565b005b610124600480360381019061011f9190611bc8565b610b7b565b60405161013191906120be565b60405180910390f35b610154600480360381019061014f919061218e565b610b93565b005b610170600480360381019061016b9190612078565b610c11565b60405161018296959493929190612261565b60405180910390f35b6101a560048036038101906101a09190612078565b610d12565b005b6101c160048036038101906101bc919061238c565b610e43565b005b6101cb61113a565b6040516101d89190612056565b60405180910390f35b6101fb60048036038101906101f69190611bc8565b61167b565b60405161020891906120be565b60405180910390f35b6001805490508210610258576040517f08c379a000000000000000000000000000000000000000000000000000000000815260040161024f90612493565b60405180910390fd5b600082101561029c576040517f08c379a0000000000000000000000000000000000000000000000000000000008152600401610293906124ff565b60405180910390fd5b6000805b600184815481106102b4576102b361251f565b5b9060005260206000209060090201600301805490508110156105b95760005b8351811015610540578381815181106102ef576102ee61251f565b5b602002602001015173ffffffffffffffffffffffffffffffffffffffff16600186815481106103215761032061251f565b5b906000526020600020906009020160030183815481106103445761034361251f565b5b9060005260206000200160009054906101000a900473ffffffffffffffffffffffffffffffffffffffff1673ffffffffffffffffffffffffffffffffffffffff1603610533576001858154811061039e5761039d61251f565b5b906000526020600020906009020160060182815481106103c1576103c061251f565b5b90600052602060002090602091828204019190069054906101000a900460ff1615610421576040517f08c379a0000000000000000000000000000000000000000000000000000000008152600401610418906125c0565b60405180910390fd5b600185815481106104355761043461251f565b5b906000526020600020906009020160040182815481106104585761045761251f565b5b90600052602060002001546000808684815181106104795761047861251f565b5b602002602001015173ffffffffffffffffffffffffffffffffffffffff1673ffffffffffffffffffffffffffffffffffffffff16815260200190815260200160002060008282546104ca919061260f565b9250508190555060018086815481106104e6576104e561251f565b5b906000526020600020906009020160060183815481106105095761050861251f565b5b90600052602060002090602091828204019190066101000a81548160ff0219169083151502179055505b80806001019150506102d3565b50600184815481106105555761055461251f565b5b906000526020600020906009020160060181815481106105785761057761251f565b5b90600052602060002090602091828204019190069054906101000a900460ff16156105ac5781806105a890612652565b9250505b80806001019150506102a0565b50600183815481106105ce576105cd61251f565b5b90600052602060002090600902016003018054905081036105f3576105f283610d12565b5b505050565b60606000805b60018054905081101561069f578373ffffffffffffffffffffffffffffffffffffffff16600182815481106106365761063561251f565b5b906000526020600020906009020160020160009054906101000a900473ffffffffffffffffffffffffffffffffffffffff1673ffffffffffffffffffffffffffffffffffffffff160361069257818061068e90612652565b9250505b80806001019150506105fe565b5060008167ffffffffffffffff8111156106bc576106bb6119cb565b5b6040519080825280602002602001820160405280156106f557816020015b6106e26116c3565b8152602001906001900390816106da5790505b5090506000805b600180549050811015610a6d578573ffffffffffffffffffffffffffffffffffffffff16600182815481106107345761073361251f565b5b906000526020600020906009020160020160009054906101000a900473ffffffffffffffffffffffffffffffffffffffff1673ffffffffffffffffffffffffffffffffffffffff1603610a6057600181815481106107955761079461251f565b5b906000526020600020906009020160405180610120016040529081600082015481526020016001820180546107c9906126c9565b80601f01602080910402602001604051908101604052809291908181526020018280546107f5906126c9565b80156108425780601f1061081757610100808354040283529160200191610842565b820191906000526020600020905b81548152906001019060200180831161082557829003601f168201915b505050505081526020016002820160009054906101000a900473ffffffffffffffffffffffffffffffffffffffff1673ffffffffffffffffffffffffffffffffffffffff1673ffffffffffffffffffffffffffffffffffffffff1681526020016003820180548060200260200160405190810160405280929190818152602001828054801561092657602002820191906000526020600020905b8160009054906101000a900473ffffffffffffffffffffffffffffffffffffffff1673ffffffffffffffffffffffffffffffffffffffff16815260200190600101908083116108dc575b505050505081526020016004820180548060200260200160405190810160405280929190818152602001828054801561097e57602002820191906000526020600020905b81548152602001906001019080831161096a575b505050505081526020016005820160009054906101000a900460ff1615151515815260200160068201805480602002602001604051908101604052809291908181526020018280548015610a1657602002820191906000526020600020906000905b82829054906101000a900460ff161515815260200190600101906020826000010492830192600103820291508084116109e05790505b5050505050815260200160078201548152602001600882015481525050838381518110610a4657610a4561251f565b5b60200260200101819052508180610a5c90612652565b9250505b80806001019150506106fc565b50819350505050919050565b6001805490508110610ac0576040517f08c379a0000000000000000000000000000000000000000000000000000000008152600401610ab790612493565b60405180910390fd5b60018181548110610ad457610ad361251f565b5b9060005260206000209060090201600080820160009055600182016000610afb9190611727565b6002820160006101000a81549073ffffffffffffffffffffffffffffffffffffffff0219169055600382016000610b329190611767565b600482016000610b429190611788565b6005820160006101000a81549060ff0219169055600682016000610b6691906117a9565b60078201600090556008820160009055505050565b60006020528060005260406000206000915090505481565b6001805490508210610bda576040517f08c379a0000000000000000000000000000000000000000000000000000000008152600401610bd190612493565b60405180910390fd5b8060018381548110610bef57610bee61251f565b5b90600052602060002090600902016001019081610c0c91906128a6565b505050565b60018181548110610c2157600080fd5b9060005260206000209060090201600091509050806000015490806001018054610c4a906126c9565b80601f0160208091040260200160405190810160405280929190818152602001828054610c76906126c9565b8015610cc35780601f10610c9857610100808354040283529160200191610cc3565b820191906000526020600020905b815481529060010190602001808311610ca657829003601f168201915b5050505050908060020160009054906101000a900473ffffffffffffffffffffffffffffffffffffffff16908060050160009054906101000a900460ff16908060070154908060080154905086565b6001805490508110610d59576040517f08c379a0000000000000000000000000000000000000000000000000000000008152600401610d5090612493565b60405180910390fd5b60018181548110610d6d57610d6c61251f565b5b906000526020600020906009020160050160009054906101000a900460ff1615610dcc576040517f08c379a0000000000000000000000000000000000000000000000000000000008152600401610dc3906129c4565b60405180910390fd5b6001808281548110610de157610de061251f565b5b906000526020600020906009020160050160006101000a81548160ff0219169083151502179055507f0f645877fe838126f91b4e7f0c2002e96576b70d9d3483c64ad47a4c586fbf2b81604051610e3891906129e4565b60405180910390a150565b8251845114610e87576040517f08c379a0000000000000000000000000000000000000000000000000000000008152600401610e7e90612a4b565b60405180910390fd5b60004290506000600180549050905060016040518061012001604052808381526020018681526020013373ffffffffffffffffffffffffffffffffffffffff168152602001888152602001878152602001600015158152602001885167ffffffffffffffff811115610efc57610efb6119cb565b5b604051908082528060200260200182016040528015610f2a5781602001602082028036833780820191505090505b508152602001858152602001848152509080600181540180825580915050600190039060005260206000209060090201600090919091909150600082015181600001556020820151816001019081610f8291906128a6565b5060408201518160020160006101000a81548173ffffffffffffffffffffffffffffffffffffffff021916908373ffffffffffffffffffffffffffffffffffffffff1602179055506060820151816003019080519060200190610fe69291906117d1565b50608082015181600401908051906020019061100392919061185b565b5060a08201518160050160006101000a81548160ff02191690831515021790555060c08201518160060190805190602001906110409291906118a8565b5060e08201518160070155610100820151816008015550507f8a4fcfa8215b159e8137e3e3ab607d6b2a27ddcbac44eca414476e096d74f4d28160405161108791906129e4565b60405180910390a160005b8651811015611131578581815181106110ae576110ad61251f565b5b60200260200101516000808984815181106110cc576110cb61251f565b5b602002602001015173ffffffffffffffffffffffffffffffffffffffff1673ffffffffffffffffffffffffffffffffffffffff168152602001908152602001600020600082825461111d9190612a6b565b925050819055508080600101915050611092565b50505050505050565b60606000805b6001805490508110156112425760005b600182815481106111645761116361251f565b5b906000526020600020906009020160030180549050811015611234573373ffffffffffffffffffffffffffffffffffffffff16600183815481106111ab576111aa61251f565b5b906000526020600020906009020160030182815481106111ce576111cd61251f565b5b9060005260206000200160009054906101000a900473ffffffffffffffffffffffffffffffffffffffff1673ffffffffffffffffffffffffffffffffffffffff160361122757828061121f90612652565b935050611234565b8080600101915050611150565b508080600101915050611140565b5060008167ffffffffffffffff81111561125f5761125e6119cb565b5b60405190808252806020026020018201604052801561129857816020015b6112856116c3565b81526020019060019003908161127d5790505b5090506000805b6001805490508110156116715760005b600182815481106112c3576112c261251f565b5b906000526020600020906009020160030180549050811015611663573373ffffffffffffffffffffffffffffffffffffffff166001838154811061130a5761130961251f565b5b9060005260206000209060090201600301828154811061132d5761132c61251f565b5b9060005260206000200160009054906101000a900473ffffffffffffffffffffffffffffffffffffffff1673ffffffffffffffffffffffffffffffffffffffff160361165657600182815481106113875761138661251f565b5b906000526020600020906009020160405180610120016040529081600082015481526020016001820180546113bb906126c9565b80601f01602080910402602001604051908101604052809291908181526020018280546113e7906126c9565b80156114345780601f1061140957610100808354040283529160200191611434565b820191906000526020600020905b81548152906001019060200180831161141757829003601f168201915b505050505081526020016002820160009054906101000a900473ffffffffffffffffffffffffffffffffffffffff1673ffffffffffffffffffffffffffffffffffffffff1673ffffffffffffffffffffffffffffffffffffffff1681526020016003820180548060200260200160405190810160405280929190818152602001828054801561151857602002820191906000526020600020905b8160009054906101000a900473ffffffffffffffffffffffffffffffffffffffff1673ffffffffffffffffffffffffffffffffffffffff16815260200190600101908083116114ce575b505050505081526020016004820180548060200260200160405190810160405280929190818152602001828054801561157057602002820191906000526020600020905b81548152602001906001019080831161155c575b505050505081526020016005820160009054906101000a900460ff161515151581526020016006820180548060200260200160405190810160405280929190818152602001828054801561160857602002820191906000526020600020906000905b82829054906101000a900460ff161515815260200190600101906020826000010492830192600103820291508084116115d25790505b50505050508152602001600782015481526020016008820154815250508484815181106116385761163761251f565b5b6020026020010181905250828061164e90612652565b935050611663565b80806001019150506112af565b50808060010191505061129f565b5081935050505090565b60008060008373ffffffffffffffffffffffffffffffffffffffff1673ffffffffffffffffffffffffffffffffffffffff168152602001908152602001600020549050919050565b6040518061012001604052806000815260200160608152602001600073ffffffffffffffffffffffffffffffffffffffff16815260200160608152602001606081526020016000151581526020016060815260200160008152602001600081525090565b508054611733906126c9565b6000825580601f106117455750611764565b601f016020900490600052602060002090810190611763919061194e565b5b50565b5080546000825590600052602060002090810190611785919061194e565b50565b50805460008255906000526020600020908101906117a6919061194e565b50565b50805460008255601f0160209004906000526020600020908101906117ce919061194e565b50565b82805482825590600052602060002090810192821561184a579160200282015b828111156118495782518260006101000a81548173ffffffffffffffffffffffffffffffffffffffff021916908373ffffffffffffffffffffffffffffffffffffffff160217905550916020019190600101906117f1565b5b509050611857919061194e565b5090565b828054828255906000526020600020908101928215611897579160200282015b8281111561189657825182559160200191906001019061187b565b5b5090506118a4919061194e565b5090565b82805482825590600052602060002090601f0160209004810192821561193d5791602002820160005b8382111561190e57835183826101000a81548160ff02191690831515021790555092602001926001016020816000010492830192600103026118d1565b801561193b5782816101000a81549060ff021916905560010160208160000104928301926001030261190e565b505b50905061194a919061194e565b5090565b5b8082111561196757600081600090555060010161194f565b5090565b6000604051905090565b600080fd5b600080fd5b6000819050919050565b6119928161197f565b811461199d57600080fd5b50565b6000813590506119af81611989565b92915050565b600080fd5b6000601f19601f8301169050919050565b7f4e487b7100000000000000000000000000000000000000000000000000000000600052604160045260246000fd5b611a03826119ba565b810181811067ffffffffffffffff82111715611a2257611a216119cb565b5b80604052505050565b6000611a3561196b565b9050611a4182826119fa565b919050565b600067ffffffffffffffff821115611a6157611a606119cb565b5b602082029050602081019050919050565b600080fd5b600073ffffffffffffffffffffffffffffffffffffffff82169050919050565b6000611aa282611a77565b9050919050565b611ab281611a97565b8114611abd57600080fd5b50565b600081359050611acf81611aa9565b92915050565b6000611ae8611ae384611a46565b611a2b565b90508083825260208201905060208402830185811115611b0b57611b0a611a72565b5b835b81811015611b345780611b208882611ac0565b845260208401935050602081019050611b0d565b5050509392505050565b600082601f830112611b5357611b526119b5565b5b8135611b63848260208601611ad5565b91505092915050565b60008060408385031215611b8357611b82611975565b5b6000611b91858286016119a0565b925050602083013567ffffffffffffffff811115611bb257611bb161197a565b5b611bbe85828601611b3e565b9150509250929050565b600060208284031215611bde57611bdd611975565b5b6000611bec84828501611ac0565b91505092915050565b600081519050919050565b600082825260208201905092915050565b6000819050602082019050919050565b611c2a8161197f565b82525050565b600081519050919050565b600082825260208201905092915050565b60005b83811015611c6a578082015181840152602081019050611c4f565b60008484015250505050565b6000611c8182611c30565b611c8b8185611c3b565b9350611c9b818560208601611c4c565b611ca4816119ba565b840191505092915050565b611cb881611a97565b82525050565b600081519050919050565b600082825260208201905092915050565b6000819050602082019050919050565b6000611cf68383611caf565b60208301905092915050565b6000602082019050919050565b6000611d1a82611cbe565b611d248185611cc9565b9350611d2f83611cda565b8060005b83811015611d60578151611d478882611cea565b9750611d5283611d02565b925050600181019050611d33565b5085935050505092915050565b600081519050919050565b600082825260208201905092915050565b6000819050602082019050919050565b6000611da58383611c21565b60208301905092915050565b6000602082019050919050565b6000611dc982611d6d565b611dd38185611d78565b9350611dde83611d89565b8060005b83811015611e0f578151611df68882611d99565b9750611e0183611db1565b925050600181019050611de2565b5085935050505092915050565b60008115159050919050565b611e3181611e1c565b82525050565b600081519050919050565b600082825260208201905092915050565b6000819050602082019050919050565b6000611e6f8383611e28565b60208301905092915050565b6000602082019050919050565b6000611e9382611e37565b611e9d8185611e42565b9350611ea883611e53565b8060005b83811015611ed9578151611ec08882611e63565b9750611ecb83611e7b565b925050600181019050611eac565b5085935050505092915050565b600061012083016000830151611eff6000860182611c21565b5060208301518482036020860152611f178282611c76565b9150506040830151611f2c6040860182611caf565b5060608301518482036060860152611f448282611d0f565b91505060808301518482036080860152611f5e8282611dbe565b91505060a0830151611f7360a0860182611e28565b5060c083015184820360c0860152611f8b8282611e88565b91505060e0830151611fa060e0860182611c21565b50610100830151611fb5610100860182611c21565b508091505092915050565b6000611fcc8383611ee6565b905092915050565b6000602082019050919050565b6000611fec82611bf5565b611ff68185611c00565b93508360208202850161200885611c11565b8060005b8581101561204457848403895281516120258582611fc0565b945061203083611fd4565b925060208a0199505060018101905061200c565b50829750879550505050505092915050565b600060208201905081810360008301526120708184611fe1565b905092915050565b60006020828403121561208e5761208d611975565b5b600061209c848285016119a0565b91505092915050565b6000819050919050565b6120b8816120a5565b82525050565b60006020820190506120d360008301846120af565b92915050565b600080fd5b600067ffffffffffffffff8211156120f9576120f86119cb565b5b612102826119ba565b9050602081019050919050565b82818337600083830152505050565b600061213161212c846120de565b611a2b565b90508281526020810184848401111561214d5761214c6120d9565b5b61215884828561210f565b509392505050565b600082601f830112612175576121746119b5565b5b813561218584826020860161211e565b91505092915050565b600080604083850312156121a5576121a4611975565b5b60006121b3858286016119a0565b925050602083013567ffffffffffffffff8111156121d4576121d361197a565b5b6121e085828601612160565b9150509250929050565b6121f38161197f565b82525050565b600082825260208201905092915050565b600061221582611c30565b61221f81856121f9565b935061222f818560208601611c4c565b612238816119ba565b840191505092915050565b61224c81611a97565b82525050565b61225b81611e1c565b82525050565b600060c08201905061227660008301896121ea565b8181036020830152612288818861220a565b90506122976040830187612243565b6122a46060830186612252565b6122b160808301856121ea565b6122be60a08301846121ea565b979650505050505050565b600067ffffffffffffffff8211156122e4576122e36119cb565b5b602082029050602081019050919050565b6000612308612303846122c9565b611a2b565b9050808382526020820190506020840283018581111561232b5761232a611a72565b5b835b81811015612354578061234088826119a0565b84526020840193505060208101905061232d565b5050509392505050565b600082601f830112612373576123726119b5565b5b81356123838482602086016122f5565b91505092915050565b600080600080608085870312156123a6576123a5611975565b5b600085013567ffffffffffffffff8111156123c4576123c361197a565b5b6123d087828801611b3e565b945050602085013567ffffffffffffffff8111156123f1576123f061197a565b5b6123fd8782880161235e565b935050604085013567ffffffffffffffff81111561241e5761241d61197a565b5b61242a87828801612160565b925050606061243b878288016119a0565b91505092959194509250565b7f457870656e736520646f6573206e6f7420657869737400000000000000000000600082015250565b600061247d6016836121f9565b915061248882612447565b602082019050919050565b600060208201905081810360008301526124ac81612470565b9050919050565b7f496e76616c696420657870656e73652049440000000000000000000000000000600082015250565b60006124e96012836121f9565b91506124f4826124b3565b602082019050919050565b60006020820190508181036000830152612518816124dc565b9050919050565b7f4e487b7100000000000000000000000000000000000000000000000000000000600052603260045260246000fd5b7f557365722068617320616c7265616479206265656e206d61726b65642061732060008201527f7061696400000000000000000000000000000000000000000000000000000000602082015250565b60006125aa6024836121f9565b91506125b58261254e565b604082019050919050565b600060208201905081810360008301526125d98161259d565b9050919050565b7f4e487b7100000000000000000000000000000000000000000000000000000000600052601160045260246000fd5b600061261a826120a5565b9150612625836120a5565b925082820390508181126000841216828213600085121516171561264c5761264b6125e0565b5b92915050565b600061265d8261197f565b91507fffffffffffffffffffffffffffffffffffffffffffffffffffffffffffffffff820361268f5761268e6125e0565b5b600182019050919050565b7f4e487b7100000000000000000000000000000000000000000000000000000000600052602260045260246000fd5b600060028204905060018216806126e157607f821691505b6020821081036126f4576126f361269a565b5b50919050565b60008190508160005260206000209050919050565b60006020601f8301049050919050565b600082821b905092915050565b60006008830261275c7fffffffffffffffffffffffffffffffffffffffffffffffffffffffffffffffff8261271f565b612766868361271f565b95508019841693508086168417925050509392505050565b6000819050919050565b60006127a361279e6127998461197f565b61277e565b61197f565b9050919050565b6000819050919050565b6127bd83612788565b6127d16127c9826127aa565b84845461272c565b825550505050565b600090565b6127e66127d9565b6127f18184846127b4565b505050565b5b818110156128155761280a6000826127de565b6001810190506127f7565b5050565b601f82111561285a5761282b816126fa565b6128348461270f565b81016020851015612843578190505b61285761284f8561270f565b8301826127f6565b50505b505050565b600082821c905092915050565b600061287d6000198460080261285f565b1980831691505092915050565b6000612896838361286c565b9150826002028217905092915050565b6128af82611c30565b67ffffffffffffffff8111156128c8576128c76119cb565b5b6128d282546126c9565b6128dd828285612819565b600060209050601f83116001811461291057600084156128fe578287015190505b612908858261288a565b865550612970565b601f19841661291e866126fa565b60005b8281101561294657848901518255600182019150602085019450602081019050612921565b86831015612963578489015161295f601f89168261286c565b8355505b6001600288020188555050505b505050505050565b7f457870656e736520616c726561647920736574746c6564000000000000000000600082015250565b60006129ae6017836121f9565b91506129b982612978565b602082019050919050565b600060208201905081810360008301526129dd816129a1565b9050919050565b60006020820190506129f960008301846121ea565b92915050565b7f4d69736d61746368656420617272617973000000000000000000000000000000600082015250565b6000612a356011836121f9565b9150612a40826129ff565b602082019050919050565b60006020820190508181036000830152612a6481612a28565b9050919050565b6000612a76826120a5565b9150612a81836120a5565b925082820190508281121560008312168382126000841215161715612aa957612aa86125e0565b5b9291505056fea2646970667358221220ddfd556f5e431471d0c2a67d442e51b8428b575e3461be1d0abe686962bd4e9c64736f6c634300081b0033",
  "linkReferences": {},
  "deployedLinkReferences": {}
}