{
  "_format": "hh-sol-artifact-1",
  "contractName": "Splitwise",
  "sourceName": "contracts/Splitwise.sol",
  "abi": [
    {
      "anonymous": false,
      "inputs": [
        {
          "indexed": false,
          "internalType": "uint256",
          "name": "expenseId",
          "type": "uint256"
        }
      ],
      "name": "ExpenseCreated",
      "type": "event"
    },
    {
      "anonymous": false,
      "inputs": [
        {
          "indexed": false,
          "internalType": "uint256",
          "name": "expenseId",
          "type": "uint256"
        }
      ],
      "name": "ExpenseSettled",
      "type": "event"
    },
    {
      "inputs": [
        {
          "internalType": "address",
          "name": "",
          "type": "address"
        }
      ],
      "name": "balances",
      "outputs": [
        {
          "internalType": "int256",
          "name": "",
          "type": "int256"
        }
      ],
      "stateMutability": "view",
      "type": "function"
    },
    {
      "inputs": [
        {
          "internalType": "address[]",
          "name": "members",
          "type": "address[]"
        },
        {
          "internalType": "uint256[]",
          "name": "amounts",
          "type": "uint256[]"
        },
        {
          "internalType": "string",
          "name": "description",
          "type": "string"
        },
        {
          "internalType": "uint256",
          "name": "interestRate",
          "type": "uint256"
        }
      ],
      "name": "createExpense",
      "outputs": [],
      "stateMutability": "nonpayable",
      "type": "function"
    },
    {
      "inputs": [
        {
          "internalType": "uint256",
          "name": "expenseId",
          "type": "uint256"
        }
      ],
      "name": "deleteExpense",
      "outputs": [],
      "stateMutability": "nonpayable",
      "type": "function"
    },
    {
      "inputs": [
        {
          "internalType": "uint256",
          "name": "expenseId",
          "type": "uint256"
        },
        {
          "internalType": "string",
          "name": "newDescription",
          "type": "string"
        }
      ],
      "name": "editExpense",
      "outputs": [],
      "stateMutability": "nonpayable",
      "type": "function"
    },
    {
      "inputs": [
        {
          "internalType": "uint256",
          "name": "",
          "type": "uint256"
        }
      ],
      "name": "expenses",
      "outputs": [
        {
          "internalType": "uint256",
          "name": "id",
          "type": "uint256"
        },
        {
          "internalType": "string",
          "name": "description",
          "type": "string"
        },
        {
          "internalType": "address",
          "name": "owner",
          "type": "address"
        },
        {
          "internalType": "bool",
          "name": "isSettled",
          "type": "bool"
        },
        {
          "internalType": "uint256",
          "name": "interestRate",
          "type": "uint256"
        },
        {
          "internalType": "uint256",
          "name": "creationTimestamp",
          "type": "uint256"
        }
      ],
      "stateMutability": "view",
      "type": "function"
    },
    {
      "inputs": [
        {
          "internalType": "address",
          "name": "user",
          "type": "address"
        }
      ],
      "name": "getBalance",
      "outputs": [
        {
          "internalType": "int256",
          "name": "",
          "type": "int256"
        }
      ],
      "stateMutability": "view",
      "type": "function"
    },
    {
      "inputs": [
        {
          "internalType": "address",
          "name": "owner",
          "type": "address"
        }
      ],
      "name": "getExpensesByOwner",
      "outputs": [
        {
          "components": [
            {
              "internalType": "uint256",
              "name": "id",
              "type": "uint256"
            },
            {
              "internalType": "string",
              "name": "description",
              "type": "string"
            },
            {
              "internalType": "address",
              "name": "owner",
              "type": "address"
            },
            {
              "internalType": "address[]",
              "name": "involvedMembers",
              "type": "address[]"
            },
            {
              "internalType": "uint256[]",
              "name": "amountsOwed",
              "type": "uint256[]"
            },
            {
              "internalType": "bool",
              "name": "isSettled",
              "type": "bool"
            },
            {
              "internalType": "bool[]",
              "name": "hasPaid",
              "type": "bool[]"
            },
            {
              "internalType": "uint256",
              "name": "interestRate",
              "type": "uint256"
            },
            {
              "internalType": "uint256",
              "name": "creationTimestamp",
              "type": "uint256"
            }
          ],
          "internalType": "struct Splitwise.Expense[]",
          "name": "",
          "type": "tuple[]"
        }
      ],
      "stateMutability": "view",
      "type": "function"
    },
    {
      "inputs": [],
      "name": "getExpensesOfCaller",
      "outputs": [
        {
          "components": [
            {
              "internalType": "uint256",
              "name": "id",
              "type": "uint256"
            },
            {
              "internalType": "string",
              "name": "description",
              "type": "string"
            },
            {
              "internalType": "address",
              "name": "owner",
              "type": "address"
            },
            {
              "internalType": "address[]",
              "name": "involvedMembers",
              "type": "address[]"
            },
            {
              "internalType": "uint256[]",
              "name": "amountsOwed",
              "type": "uint256[]"
            },
            {
              "internalType": "bool",
              "name": "isSettled",
              "type": "bool"
            },
            {
              "internalType": "bool[]",
              "name": "hasPaid",
              "type": "bool[]"
            },
            {
              "internalType": "uint256",
              "name": "interestRate",
              "type": "uint256"
            },
            {
              "internalType": "uint256",
              "name": "creationTimestamp",
              "type": "uint256"
            }
          ],
          "internalType": "struct Splitwise.Expense[]",
          "name": "",
          "type": "tuple[]"
        }
      ],
      "stateMutability": "view",
      "type": "function"
    },
    {
      "inputs": [
        {
          "internalType": "uint256[]",
          "name": "expenseIds",
          "type": "uint256[]"
        },
        {
          "internalType": "address",
          "name": "user",
          "type": "address"
        }
      ],
      "name": "markUserAsPaid",
      "outputs": [],
      "stateMutability": "nonpayable",
      "type": "function"
    },
    {
      "inputs": [
        {
          "internalType": "uint256",
          "name": "expenseId",
          "type": "uint256"
        }
      ],
      "name": "settleExpense",
      "outputs": [],
      "stateMutability": "nonpayable",
      "type": "function"
    }
  ],
  "bytecode": "0x6080604052348015600f57600080fd5b50612cf48061001f6000396000f3fe608060405234801561001057600080fd5b506004361061009e5760003560e01c8063af4afe0a11610066578063af4afe0a14610157578063c0a7540b1461018c578063cc2dfb03146101a8578063d7821b93146101c4578063f8b2cb4f146101e25761009e565b80630697ca06146100a35780630a46ae49146100d357806327e235e3146100ef5780635d98878c1461011f5780637512dbaa1461013b575b600080fd5b6100bd60048036038101906100b89190611aee565b610212565b6040516100ca9190611f97565b60405180910390f35b6100ed60048036038101906100e89190611fe5565b610693565b005b61010960048036038101906101049190611aee565b610795565b604051610116919061202b565b60405180910390f35b6101396004803603810190610134919061218e565b6107ad565b005b6101556004803603810190610150919061229f565b610ca4565b005b610171600480360381019061016c9190611fe5565b610d22565b60405161018396959493929190612372565b60405180910390f35b6101a660048036038101906101a19190611fe5565b610e23565b005b6101c260048036038101906101bd919061249d565b610f54565b005b6101cc61124b565b6040516101d99190611f97565b60405180910390f35b6101fc60048036038101906101f79190611aee565b61178c565b604051610209919061202b565b60405180910390f35b60606000805b6001805490508110156102b9578373ffffffffffffffffffffffffffffffffffffffff16600182815481106102505761024f612558565b5b906000526020600020906009020160020160009054906101000a900473ffffffffffffffffffffffffffffffffffffffff1673ffffffffffffffffffffffffffffffffffffffff16036102ac5781806102a8906125b6565b9250505b8080600101915050610218565b5060008167ffffffffffffffff8111156102d6576102d561204b565b5b60405190808252806020026020018201604052801561030f57816020015b6102fc6117d4565b8152602001906001900390816102f45790505b5090506000805b600180549050811015610687578573ffffffffffffffffffffffffffffffffffffffff166001828154811061034e5761034d612558565b5b906000526020600020906009020160020160009054906101000a900473ffffffffffffffffffffffffffffffffffffffff1673ffffffffffffffffffffffffffffffffffffffff160361067a57600181815481106103af576103ae612558565b5b906000526020600020906009020160405180610120016040529081600082015481526020016001820180546103e39061262d565b80601f016020809104026020016040519081016040528092919081815260200182805461040f9061262d565b801561045c5780601f106104315761010080835404028352916020019161045c565b820191906000526020600020905b81548152906001019060200180831161043f57829003601f168201915b505050505081526020016002820160009054906101000a900473ffffffffffffffffffffffffffffffffffffffff1673ffffffffffffffffffffffffffffffffffffffff1673ffffffffffffffffffffffffffffffffffffffff1681526020016003820180548060200260200160405190810160405280929190818152602001828054801561054057602002820191906000526020600020905b8160009054906101000a900473ffffffffffffffffffffffffffffffffffffffff1673ffffffffffffffffffffffffffffffffffffffff16815260200190600101908083116104f6575b505050505081526020016004820180548060200260200160405190810160405280929190818152602001828054801561059857602002820191906000526020600020905b815481526020019060010190808311610584575b505050505081526020016005820160009054906101000a900460ff161515151581526020016006820180548060200260200160405190810160405280929190818152602001828054801561063057602002820191906000526020600020906000905b82829054906101000a900460ff161515815260200190600101906020826000010492830192600103820291508084116105fa5790505b50505050508152602001600782015481526020016008820154815250508383815181106106605761065f612558565b5b60200260200101819052508180610676906125b6565b9250505b8080600101915050610316565b50819350505050919050565b60018054905081106106da576040517f08c379a00000000000000000000000000000000000000000000000000000000081526004016106d1906126aa565b60405180910390fd5b600181815481106106ee576106ed612558565b5b90600052602060002090600902016000808201600090556001820160006107159190611838565b6002820160006101000a81549073ffffffffffffffffffffffffffffffffffffffff021916905560038201600061074c9190611878565b60048201600061075c9190611899565b6005820160006101000a81549060ff021916905560068201600061078091906118ba565b60078201600090556008820160009055505050565b60006020528060005260406000206000915090505481565b60008251116107f1576040517f08c379a00000000000000000000000000000000000000000000000000000000081526004016107e890612716565b60405180910390fd5b600073ffffffffffffffffffffffffffffffffffffffff168173ffffffffffffffffffffffffffffffffffffffff1603610860576040517f08c379a000000000000000000000000000000000000000000000000000000000815260040161085790612782565b60405180910390fd5b6000805b8351811015610c9b57600084828151811061088257610881612558565b5b6020026020010151905060018054905081106108d3576040517f08c379a00000000000000000000000000000000000000000000000000000000081526004016108ca906126aa565b60405180910390fd5b60008060005b600184815481106108ed576108ec612558565b5b9060005260206000209060090201600301805490508110156109b6578673ffffffffffffffffffffffffffffffffffffffff166001858154811061093457610933612558565b5b9060005260206000209060090201600301828154811061095757610956612558565b5b9060005260206000200160009054906101000a900473ffffffffffffffffffffffffffffffffffffffff1673ffffffffffffffffffffffffffffffffffffffff16036109a957809150600192506109b6565b80806001019150506108d9565b50816109f7576040517f08c379a00000000000000000000000000000000000000000000000000000000081526004016109ee90612814565b60405180910390fd5b60018381548110610a0b57610a0a612558565b5b90600052602060002090600902016006018181548110610a2e57610a2d612558565b5b90600052602060002090602091828204019190069054906101000a900460ff1615610a8e576040517f08c379a0000000000000000000000000000000000000000000000000000000008152600401610a85906128a6565b60405180910390fd5b60018381548110610aa257610aa1612558565b5b90600052602060002090600902016004018181548110610ac557610ac4612558565b5b90600052602060002001546000808873ffffffffffffffffffffffffffffffffffffffff1673ffffffffffffffffffffffffffffffffffffffff1681526020019081526020016000206000828254610b1d91906128c6565b925050819055506001808481548110610b3957610b38612558565b5b90600052602060002090600902016006018281548110610b5c57610b5b612558565b5b90600052602060002090602091828204019190066101000a81548160ff02191690831515021790555060006001905060005b60018581548110610ba257610ba1612558565b5b906000526020600020906009020160060180549050811015610c2f5760018581548110610bd257610bd1612558565b5b90600052602060002090600902016006018181548110610bf557610bf4612558565b5b90600052602060002090602091828204019190069054906101000a900460ff16610c225760009150610c2f565b8080600101915050610b8e565b50808015610c6d575060018481548110610c4c57610c4b612558565b5b906000526020600020906009020160050160009054906101000a900460ff16155b15610c7c57610c7b84610e23565b5b8580610c87906125b6565b965050505050508080600101915050610864565b50825150505050565b6001805490508210610ceb576040517f08c379a0000000000000000000000000000000000000000000000000000000008152600401610ce2906126aa565b60405180910390fd5b8060018381548110610d0057610cff612558565b5b90600052602060002090600902016001019081610d1d9190612ab5565b505050565b60018181548110610d3257600080fd5b9060005260206000209060090201600091509050806000015490806001018054610d5b9061262d565b80601f0160208091040260200160405190810160405280929190818152602001828054610d879061262d565b8015610dd45780601f10610da957610100808354040283529160200191610dd4565b820191906000526020600020905b815481529060010190602001808311610db757829003601f168201915b5050505050908060020160009054906101000a900473ffffffffffffffffffffffffffffffffffffffff16908060050160009054906101000a900460ff16908060070154908060080154905086565b6001805490508110610e6a576040517f08c379a0000000000000000000000000000000000000000000000000000000008152600401610e61906126aa565b60405180910390fd5b60018181548110610e7e57610e7d612558565b5b906000526020600020906009020160050160009054906101000a900460ff1615610edd576040517f08c379a0000000000000000000000000000000000000000000000000000000008152600401610ed490612bd3565b60405180910390fd5b6001808281548110610ef257610ef1612558565b5b906000526020600020906009020160050160006101000a81548160ff0219169083151502179055507f0f645877fe838126f91b4e7f0c2002e96576b70d9d3483c64ad47a4c586fbf2b81604051610f499190612bf3565b60405180910390a150565b8251845114610f98576040517f08c379a0000000000000000000000000000000000000000000000000000000008152600401610f8f90612c5a565b60405180910390fd5b60004290506000600180549050905060016040518061012001604052808381526020018681526020013373ffffffffffffffffffffffffffffffffffffffff168152602001888152602001878152602001600015158152602001885167ffffffffffffffff81111561100d5761100c61204b565b5b60405190808252806020026020018201604052801561103b5781602001602082028036833780820191505090505b5081526020018581526020018481525090806001815401808255809150506001900390600052602060002090600902016000909190919091506000820151816000015560208201518160010190816110939190612ab5565b5060408201518160020160006101000a81548173ffffffffffffffffffffffffffffffffffffffff021916908373ffffffffffffffffffffffffffffffffffffffff16021790555060608201518160030190805190602001906110f79291906118e2565b50608082015181600401908051906020019061111492919061196c565b5060a08201518160050160006101000a81548160ff02191690831515021790555060c08201518160060190805190602001906111519291906119b9565b5060e08201518160070155610100820151816008015550507f8a4fcfa8215b159e8137e3e3ab607d6b2a27ddcbac44eca414476e096d74f4d2816040516111989190612bf3565b60405180910390a160005b8651811015611242578581815181106111bf576111be612558565b5b60200260200101516000808984815181106111dd576111dc612558565b5b602002602001015173ffffffffffffffffffffffffffffffffffffffff1673ffffffffffffffffffffffffffffffffffffffff168152602001908152602001600020600082825461122e9190612c7a565b9250508190555080806001019150506111a3565b50505050505050565b60606000805b6001805490508110156113535760005b6001828154811061127557611274612558565b5b906000526020600020906009020160030180549050811015611345573373ffffffffffffffffffffffffffffffffffffffff16600183815481106112bc576112bb612558565b5b906000526020600020906009020160030182815481106112df576112de612558565b5b9060005260206000200160009054906101000a900473ffffffffffffffffffffffffffffffffffffffff1673ffffffffffffffffffffffffffffffffffffffff1603611338578280611330906125b6565b935050611345565b8080600101915050611261565b508080600101915050611251565b5060008167ffffffffffffffff8111156113705761136f61204b565b5b6040519080825280602002602001820160405280156113a957816020015b6113966117d4565b81526020019060019003908161138e5790505b5090506000805b6001805490508110156117825760005b600182815481106113d4576113d3612558565b5b906000526020600020906009020160030180549050811015611774573373ffffffffffffffffffffffffffffffffffffffff166001838154811061141b5761141a612558565b5b9060005260206000209060090201600301828154811061143e5761143d612558565b5b9060005260206000200160009054906101000a900473ffffffffffffffffffffffffffffffffffffffff1673ffffffffffffffffffffffffffffffffffffffff1603611767576001828154811061149857611497612558565b5b906000526020600020906009020160405180610120016040529081600082015481526020016001820180546114cc9061262d565b80601f01602080910402602001604051908101604052809291908181526020018280546114f89061262d565b80156115455780601f1061151a57610100808354040283529160200191611545565b820191906000526020600020905b81548152906001019060200180831161152857829003601f168201915b505050505081526020016002820160009054906101000a900473ffffffffffffffffffffffffffffffffffffffff1673ffffffffffffffffffffffffffffffffffffffff1673ffffffffffffffffffffffffffffffffffffffff1681526020016003820180548060200260200160405190810160405280929190818152602001828054801561162957602002820191906000526020600020905b8160009054906101000a900473ffffffffffffffffffffffffffffffffffffffff1673ffffffffffffffffffffffffffffffffffffffff16815260200190600101908083116115df575b505050505081526020016004820180548060200260200160405190810160405280929190818152602001828054801561168157602002820191906000526020600020905b81548152602001906001019080831161166d575b505050505081526020016005820160009054906101000a900460ff161515151581526020016006820180548060200260200160405190810160405280929190818152602001828054801561171957602002820191906000526020600020906000905b82829054906101000a900460ff161515815260200190600101906020826000010492830192600103820291508084116116e35790505b505050505081526020016007820154815260200160088201548152505084848151811061174957611748612558565b5b6020026020010181905250828061175f906125b6565b935050611774565b80806001019150506113c0565b5080806001019150506113b0565b5081935050505090565b60008060008373ffffffffffffffffffffffffffffffffffffffff1673ffffffffffffffffffffffffffffffffffffffff168152602001908152602001600020549050919050565b6040518061012001604052806000815260200160608152602001600073ffffffffffffffffffffffffffffffffffffffff16815260200160608152602001606081526020016000151581526020016060815260200160008152602001600081525090565b5080546118449061262d565b6000825580601f106118565750611875565b601f0160209004906000526020600020908101906118749190611a5f565b5b50565b50805460008255906000526020600020908101906118969190611a5f565b50565b50805460008255906000526020600020908101906118b79190611a5f565b50565b50805460008255601f0160209004906000526020600020908101906118df9190611a5f565b50565b82805482825590600052602060002090810192821561195b579160200282015b8281111561195a5782518260006101000a81548173ffffffffffffffffffffffffffffffffffffffff021916908373ffffffffffffffffffffffffffffffffffffffff16021790555091602001919060010190611902565b5b5090506119689190611a5f565b5090565b8280548282559060005260206000209081019282156119a8579160200282015b828111156119a757825182559160200191906001019061198c565b5b5090506119b59190611a5f565b5090565b82805482825590600052602060002090601f01602090048101928215611a4e5791602002820160005b83821115611a1f57835183826101000a81548160ff02191690831515021790555092602001926001016020816000010492830192600103026119e2565b8015611a4c5782816101000a81549060ff0219169055600101602081600001049283019260010302611a1f565b505b509050611a5b9190611a5f565b5090565b5b80821115611a78576000816000905550600101611a60565b5090565b6000604051905090565b600080fd5b600080fd5b600073ffffffffffffffffffffffffffffffffffffffff82169050919050565b6000611abb82611a90565b9050919050565b611acb81611ab0565b8114611ad657600080fd5b50565b600081359050611ae881611ac2565b92915050565b600060208284031215611b0457611b03611a86565b5b6000611b1284828501611ad9565b91505092915050565b600081519050919050565b600082825260208201905092915050565b6000819050602082019050919050565b6000819050919050565b611b5a81611b47565b82525050565b600081519050919050565b600082825260208201905092915050565b60005b83811015611b9a578082015181840152602081019050611b7f565b60008484015250505050565b6000601f19601f8301169050919050565b6000611bc282611b60565b611bcc8185611b6b565b9350611bdc818560208601611b7c565b611be581611ba6565b840191505092915050565b611bf981611ab0565b82525050565b600081519050919050565b600082825260208201905092915050565b6000819050602082019050919050565b6000611c378383611bf0565b60208301905092915050565b6000602082019050919050565b6000611c5b82611bff565b611c658185611c0a565b9350611c7083611c1b565b8060005b83811015611ca1578151611c888882611c2b565b9750611c9383611c43565b925050600181019050611c74565b5085935050505092915050565b600081519050919050565b600082825260208201905092915050565b6000819050602082019050919050565b6000611ce68383611b51565b60208301905092915050565b6000602082019050919050565b6000611d0a82611cae565b611d148185611cb9565b9350611d1f83611cca565b8060005b83811015611d50578151611d378882611cda565b9750611d4283611cf2565b925050600181019050611d23565b5085935050505092915050565b60008115159050919050565b611d7281611d5d565b82525050565b600081519050919050565b600082825260208201905092915050565b6000819050602082019050919050565b6000611db08383611d69565b60208301905092915050565b6000602082019050919050565b6000611dd482611d78565b611dde8185611d83565b9350611de983611d94565b8060005b83811015611e1a578151611e018882611da4565b9750611e0c83611dbc565b925050600181019050611ded565b5085935050505092915050565b600061012083016000830151611e406000860182611b51565b5060208301518482036020860152611e588282611bb7565b9150506040830151611e6d6040860182611bf0565b5060608301518482036060860152611e858282611c50565b91505060808301518482036080860152611e9f8282611cff565b91505060a0830151611eb460a0860182611d69565b5060c083015184820360c0860152611ecc8282611dc9565b91505060e0830151611ee160e0860182611b51565b50610100830151611ef6610100860182611b51565b508091505092915050565b6000611f0d8383611e27565b905092915050565b6000602082019050919050565b6000611f2d82611b1b565b611f378185611b26565b935083602082028501611f4985611b37565b8060005b85811015611f855784840389528151611f668582611f01565b9450611f7183611f15565b925060208a01995050600181019050611f4d565b50829750879550505050505092915050565b60006020820190508181036000830152611fb18184611f22565b905092915050565b611fc281611b47565b8114611fcd57600080fd5b50565b600081359050611fdf81611fb9565b92915050565b600060208284031215611ffb57611ffa611a86565b5b600061200984828501611fd0565b91505092915050565b6000819050919050565b61202581612012565b82525050565b6000602082019050612040600083018461201c565b92915050565b600080fd5b7f4e487b7100000000000000000000000000000000000000000000000000000000600052604160045260246000fd5b61208382611ba6565b810181811067ffffffffffffffff821117156120a2576120a161204b565b5b80604052505050565b60006120b5611a7c565b90506120c1828261207a565b919050565b600067ffffffffffffffff8211156120e1576120e061204b565b5b602082029050602081019050919050565b600080fd5b600061210a612105846120c6565b6120ab565b9050808382526020820190506020840283018581111561212d5761212c6120f2565b5b835b8181101561215657806121428882611fd0565b84526020840193505060208101905061212f565b5050509392505050565b600082601f83011261217557612174612046565b5b81356121858482602086016120f7565b91505092915050565b600080604083850312156121a5576121a4611a86565b5b600083013567ffffffffffffffff8111156121c3576121c2611a8b565b5b6121cf85828601612160565b92505060206121e085828601611ad9565b9150509250929050565b600080fd5b600067ffffffffffffffff82111561220a5761220961204b565b5b61221382611ba6565b9050602081019050919050565b82818337600083830152505050565b600061224261223d846121ef565b6120ab565b90508281526020810184848401111561225e5761225d6121ea565b5b612269848285612220565b509392505050565b600082601f83011261228657612285612046565b5b813561229684826020860161222f565b91505092915050565b600080604083850312156122b6576122b5611a86565b5b60006122c485828601611fd0565b925050602083013567ffffffffffffffff8111156122e5576122e4611a8b565b5b6122f185828601612271565b9150509250929050565b61230481611b47565b82525050565b600082825260208201905092915050565b600061232682611b60565b612330818561230a565b9350612340818560208601611b7c565b61234981611ba6565b840191505092915050565b61235d81611ab0565b82525050565b61236c81611d5d565b82525050565b600060c08201905061238760008301896122fb565b8181036020830152612399818861231b565b90506123a86040830187612354565b6123b56060830186612363565b6123c260808301856122fb565b6123cf60a08301846122fb565b979650505050505050565b600067ffffffffffffffff8211156123f5576123f461204b565b5b602082029050602081019050919050565b6000612419612414846123da565b6120ab565b9050808382526020820190506020840283018581111561243c5761243b6120f2565b5b835b8181101561246557806124518882611ad9565b84526020840193505060208101905061243e565b5050509392505050565b600082601f83011261248457612483612046565b5b8135612494848260208601612406565b91505092915050565b600080600080608085870312156124b7576124b6611a86565b5b600085013567ffffffffffffffff8111156124d5576124d4611a8b565b5b6124e18782880161246f565b945050602085013567ffffffffffffffff81111561250257612501611a8b565b5b61250e87828801612160565b935050604085013567ffffffffffffffff81111561252f5761252e611a8b565b5b61253b87828801612271565b925050606061254c87828801611fd0565b91505092959194509250565b7f4e487b7100000000000000000000000000000000000000000000000000000000600052603260045260246000fd5b7f4e487b7100000000000000000000000000000000000000000000000000000000600052601160045260246000fd5b60006125c182611b47565b91507fffffffffffffffffffffffffffffffffffffffffffffffffffffffffffffffff82036125f3576125f2612587565b5b600182019050919050565b7f4e487b7100000000000000000000000000000000000000000000000000000000600052602260045260246000fd5b6000600282049050600182168061264557607f821691505b602082108103612658576126576125fe565b5b50919050565b7f457870656e736520646f6573206e6f7420657869737400000000000000000000600082015250565b600061269460168361230a565b915061269f8261265e565b602082019050919050565b600060208201905081810360008301526126c381612687565b9050919050565b7f4e6f20657870656e7365732070726f7669646564000000000000000000000000600082015250565b600061270060148361230a565b915061270b826126ca565b602082019050919050565b6000602082019050818103600083015261272f816126f3565b9050919050565b7f496e76616c696420757365722061646472657373000000000000000000000000600082015250565b600061276c60148361230a565b915061277782612736565b602082019050919050565b6000602082019050818103600083015261279b8161275f565b9050919050565b7f55736572206973206e6f7420696e766f6c76656420696e20746869732065787060008201527f656e736500000000000000000000000000000000000000000000000000000000602082015250565b60006127fe60248361230a565b9150612809826127a2565b604082019050919050565b6000602082019050818103600083015261282d816127f1565b9050919050565b7f557365722068617320616c7265616479206265656e206d61726b65642061732060008201527f7061696400000000000000000000000000000000000000000000000000000000602082015250565b600061289060248361230a565b915061289b82612834565b604082019050919050565b600060208201905081810360008301526128bf81612883565b9050919050565b60006128d182612012565b91506128dc83612012565b925082820390508181126000841216828213600085121516171561290357612902612587565b5b92915050565b60008190508160005260206000209050919050565b60006020601f8301049050919050565b600082821b905092915050565b60006008830261296b7fffffffffffffffffffffffffffffffffffffffffffffffffffffffffffffffff8261292e565b612975868361292e565b95508019841693508086168417925050509392505050565b6000819050919050565b60006129b26129ad6129a884611b47565b61298d565b611b47565b9050919050565b6000819050919050565b6129cc83612997565b6129e06129d8826129b9565b84845461293b565b825550505050565b600090565b6129f56129e8565b612a008184846129c3565b505050565b5b81811015612a2457612a196000826129ed565b600181019050612a06565b5050565b601f821115612a6957612a3a81612909565b612a438461291e565b81016020851015612a52578190505b612a66612a5e8561291e565b830182612a05565b50505b505050565b600082821c905092915050565b6000612a8c60001984600802612a6e565b1980831691505092915050565b6000612aa58383612a7b565b9150826002028217905092915050565b612abe82611b60565b67ffffffffffffffff811115612ad757612ad661204b565b5b612ae1825461262d565b612aec828285612a28565b600060209050601f831160018114612b1f5760008415612b0d578287015190505b612b178582612a99565b865550612b7f565b601f198416612b2d86612909565b60005b82811015612b5557848901518255600182019150602085019450602081019050612b30565b86831015612b725784890151612b6e601f891682612a7b565b8355505b6001600288020188555050505b505050505050565b7f457870656e736520616c726561647920736574746c6564000000000000000000600082015250565b6000612bbd60178361230a565b9150612bc882612b87565b602082019050919050565b60006020820190508181036000830152612bec81612bb0565b9050919050565b6000602082019050612c0860008301846122fb565b92915050565b7f4d69736d61746368656420617272617973000000000000000000000000000000600082015250565b6000612c4460118361230a565b9150612c4f82612c0e565b602082019050919050565b60006020820190508181036000830152612c7381612c37565b9050919050565b6000612c8582612012565b9150612c9083612012565b925082820190508281121560008312168382126000841215161715612cb857612cb7612587565b5b9291505056fea2646970667358221220e1fe2d4d03963e84be64ffdae3a11bd97ffda4d6ce86e0f26e08b7348d6c452c64736f6c634300081b0033",
  "linkReferences": {},
  "deployedLinkReferences": {}
}